{
	"data": {
		"bytecode": {
			"linkReferences": {},
			"object": "608060405234801561001057600080fd5b506040518060400160405280600c81526020017f546f6b656e5f315f52494454000000000000000000000000000000000000000081525060008060018152602001908152602001600020908161006691906105c2565b506040518060400160405280600c81526020017f546f6b656e5f325f5249445400000000000000000000000000000000000000008152506000806002815260200190815260200160002090816100bc91906105c2565b506040518060400160405280600c81526020017f546f6b656e5f335f52494454000000000000000000000000000000000000000081525060008060038152602001908152602001600020908161011291906105c2565b506040518060400160405280600c81526020017f546f6b656e5f345f52494454000000000000000000000000000000000000000081525060008060048152602001908152602001600020908161016891906105c2565b506040518060400160405280600c81526020017f546f6b656e5f355f5249445400000000000000000000000000000000000000008152506000806005815260200190815260200160002090816101be91906105c2565b506040518060400160405280600c81526020017f546f6b656e5f365f52494454000000000000000000000000000000000000000081525060008060068152602001908152602001600020908161021491906105c2565b506040518060400160405280600c81526020017f546f6b656e5f375f52494454000000000000000000000000000000000000000081525060008060078152602001908152602001600020908161026a91906105c2565b506040518060400160405280600c81526020017f546f6b656e5f385f5249445400000000000000000000000000000000000000008152506000806008815260200190815260200160002090816102c091906105c2565b506040518060400160405280600c81526020017f546f6b656e5f395f52494454000000000000000000000000000000000000000081525060008060098152602001908152602001600020908161031691906105c2565b506040518060400160405280600d81526020017f546f6b656e5f31305f5249445400000000000000000000000000000000000000815250600080600a8152602001908152602001600020908161036c91906105c2565b50610694565b600081519050919050565b7f4e487b7100000000000000000000000000000000000000000000000000000000600052604160045260246000fd5b7f4e487b7100000000000000000000000000000000000000000000000000000000600052602260045260246000fd5b600060028204905060018216806103f357607f821691505b602082108103610406576104056103ac565b5b50919050565b60008190508160005260206000209050919050565b60006020601f8301049050919050565b600082821b905092915050565b60006008830261046e7fffffffffffffffffffffffffffffffffffffffffffffffffffffffffffffffff82610431565b6104788683610431565b95508019841693508086168417925050509392505050565b6000819050919050565b6000819050919050565b60006104bf6104ba6104b584610490565b61049a565b610490565b9050919050565b6000819050919050565b6104d9836104a4565b6104ed6104e5826104c6565b84845461043e565b825550505050565b600090565b6105026104f5565b61050d8184846104d0565b505050565b5b81811015610531576105266000826104fa565b600181019050610513565b5050565b601f821115610576576105478161040c565b61055084610421565b8101602085101561055f578190505b61057361056b85610421565b830182610512565b50505b505050565b600082821c905092915050565b60006105996000198460080261057b565b1980831691505092915050565b60006105b28383610588565b9150826002028217905092915050565b6105cb82610372565b67ffffffffffffffff8111156105e4576105e361037d565b5b6105ee82546103db565b6105f9828285610535565b600060209050601f83116001811461062c576000841561061a578287015190505b61062485826105a6565b86555061068c565b601f19841661063a8661040c565b60005b828110156106625784890151825560018201915060208501945060208101905061063d565b8683101561067f578489015161067b601f891682610588565b8355505b6001600288020188555050505b505050505050565b6102b0806106a36000396000f3fe608060405234801561001057600080fd5b506004361061002b5760003560e01c80635ab6e88414610030575b600080fd5b61004a6004803603810190610045919061013b565b610060565b60405161005791906101f8565b60405180910390f35b6000602052806000526040600020600091509050805461007f90610249565b80601f01602080910402602001604051908101604052809291908181526020018280546100ab90610249565b80156100f85780601f106100cd576101008083540402835291602001916100f8565b820191906000526020600020905b8154815290600101906020018083116100db57829003601f168201915b505050505081565b600080fd5b6000819050919050565b61011881610105565b811461012357600080fd5b50565b6000813590506101358161010f565b92915050565b60006020828403121561015157610150610100565b5b600061015f84828501610126565b91505092915050565b600081519050919050565b600082825260208201905092915050565b60005b838110156101a2578082015181840152602081019050610187565b60008484015250505050565b6000601f19601f8301169050919050565b60006101ca82610168565b6101d48185610173565b93506101e4818560208601610184565b6101ed816101ae565b840191505092915050565b6000602082019050818103600083015261021281846101bf565b905092915050565b7f4e487b7100000000000000000000000000000000000000000000000000000000600052602260045260246000fd5b6000600282049050600182168061026157607f821691505b6020821081036102745761027361021a565b5b5091905056fea2646970667358221220ec7be037ba45a5d38ed3ee1c03d1189e4e03304d1c301a70bdd95a07a54ca44964736f6c63430008120033",
			"opcodes": "PUSH1 0x80 PUSH1 0x40 MSTORE CALLVALUE DUP1 ISZERO PUSH2 0x10 JUMPI PUSH1 0x0 DUP1 REVERT JUMPDEST POP PUSH1 0x40 MLOAD DUP1 PUSH1 0x40 ADD PUSH1 0x40 MSTORE DUP1 PUSH1 0xC DUP2 MSTORE PUSH1 0x20 ADD PUSH32 0x546F6B656E5F315F524944540000000000000000000000000000000000000000 DUP2 MSTORE POP PUSH1 0x0 DUP1 PUSH1 0x1 DUP2 MSTORE PUSH1 0x20 ADD SWAP1 DUP2 MSTORE PUSH1 0x20 ADD PUSH1 0x0 KECCAK256 SWAP1 DUP2 PUSH2 0x66 SWAP2 SWAP1 PUSH2 0x5C2 JUMP JUMPDEST POP PUSH1 0x40 MLOAD DUP1 PUSH1 0x40 ADD PUSH1 0x40 MSTORE DUP1 PUSH1 0xC DUP2 MSTORE PUSH1 0x20 ADD PUSH32 0x546F6B656E5F325F524944540000000000000000000000000000000000000000 DUP2 MSTORE POP PUSH1 0x0 DUP1 PUSH1 0x2 DUP2 MSTORE PUSH1 0x20 ADD SWAP1 DUP2 MSTORE PUSH1 0x20 ADD PUSH1 0x0 KECCAK256 SWAP1 DUP2 PUSH2 0xBC SWAP2 SWAP1 PUSH2 0x5C2 JUMP JUMPDEST POP PUSH1 0x40 MLOAD DUP1 PUSH1 0x40 ADD PUSH1 0x40 MSTORE DUP1 PUSH1 0xC DUP2 MSTORE PUSH1 0x20 ADD PUSH32 0x546F6B656E5F335F524944540000000000000000000000000000000000000000 DUP2 MSTORE POP PUSH1 0x0 DUP1 PUSH1 0x3 DUP2 MSTORE PUSH1 0x20 ADD SWAP1 DUP2 MSTORE PUSH1 0x20 ADD PUSH1 0x0 KECCAK256 SWAP1 DUP2 PUSH2 0x112 SWAP2 SWAP1 PUSH2 0x5C2 JUMP JUMPDEST POP PUSH1 0x40 MLOAD DUP1 PUSH1 0x40 ADD PUSH1 0x40 MSTORE DUP1 PUSH1 0xC DUP2 MSTORE PUSH1 0x20 ADD PUSH32 0x546F6B656E5F345F524944540000000000000000000000000000000000000000 DUP2 MSTORE POP PUSH1 0x0 DUP1 PUSH1 0x4 DUP2 MSTORE PUSH1 0x20 ADD SWAP1 DUP2 MSTORE PUSH1 0x20 ADD PUSH1 0x0 KECCAK256 SWAP1 DUP2 PUSH2 0x168 SWAP2 SWAP1 PUSH2 0x5C2 JUMP JUMPDEST POP PUSH1 0x40 MLOAD DUP1 PUSH1 0x40 ADD PUSH1 0x40 MSTORE DUP1 PUSH1 0xC DUP2 MSTORE PUSH1 0x20 ADD PUSH32 0x546F6B656E5F355F524944540000000000000000000000000000000000000000 DUP2 MSTORE POP PUSH1 0x0 DUP1 PUSH1 0x5 DUP2 MSTORE PUSH1 0x20 ADD SWAP1 DUP2 MSTORE PUSH1 0x20 ADD PUSH1 0x0 KECCAK256 SWAP1 DUP2 PUSH2 0x1BE SWAP2 SWAP1 PUSH2 0x5C2 JUMP JUMPDEST POP PUSH1 0x40 MLOAD DUP1 PUSH1 0x40 ADD PUSH1 0x40 MSTORE DUP1 PUSH1 0xC DUP2 MSTORE PUSH1 0x20 ADD PUSH32 0x546F6B656E5F365F524944540000000000000000000000000000000000000000 DUP2 MSTORE POP PUSH1 0x0 DUP1 PUSH1 0x6 DUP2 MSTORE PUSH1 0x20 ADD SWAP1 DUP2 MSTORE PUSH1 0x20 ADD PUSH1 0x0 KECCAK256 SWAP1 DUP2 PUSH2 0x214 SWAP2 SWAP1 PUSH2 0x5C2 JUMP JUMPDEST POP PUSH1 0x40 MLOAD DUP1 PUSH1 0x40 ADD PUSH1 0x40 MSTORE DUP1 PUSH1 0xC DUP2 MSTORE PUSH1 0x20 ADD PUSH32 0x546F6B656E5F375F524944540000000000000000000000000000000000000000 DUP2 MSTORE POP PUSH1 0x0 DUP1 PUSH1 0x7 DUP2 MSTORE PUSH1 0x20 ADD SWAP1 DUP2 MSTORE PUSH1 0x20 ADD PUSH1 0x0 KECCAK256 SWAP1 DUP2 PUSH2 0x26A SWAP2 SWAP1 PUSH2 0x5C2 JUMP JUMPDEST POP PUSH1 0x40 MLOAD DUP1 PUSH1 0x40 ADD PUSH1 0x40 MSTORE DUP1 PUSH1 0xC DUP2 MSTORE PUSH1 0x20 ADD PUSH32 0x546F6B656E5F385F524944540000000000000000000000000000000000000000 DUP2 MSTORE POP PUSH1 0x0 DUP1 PUSH1 0x8 DUP2 MSTORE PUSH1 0x20 ADD SWAP1 DUP2 MSTORE PUSH1 0x20 ADD PUSH1 0x0 KECCAK256 SWAP1 DUP2 PUSH2 0x2C0 SWAP2 SWAP1 PUSH2 0x5C2 JUMP JUMPDEST POP PUSH1 0x40 MLOAD DUP1 PUSH1 0x40 ADD PUSH1 0x40 MSTORE DUP1 PUSH1 0xC DUP2 MSTORE PUSH1 0x20 ADD PUSH32 0x546F6B656E5F395F524944540000000000000000000000000000000000000000 DUP2 MSTORE POP PUSH1 0x0 DUP1 PUSH1 0x9 DUP2 MSTORE PUSH1 0x20 ADD SWAP1 DUP2 MSTORE PUSH1 0x20 ADD PUSH1 0x0 KECCAK256 SWAP1 DUP2 PUSH2 0x316 SWAP2 SWAP1 PUSH2 0x5C2 JUMP JUMPDEST POP PUSH1 0x40 MLOAD DUP1 PUSH1 0x40 ADD PUSH1 0x40 MSTORE DUP1 PUSH1 0xD DUP2 MSTORE PUSH1 0x20 ADD PUSH32 0x546F6B656E5F31305F5249445400000000000000000000000000000000000000 DUP2 MSTORE POP PUSH1 0x0 DUP1 PUSH1 0xA DUP2 MSTORE PUSH1 0x20 ADD SWAP1 DUP2 MSTORE PUSH1 0x20 ADD PUSH1 0x0 KECCAK256 SWAP1 DUP2 PUSH2 0x36C SWAP2 SWAP1 PUSH2 0x5C2 JUMP JUMPDEST POP PUSH2 0x694 JUMP JUMPDEST PUSH1 0x0 DUP2 MLOAD SWAP1 POP SWAP2 SWAP1 POP JUMP JUMPDEST PUSH32 0x4E487B7100000000000000000000000000000000000000000000000000000000 PUSH1 0x0 MSTORE PUSH1 0x41 PUSH1 0x4 MSTORE PUSH1 0x24 PUSH1 0x0 REVERT JUMPDEST PUSH32 0x4E487B7100000000000000000000000000000000000000000000000000000000 PUSH1 0x0 MSTORE PUSH1 0x22 PUSH1 0x4 MSTORE PUSH1 0x24 PUSH1 0x0 REVERT JUMPDEST PUSH1 0x0 PUSH1 0x2 DUP3 DIV SWAP1 POP PUSH1 0x1 DUP3 AND DUP1 PUSH2 0x3F3 JUMPI PUSH1 0x7F DUP3 AND SWAP2 POP JUMPDEST PUSH1 0x20 DUP3 LT DUP2 SUB PUSH2 0x406 JUMPI PUSH2 0x405 PUSH2 0x3AC JUMP JUMPDEST JUMPDEST POP SWAP2 SWAP1 POP JUMP JUMPDEST PUSH1 0x0 DUP2 SWAP1 POP DUP2 PUSH1 0x0 MSTORE PUSH1 0x20 PUSH1 0x0 KECCAK256 SWAP1 POP SWAP2 SWAP1 POP JUMP JUMPDEST PUSH1 0x0 PUSH1 0x20 PUSH1 0x1F DUP4 ADD DIV SWAP1 POP SWAP2 SWAP1 POP JUMP JUMPDEST PUSH1 0x0 DUP3 DUP3 SHL SWAP1 POP SWAP3 SWAP2 POP POP JUMP JUMPDEST PUSH1 0x0 PUSH1 0x8 DUP4 MUL PUSH2 0x46E PUSH32 0xFFFFFFFFFFFFFFFFFFFFFFFFFFFFFFFFFFFFFFFFFFFFFFFFFFFFFFFFFFFFFFFF DUP3 PUSH2 0x431 JUMP JUMPDEST PUSH2 0x478 DUP7 DUP4 PUSH2 0x431 JUMP JUMPDEST SWAP6 POP DUP1 NOT DUP5 AND SWAP4 POP DUP1 DUP7 AND DUP5 OR SWAP3 POP POP POP SWAP4 SWAP3 POP POP POP JUMP JUMPDEST PUSH1 0x0 DUP2 SWAP1 POP SWAP2 SWAP1 POP JUMP JUMPDEST PUSH1 0x0 DUP2 SWAP1 POP SWAP2 SWAP1 POP JUMP JUMPDEST PUSH1 0x0 PUSH2 0x4BF PUSH2 0x4BA PUSH2 0x4B5 DUP5 PUSH2 0x490 JUMP JUMPDEST PUSH2 0x49A JUMP JUMPDEST PUSH2 0x490 JUMP JUMPDEST SWAP1 POP SWAP2 SWAP1 POP JUMP JUMPDEST PUSH1 0x0 DUP2 SWAP1 POP SWAP2 SWAP1 POP JUMP JUMPDEST PUSH2 0x4D9 DUP4 PUSH2 0x4A4 JUMP JUMPDEST PUSH2 0x4ED PUSH2 0x4E5 DUP3 PUSH2 0x4C6 JUMP JUMPDEST DUP5 DUP5 SLOAD PUSH2 0x43E JUMP JUMPDEST DUP3 SSTORE POP POP POP POP JUMP JUMPDEST PUSH1 0x0 SWAP1 JUMP JUMPDEST PUSH2 0x502 PUSH2 0x4F5 JUMP JUMPDEST PUSH2 0x50D DUP2 DUP5 DUP5 PUSH2 0x4D0 JUMP JUMPDEST POP POP POP JUMP JUMPDEST JUMPDEST DUP2 DUP2 LT ISZERO PUSH2 0x531 JUMPI PUSH2 0x526 PUSH1 0x0 DUP3 PUSH2 0x4FA JUMP JUMPDEST PUSH1 0x1 DUP2 ADD SWAP1 POP PUSH2 0x513 JUMP JUMPDEST POP POP JUMP JUMPDEST PUSH1 0x1F DUP3 GT ISZERO PUSH2 0x576 JUMPI PUSH2 0x547 DUP2 PUSH2 0x40C JUMP JUMPDEST PUSH2 0x550 DUP5 PUSH2 0x421 JUMP JUMPDEST DUP2 ADD PUSH1 0x20 DUP6 LT ISZERO PUSH2 0x55F JUMPI DUP2 SWAP1 POP JUMPDEST PUSH2 0x573 PUSH2 0x56B DUP6 PUSH2 0x421 JUMP JUMPDEST DUP4 ADD DUP3 PUSH2 0x512 JUMP JUMPDEST POP POP JUMPDEST POP POP POP JUMP JUMPDEST PUSH1 0x0 DUP3 DUP3 SHR SWAP1 POP SWAP3 SWAP2 POP POP JUMP JUMPDEST PUSH1 0x0 PUSH2 0x599 PUSH1 0x0 NOT DUP5 PUSH1 0x8 MUL PUSH2 0x57B JUMP JUMPDEST NOT DUP1 DUP4 AND SWAP2 POP POP SWAP3 SWAP2 POP POP JUMP JUMPDEST PUSH1 0x0 PUSH2 0x5B2 DUP4 DUP4 PUSH2 0x588 JUMP JUMPDEST SWAP2 POP DUP3 PUSH1 0x2 MUL DUP3 OR SWAP1 POP SWAP3 SWAP2 POP POP JUMP JUMPDEST PUSH2 0x5CB DUP3 PUSH2 0x372 JUMP JUMPDEST PUSH8 0xFFFFFFFFFFFFFFFF DUP2 GT ISZERO PUSH2 0x5E4 JUMPI PUSH2 0x5E3 PUSH2 0x37D JUMP JUMPDEST JUMPDEST PUSH2 0x5EE DUP3 SLOAD PUSH2 0x3DB JUMP JUMPDEST PUSH2 0x5F9 DUP3 DUP3 DUP6 PUSH2 0x535 JUMP JUMPDEST PUSH1 0x0 PUSH1 0x20 SWAP1 POP PUSH1 0x1F DUP4 GT PUSH1 0x1 DUP2 EQ PUSH2 0x62C JUMPI PUSH1 0x0 DUP5 ISZERO PUSH2 0x61A JUMPI DUP3 DUP8 ADD MLOAD SWAP1 POP JUMPDEST PUSH2 0x624 DUP6 DUP3 PUSH2 0x5A6 JUMP JUMPDEST DUP7 SSTORE POP PUSH2 0x68C JUMP JUMPDEST PUSH1 0x1F NOT DUP5 AND PUSH2 0x63A DUP7 PUSH2 0x40C JUMP JUMPDEST PUSH1 0x0 JUMPDEST DUP3 DUP2 LT ISZERO PUSH2 0x662 JUMPI DUP5 DUP10 ADD MLOAD DUP3 SSTORE PUSH1 0x1 DUP3 ADD SWAP2 POP PUSH1 0x20 DUP6 ADD SWAP5 POP PUSH1 0x20 DUP2 ADD SWAP1 POP PUSH2 0x63D JUMP JUMPDEST DUP7 DUP4 LT ISZERO PUSH2 0x67F JUMPI DUP5 DUP10 ADD MLOAD PUSH2 0x67B PUSH1 0x1F DUP10 AND DUP3 PUSH2 0x588 JUMP JUMPDEST DUP4 SSTORE POP JUMPDEST PUSH1 0x1 PUSH1 0x2 DUP9 MUL ADD DUP9 SSTORE POP POP POP JUMPDEST POP POP POP POP POP POP JUMP JUMPDEST PUSH2 0x2B0 DUP1 PUSH2 0x6A3 PUSH1 0x0 CODECOPY PUSH1 0x0 RETURN INVALID PUSH1 0x80 PUSH1 0x40 MSTORE CALLVALUE DUP1 ISZERO PUSH2 0x10 JUMPI PUSH1 0x0 DUP1 REVERT JUMPDEST POP PUSH1 0x4 CALLDATASIZE LT PUSH2 0x2B JUMPI PUSH1 0x0 CALLDATALOAD PUSH1 0xE0 SHR DUP1 PUSH4 0x5AB6E884 EQ PUSH2 0x30 JUMPI JUMPDEST PUSH1 0x0 DUP1 REVERT JUMPDEST PUSH2 0x4A PUSH1 0x4 DUP1 CALLDATASIZE SUB DUP2 ADD SWAP1 PUSH2 0x45 SWAP2 SWAP1 PUSH2 0x13B JUMP JUMPDEST PUSH2 0x60 JUMP JUMPDEST PUSH1 0x40 MLOAD PUSH2 0x57 SWAP2 SWAP1 PUSH2 0x1F8 JUMP JUMPDEST PUSH1 0x40 MLOAD DUP1 SWAP2 SUB SWAP1 RETURN JUMPDEST PUSH1 0x0 PUSH1 0x20 MSTORE DUP1 PUSH1 0x0 MSTORE PUSH1 0x40 PUSH1 0x0 KECCAK256 PUSH1 0x0 SWAP2 POP SWAP1 POP DUP1 SLOAD PUSH2 0x7F SWAP1 PUSH2 0x249 JUMP JUMPDEST DUP1 PUSH1 0x1F ADD PUSH1 0x20 DUP1 SWAP2 DIV MUL PUSH1 0x20 ADD PUSH1 0x40 MLOAD SWAP1 DUP2 ADD PUSH1 0x40 MSTORE DUP1 SWAP3 SWAP2 SWAP1 DUP2 DUP2 MSTORE PUSH1 0x20 ADD DUP3 DUP1 SLOAD PUSH2 0xAB SWAP1 PUSH2 0x249 JUMP JUMPDEST DUP1 ISZERO PUSH2 0xF8 JUMPI DUP1 PUSH1 0x1F LT PUSH2 0xCD JUMPI PUSH2 0x100 DUP1 DUP4 SLOAD DIV MUL DUP4 MSTORE SWAP2 PUSH1 0x20 ADD SWAP2 PUSH2 0xF8 JUMP JUMPDEST DUP3 ADD SWAP2 SWAP1 PUSH1 0x0 MSTORE PUSH1 0x20 PUSH1 0x0 KECCAK256 SWAP1 JUMPDEST DUP2 SLOAD DUP2 MSTORE SWAP1 PUSH1 0x1 ADD SWAP1 PUSH1 0x20 ADD DUP1 DUP4 GT PUSH2 0xDB JUMPI DUP3 SWAP1 SUB PUSH1 0x1F AND DUP3 ADD SWAP2 JUMPDEST POP POP POP POP POP DUP2 JUMP JUMPDEST PUSH1 0x0 DUP1 REVERT JUMPDEST PUSH1 0x0 DUP2 SWAP1 POP SWAP2 SWAP1 POP JUMP JUMPDEST PUSH2 0x118 DUP2 PUSH2 0x105 JUMP JUMPDEST DUP2 EQ PUSH2 0x123 JUMPI PUSH1 0x0 DUP1 REVERT JUMPDEST POP JUMP JUMPDEST PUSH1 0x0 DUP2 CALLDATALOAD SWAP1 POP PUSH2 0x135 DUP2 PUSH2 0x10F JUMP JUMPDEST SWAP3 SWAP2 POP POP JUMP JUMPDEST PUSH1 0x0 PUSH1 0x20 DUP3 DUP5 SUB SLT ISZERO PUSH2 0x151 JUMPI PUSH2 0x150 PUSH2 0x100 JUMP JUMPDEST JUMPDEST PUSH1 0x0 PUSH2 0x15F DUP5 DUP3 DUP6 ADD PUSH2 0x126 JUMP JUMPDEST SWAP2 POP POP SWAP3 SWAP2 POP POP JUMP JUMPDEST PUSH1 0x0 DUP2 MLOAD SWAP1 POP SWAP2 SWAP1 POP JUMP JUMPDEST PUSH1 0x0 DUP3 DUP3 MSTORE PUSH1 0x20 DUP3 ADD SWAP1 POP SWAP3 SWAP2 POP POP JUMP JUMPDEST PUSH1 0x0 JUMPDEST DUP4 DUP2 LT ISZERO PUSH2 0x1A2 JUMPI DUP1 DUP3 ADD MLOAD DUP2 DUP5 ADD MSTORE PUSH1 0x20 DUP2 ADD SWAP1 POP PUSH2 0x187 JUMP JUMPDEST PUSH1 0x0 DUP5 DUP5 ADD MSTORE POP POP POP POP JUMP JUMPDEST PUSH1 0x0 PUSH1 0x1F NOT PUSH1 0x1F DUP4 ADD AND SWAP1 POP SWAP2 SWAP1 POP JUMP JUMPDEST PUSH1 0x0 PUSH2 0x1CA DUP3 PUSH2 0x168 JUMP JUMPDEST PUSH2 0x1D4 DUP2 DUP6 PUSH2 0x173 JUMP JUMPDEST SWAP4 POP PUSH2 0x1E4 DUP2 DUP6 PUSH1 0x20 DUP7 ADD PUSH2 0x184 JUMP JUMPDEST PUSH2 0x1ED DUP2 PUSH2 0x1AE JUMP JUMPDEST DUP5 ADD SWAP2 POP POP SWAP3 SWAP2 POP POP JUMP JUMPDEST PUSH1 0x0 PUSH1 0x20 DUP3 ADD SWAP1 POP DUP2 DUP2 SUB PUSH1 0x0 DUP4 ADD MSTORE PUSH2 0x212 DUP2 DUP5 PUSH2 0x1BF JUMP JUMPDEST SWAP1 POP SWAP3 SWAP2 POP POP JUMP JUMPDEST PUSH32 0x4E487B7100000000000000000000000000000000000000000000000000000000 PUSH1 0x0 MSTORE PUSH1 0x22 PUSH1 0x4 MSTORE PUSH1 0x24 PUSH1 0x0 REVERT JUMPDEST PUSH1 0x0 PUSH1 0x2 DUP3 DIV SWAP1 POP PUSH1 0x1 DUP3 AND DUP1 PUSH2 0x261 JUMPI PUSH1 0x7F DUP3 AND SWAP2 POP JUMPDEST PUSH1 0x20 DUP3 LT DUP2 SUB PUSH2 0x274 JUMPI PUSH2 0x273 PUSH2 0x21A JUMP JUMPDEST JUMPDEST POP SWAP2 SWAP1 POP JUMP INVALID LOG2 PUSH5 0x6970667358 0x22 SLT KECCAK256 0xEC PUSH28 0xE037BA45A5D38ED3EE1C03D1189E4E03304D1C301A70BDD95A07A54C LOG4 0x49 PUSH5 0x736F6C6343 STOP ADDMOD SLT STOP CALLER "
		},
		"gasEstimates": {
			"creation": {
				"codeDepositCost": "137600",
				"executionCost": "infinite",
				"totalCost": "infinite"
			},
			"external": {
				"tokenInscription(uint256)": "infinite"
			}
		},
		"methodIdentifiers": {
			"tokenInscription(uint256)": "5ab6e884"
		}
	},
	"abi": [
		{
			"inputs": [],
			"stateMutability": "nonpayable",
			"type": "constructor"
		},
		{
			"inputs": [
				{
					"internalType": "uint256",
					"name": "",
					"type": "uint256"
				}
			],
			"name": "tokenInscription",
			"outputs": [
				{
					"internalType": "string",
					"name": "",
					"type": "string"
				}
			],
			"stateMutability": "view",
			"type": "function"
		}
	]
}