{
	"MyToken.Sol": {
		"MyToken": {
			"abi": [
				{
					"inputs": [],
					"stateMutability": "nonpayable",
					"type": "constructor"
				},
				{
					"anonymous": false,
					"inputs": [
						{
							"indexed": true,
							"internalType": "address",
							"name": "owner",
							"type": "address"
						},
						{
							"indexed": true,
							"internalType": "address",
							"name": "spender",
							"type": "address"
						},
						{
							"indexed": false,
							"internalType": "uint256",
							"name": "value",
							"type": "uint256"
						}
					],
					"name": "Approval",
					"type": "event"
				},
				{
					"anonymous": false,
					"inputs": [
						{
							"indexed": true,
							"internalType": "address",
							"name": "from",
							"type": "address"
						},
						{
							"indexed": true,
							"internalType": "address",
							"name": "to",
							"type": "address"
						},
						{
							"indexed": false,
							"internalType": "uint256",
							"name": "value",
							"type": "uint256"
						}
					],
					"name": "Transfer",
					"type": "event"
				},
				{
					"inputs": [
						{
							"internalType": "address",
							"name": "account",
							"type": "address"
						}
					],
					"name": "addToBlacklist",
					"outputs": [],
					"stateMutability": "nonpayable",
					"type": "function"
				},
				{
					"inputs": [
						{
							"internalType": "address",
							"name": "owner",
							"type": "address"
						},
						{
							"internalType": "address",
							"name": "spender",
							"type": "address"
						}
					],
					"name": "allowance",
					"outputs": [
						{
							"internalType": "uint256",
							"name": "",
							"type": "uint256"
						}
					],
					"stateMutability": "view",
					"type": "function"
				},
				{
					"inputs": [
						{
							"internalType": "address",
							"name": "spender",
							"type": "address"
						},
						{
							"internalType": "uint256",
							"name": "amount",
							"type": "uint256"
						}
					],
					"name": "approve",
					"outputs": [
						{
							"internalType": "bool",
							"name": "",
							"type": "bool"
						}
					],
					"stateMutability": "nonpayable",
					"type": "function"
				},
				{
					"inputs": [
						{
							"internalType": "address",
							"name": "account",
							"type": "address"
						}
					],
					"name": "balanceOf",
					"outputs": [
						{
							"internalType": "uint256",
							"name": "",
							"type": "uint256"
						}
					],
					"stateMutability": "view",
					"type": "function"
				},
				{
					"inputs": [],
					"name": "decimals",
					"outputs": [
						{
							"internalType": "uint8",
							"name": "",
							"type": "uint8"
						}
					],
					"stateMutability": "view",
					"type": "function"
				},
				{
					"inputs": [
						{
							"internalType": "address",
							"name": "spender",
							"type": "address"
						},
						{
							"internalType": "uint256",
							"name": "subtractedValue",
							"type": "uint256"
						}
					],
					"name": "decreaseAllowance",
					"outputs": [
						{
							"internalType": "bool",
							"name": "",
							"type": "bool"
						}
					],
					"stateMutability": "nonpayable",
					"type": "function"
				},
				{
					"inputs": [],
					"name": "getBalance",
					"outputs": [
						{
							"internalType": "uint256",
							"name": "",
							"type": "uint256"
						}
					],
					"stateMutability": "view",
					"type": "function"
				},
				{
					"inputs": [
						{
							"internalType": "uint256",
							"name": "tokenId",
							"type": "uint256"
						}
					],
					"name": "getInscription",
					"outputs": [
						{
							"internalType": "string",
							"name": "",
							"type": "string"
						}
					],
					"stateMutability": "view",
					"type": "function"
				},
				{
					"inputs": [
						{
							"internalType": "uint256",
							"name": "tokenId",
							"type": "uint256"
						}
					],
					"name": "getURL",
					"outputs": [
						{
							"internalType": "string",
							"name": "",
							"type": "string"
						}
					],
					"stateMutability": "view",
					"type": "function"
				},
				{
					"inputs": [
						{
							"internalType": "address",
							"name": "spender",
							"type": "address"
						},
						{
							"internalType": "uint256",
							"name": "addedValue",
							"type": "uint256"
						}
					],
					"name": "increaseAllowance",
					"outputs": [
						{
							"internalType": "bool",
							"name": "",
							"type": "bool"
						}
					],
					"stateMutability": "nonpayable",
					"type": "function"
				},
				{
					"inputs": [],
					"name": "name",
					"outputs": [
						{
							"internalType": "string",
							"name": "",
							"type": "string"
						}
					],
					"stateMutability": "view",
					"type": "function"
				},
				{
					"inputs": [
						{
							"internalType": "address",
							"name": "account",
							"type": "address"
						}
					],
					"name": "removeFromBlacklist",
					"outputs": [],
					"stateMutability": "nonpayable",
					"type": "function"
				},
				{
					"inputs": [],
					"name": "symbol",
					"outputs": [
						{
							"internalType": "string",
							"name": "",
							"type": "string"
						}
					],
					"stateMutability": "view",
					"type": "function"
				},
				{
					"inputs": [
						{
							"internalType": "uint256",
							"name": "",
							"type": "uint256"
						}
					],
					"name": "tokenInscriptions",
					"outputs": [
						{
							"internalType": "string",
							"name": "",
							"type": "string"
						}
					],
					"stateMutability": "view",
					"type": "function"
				},
				{
					"inputs": [
						{
							"internalType": "uint256",
							"name": "",
							"type": "uint256"
						}
					],
					"name": "tokenURLs",
					"outputs": [
						{
							"internalType": "string",
							"name": "",
							"type": "string"
						}
					],
					"stateMutability": "view",
					"type": "function"
				},
				{
					"inputs": [],
					"name": "totalSupply",
					"outputs": [
						{
							"internalType": "uint256",
							"name": "",
							"type": "uint256"
						}
					],
					"stateMutability": "view",
					"type": "function"
				},
				{
					"inputs": [],
					"name": "totalTokens",
					"outputs": [
						{
							"internalType": "uint256",
							"name": "",
							"type": "uint256"
						}
					],
					"stateMutability": "view",
					"type": "function"
				},
				{
					"inputs": [
						{
							"internalType": "address",
							"name": "to",
							"type": "address"
						},
						{
							"internalType": "uint256",
							"name": "amount",
							"type": "uint256"
						}
					],
					"name": "transfer",
					"outputs": [
						{
							"internalType": "bool",
							"name": "",
							"type": "bool"
						}
					],
					"stateMutability": "nonpayable",
					"type": "function"
				},
				{
					"inputs": [
						{
							"internalType": "address",
							"name": "from",
							"type": "address"
						},
						{
							"internalType": "address",
							"name": "to",
							"type": "address"
						},
						{
							"internalType": "uint256",
							"name": "amount",
							"type": "uint256"
						}
					],
					"name": "transferFrom",
					"outputs": [
						{
							"internalType": "bool",
							"name": "",
							"type": "bool"
						}
					],
					"stateMutability": "nonpayable",
					"type": "function"
				},
				{
					"inputs": [
						{
							"internalType": "address",
							"name": "recipient",
							"type": "address"
						},
						{
							"internalType": "uint256",
							"name": "amount",
							"type": "uint256"
						}
					],
					"name": "transferTokens",
					"outputs": [],
					"stateMutability": "nonpayable",
					"type": "function"
				}
			],
			"devdoc": {
				"events": {
					"Approval(address,address,uint256)": {
						"details": "Emitted when the allowance of a `spender` for an `owner` is set by a call to {approve}. `value` is the new allowance."
					},
					"Transfer(address,address,uint256)": {
						"details": "Emitted when `value` tokens are moved from one account (`from`) to another (`to`). Note that `value` may be zero."
					}
				},
				"kind": "dev",
				"methods": {
					"allowance(address,address)": {
						"details": "See {IERC20-allowance}."
					},
					"approve(address,uint256)": {
						"details": "See {IERC20-approve}. NOTE: If `amount` is the maximum `uint256`, the allowance is not updated on `transferFrom`. This is semantically equivalent to an infinite approval. Requirements: - `spender` cannot be the zero address."
					},
					"balanceOf(address)": {
						"details": "See {IERC20-balanceOf}."
					},
					"decimals()": {
						"details": "Returns the number of decimals used to get its user representation. For example, if `decimals` equals `2`, a balance of `505` tokens should be displayed to a user as `5.05` (`505 / 10 ** 2`). Tokens usually opt for a value of 18, imitating the relationship between Ether and Wei. This is the default value returned by this function, unless it's overridden. NOTE: This information is only used for _display_ purposes: it in no way affects any of the arithmetic of the contract, including {IERC20-balanceOf} and {IERC20-transfer}."
					},
					"decreaseAllowance(address,uint256)": {
						"details": "Atomically decreases the allowance granted to `spender` by the caller. This is an alternative to {approve} that can be used as a mitigation for problems described in {IERC20-approve}. Emits an {Approval} event indicating the updated allowance. Requirements: - `spender` cannot be the zero address. - `spender` must have allowance for the caller of at least `subtractedValue`."
					},
					"increaseAllowance(address,uint256)": {
						"details": "Atomically increases the allowance granted to `spender` by the caller. This is an alternative to {approve} that can be used as a mitigation for problems described in {IERC20-approve}. Emits an {Approval} event indicating the updated allowance. Requirements: - `spender` cannot be the zero address."
					},
					"name()": {
						"details": "Returns the name of the token."
					},
					"symbol()": {
						"details": "Returns the symbol of the token, usually a shorter version of the name."
					},
					"totalSupply()": {
						"details": "See {IERC20-totalSupply}."
					},
					"transfer(address,uint256)": {
						"details": "See {IERC20-transfer}. Requirements: - `to` cannot be the zero address. - the caller must have a balance of at least `amount`."
					},
					"transferFrom(address,address,uint256)": {
						"details": "See {IERC20-transferFrom}. Emits an {Approval} event indicating the updated allowance. This is not required by the EIP. See the note at the beginning of {ERC20}. NOTE: Does not update the allowance if the current allowance is the maximum `uint256`. Requirements: - `from` and `to` cannot be the zero address. - `from` must have a balance of at least `amount`. - the caller must have allowance for ``from``'s tokens of at least `amount`."
					}
				},
				"version": 1
			},
			"evm": {
				"assembly": "    /* \"MyToken.Sol\":158:4652  contract MyToken is ERC20 {... */\n  mstore(0x40, 0x80)\n    /* \"MyToken.Sol\":377:837  constructor() ERC20(\"My Token\", \"RiDT\") {... */\n  callvalue\n  dup1\n  iszero\n  tag_1\n  jumpi\n  0x00\n  dup1\n  revert\ntag_1:\n  pop\n    /* \"@openzeppelin/contracts/token/ERC20/ERC20.sol\":1980:2093  constructor(string memory name_, string memory symbol_) {... */\n  mload(0x40)\n  dup1\n  0x40\n  add\n  0x40\n  mstore\n  dup1\n  0x08\n  dup2\n  mstore\n  0x20\n  add\n  0x4d7920546f6b656e000000000000000000000000000000000000000000000000\n  dup2\n  mstore\n  pop\n  mload(0x40)\n  dup1\n  0x40\n  add\n  0x40\n  mstore\n  dup1\n  0x04\n  dup2\n  mstore\n  0x20\n  add\n  0x5269445400000000000000000000000000000000000000000000000000000000\n  dup2\n  mstore\n  pop\n    /* \"@openzeppelin/contracts/token/ERC20/ERC20.sol\":2054:2059  name_ */\n  dup2\n    /* \"@openzeppelin/contracts/token/ERC20/ERC20.sol\":2046:2051  _name */\n  0x03\n    /* \"@openzeppelin/contracts/token/ERC20/ERC20.sol\":2046:2059  _name = name_ */\n  swap1\n  dup2\n  tag_5\n  swap2\n  swap1\n  tag_6\n  jump\t// in\ntag_5:\n  pop\n    /* \"@openzeppelin/contracts/token/ERC20/ERC20.sol\":2079:2086  symbol_ */\n  dup1\n    /* \"@openzeppelin/contracts/token/ERC20/ERC20.sol\":2069:2076  _symbol */\n  0x04\n    /* \"@openzeppelin/contracts/token/ERC20/ERC20.sol\":2069:2086  _symbol = symbol_ */\n  swap1\n  dup2\n  tag_7\n  swap2\n  swap1\n  tag_6\n  jump\t// in\ntag_7:\n  pop\n    /* \"@openzeppelin/contracts/token/ERC20/ERC20.sol\":1980:2093  constructor(string memory name_, string memory symbol_) {... */\n  pop\n  pop\n    /* \"MyToken.Sol\":441:443  10 */\n  0x0a\n    /* \"MyToken.Sol\":427:438  totalTokens */\n  0x08\n    /* \"MyToken.Sol\":427:443  totalTokens = 10 */\n  dup2\n  swap1\n  sstore\n  pop\n    /* \"MyToken.Sol\":453:474  uint256 decimalFactor */\n  0x00\n    /* \"MyToken.Sol\":481:491  decimals() */\n  tag_9\n    /* \"MyToken.Sol\":481:489  decimals */\n  shl(0x20, tag_10)\n    /* \"MyToken.Sol\":481:491  decimals() */\n  0x20\n  shr\n  jump\t// in\ntag_9:\n    /* \"MyToken.Sol\":477:479  10 */\n  0x0a\n    /* \"MyToken.Sol\":477:491  10**decimals() */\n  tag_11\n  swap2\n  swap1\n  tag_12\n  jump\t// in\ntag_11:\n    /* \"MyToken.Sol\":453:491  uint256 decimalFactor = 10**decimals() */\n  swap1\n  pop\n    /* \"MyToken.Sol\":507:516  uint256 i */\n  0x00\n    /* \"MyToken.Sol\":519:520  1 */\n  0x01\n    /* \"MyToken.Sol\":507:520  uint256 i = 1 */\n  swap1\n  pop\n    /* \"MyToken.Sol\":502:831  for (uint256 i = 1; i <= totalTokens; i++) {... */\ntag_13:\n    /* \"MyToken.Sol\":527:538  totalTokens */\n  sload(0x08)\n    /* \"MyToken.Sol\":522:523  i */\n  dup2\n    /* \"MyToken.Sol\":522:538  i <= totalTokens */\n  gt\n    /* \"MyToken.Sol\":502:831  for (uint256 i = 1; i <= totalTokens; i++) {... */\n  tag_14\n  jumpi\n    /* \"MyToken.Sol\":559:584  string memory inscription */\n  0x00\n    /* \"MyToken.Sol\":587:609  getTokenInscription(i) */\n  tag_16\n    /* \"MyToken.Sol\":607:608  i */\n  dup3\n    /* \"MyToken.Sol\":587:606  getTokenInscription */\n  shl(0x20, tag_17)\n    /* \"MyToken.Sol\":587:609  getTokenInscription(i) */\n  0x20\n  shr\n  jump\t// in\ntag_16:\n    /* \"MyToken.Sol\":559:609  string memory inscription = getTokenInscription(i) */\n  swap1\n  pop\n    /* \"MyToken.Sol\":623:640  string memory url */\n  0x00\n    /* \"MyToken.Sol\":643:657  getTokenURL(i) */\n  tag_18\n    /* \"MyToken.Sol\":655:656  i */\n  dup4\n    /* \"MyToken.Sol\":643:654  getTokenURL */\n  shl(0x20, tag_19)\n    /* \"MyToken.Sol\":643:657  getTokenURL(i) */\n  0x20\n  shr\n  jump\t// in\ntag_18:\n    /* \"MyToken.Sol\":623:657  string memory url = getTokenURL(i) */\n  swap1\n  pop\n    /* \"MyToken.Sol\":694:705  inscription */\n  dup2\n    /* \"MyToken.Sol\":671:688  tokenInscriptions */\n  0x05\n    /* \"MyToken.Sol\":671:691  tokenInscriptions[i] */\n  0x00\n    /* \"MyToken.Sol\":689:690  i */\n  dup6\n    /* \"MyToken.Sol\":671:691  tokenInscriptions[i] */\n  dup2\n  mstore\n  0x20\n  add\n  swap1\n  dup2\n  mstore\n  0x20\n  add\n  0x00\n  keccak256\n    /* \"MyToken.Sol\":671:705  tokenInscriptions[i] = inscription */\n  swap1\n  dup2\n  tag_20\n  swap2\n  swap1\n  tag_6\n  jump\t// in\ntag_20:\n  pop\n    /* \"MyToken.Sol\":734:737  url */\n  dup1\n    /* \"MyToken.Sol\":719:728  tokenURLs */\n  0x06\n    /* \"MyToken.Sol\":719:731  tokenURLs[i] */\n  0x00\n    /* \"MyToken.Sol\":729:730  i */\n  dup6\n    /* \"MyToken.Sol\":719:731  tokenURLs[i] */\n  dup2\n  mstore\n  0x20\n  add\n  swap1\n  dup2\n  mstore\n  0x20\n  add\n  0x00\n  keccak256\n    /* \"MyToken.Sol\":719:737  tokenURLs[i] = url */\n  swap1\n  dup2\n  tag_21\n  swap2\n  swap1\n  tag_6\n  jump\t// in\ntag_21:\n  pop\n    /* \"MyToken.Sol\":751:783  _mint(msg.sender, decimalFactor) */\n  tag_22\n    /* \"MyToken.Sol\":757:767  msg.sender */\n  caller\n    /* \"MyToken.Sol\":769:782  decimalFactor */\n  dup6\n    /* \"MyToken.Sol\":751:756  _mint */\n  shl(0x20, tag_23)\n    /* \"MyToken.Sol\":751:783  _mint(msg.sender, decimalFactor) */\n  0x20\n  shr\n  jump\t// in\ntag_22:\n    /* \"MyToken.Sol\":545:831  {... */\n  pop\n  pop\n    /* \"MyToken.Sol\":540:543  i++ */\n  dup1\n  dup1\n  tag_24\n  swap1\n  tag_25\n  jump\t// in\ntag_24:\n  swap2\n  pop\n  pop\n    /* \"MyToken.Sol\":502:831  for (uint256 i = 1; i <= totalTokens; i++) {... */\n  jump(tag_13)\ntag_14:\n  pop\n    /* \"MyToken.Sol\":417:837  {... */\n  pop\n    /* \"MyToken.Sol\":158:4652  contract MyToken is ERC20 {... */\n  jump(tag_26)\n    /* \"@openzeppelin/contracts/token/ERC20/ERC20.sol\":3104:3195  function decimals() public view virtual override returns (uint8) {... */\ntag_10:\n    /* \"@openzeppelin/contracts/token/ERC20/ERC20.sol\":3162:3167  uint8 */\n  0x00\n    /* \"@openzeppelin/contracts/token/ERC20/ERC20.sol\":3186:3188  18 */\n  0x12\n    /* \"@openzeppelin/contracts/token/ERC20/ERC20.sol\":3179:3188  return 18 */\n  swap1\n  pop\n    /* \"@openzeppelin/contracts/token/ERC20/ERC20.sol\":3104:3195  function decimals() public view virtual override returns (uint8) {... */\n  swap1\n  jump\t// out\n    /* \"MyToken.Sol\":843:2316  function getTokenInscription(uint256 tokenId) internal pure returns (string memory) {... */\ntag_17:\n    /* \"MyToken.Sol\":912:925  string memory */\n  0x60\n    /* \"MyToken.Sol\":952:953  1 */\n  0x01\n    /* \"MyToken.Sol\":941:948  tokenId */\n  dup3\n    /* \"MyToken.Sol\":941:953  tokenId == 1 */\n  sub\n    /* \"MyToken.Sol\":937:2310  if (tokenId == 1) {... */\n  tag_29\n  jumpi\n    /* \"MyToken.Sol\":969:1053  return \"Token_1_RIDT_https://ai.catenacap.xyz/wp-content/uploads/inscription/1.avif\" */\n  mload(0x40)\n  dup1\n  0x80\n  add\n  0x40\n  mstore\n  dup1\n  0x4b\n  dup2\n  mstore\n  0x20\n  add\n  data_8781b65016e1783dd2017365f5a6db032a1fd66474714766b16f87af6ec87290\n  0x4b\n  swap2\n  codecopy\n  swap1\n  pop\n  jump(tag_28)\n    /* \"MyToken.Sol\":937:2310  if (tokenId == 1) {... */\ntag_29:\n    /* \"MyToken.Sol\":1085:1086  2 */\n  0x02\n    /* \"MyToken.Sol\":1074:1081  tokenId */\n  dup3\n    /* \"MyToken.Sol\":1074:1086  tokenId == 2 */\n  sub\n    /* \"MyToken.Sol\":1070:2310  if (tokenId == 2) {... */\n  tag_31\n  jumpi\n    /* \"MyToken.Sol\":1102:1186  return \"Token_2_RIDT_https://ai.catenacap.xyz/wp-content/uploads/inscription/2.avif\" */\n  mload(0x40)\n  dup1\n  0x80\n  add\n  0x40\n  mstore\n  dup1\n  0x4b\n  dup2\n  mstore\n  0x20\n  add\n  data_a0936a2c676b2a310427c5f08d450ac01e7a0773af974cf3fd2b1e7439adbcd8\n  0x4b\n  swap2\n  codecopy\n  swap1\n  pop\n  jump(tag_28)\n    /* \"MyToken.Sol\":1070:2310  if (tokenId == 2) {... */\ntag_31:\n    /* \"MyToken.Sol\":1218:1219  3 */\n  0x03\n    /* \"MyToken.Sol\":1207:1214  tokenId */\n  dup3\n    /* \"MyToken.Sol\":1207:1219  tokenId == 3 */\n  sub\n    /* \"MyToken.Sol\":1203:2310  if (tokenId == 3) {... */\n  tag_33\n  jumpi\n    /* \"MyToken.Sol\":1235:1319  return \"Token_3_RIDT_https://ai.catenacap.xyz/wp-content/uploads/inscription/3.avif\" */\n  mload(0x40)\n  dup1\n  0x80\n  add\n  0x40\n  mstore\n  dup1\n  0x4b\n  dup2\n  mstore\n  0x20\n  add\n  data_9470408ef12cd937a24e2c246d651ce2cdcabe8e5a0b6c24b14f199f39d5cdef\n  0x4b\n  swap2\n  codecopy\n  swap1\n  pop\n  jump(tag_28)\n    /* \"MyToken.Sol\":1203:2310  if (tokenId == 3) {... */\ntag_33:\n    /* \"MyToken.Sol\":1351:1352  4 */\n  0x04\n    /* \"MyToken.Sol\":1340:1347  tokenId */\n  dup3\n    /* \"MyToken.Sol\":1340:1352  tokenId == 4 */\n  sub\n    /* \"MyToken.Sol\":1336:2310  if (tokenId == 4) {... */\n  tag_35\n  jumpi\n    /* \"MyToken.Sol\":1368:1452  return \"Token_4_RIDT_https://ai.catenacap.xyz/wp-content/uploads/inscription/4.avif\" */\n  mload(0x40)\n  dup1\n  0x80\n  add\n  0x40\n  mstore\n  dup1\n  0x4b\n  dup2\n  mstore\n  0x20\n  add\n  data_fb2de1bd042ab8fe9b3070d5c29f7fe2ffcba590b8289728bc5657f45b25a3b4\n  0x4b\n  swap2\n  codecopy\n  swap1\n  pop\n  jump(tag_28)\n    /* \"MyToken.Sol\":1336:2310  if (tokenId == 4) {... */\ntag_35:\n    /* \"MyToken.Sol\":1484:1485  5 */\n  0x05\n    /* \"MyToken.Sol\":1473:1480  tokenId */\n  dup3\n    /* \"MyToken.Sol\":1473:1485  tokenId == 5 */\n  sub\n    /* \"MyToken.Sol\":1469:2310  if (tokenId == 5) {... */\n  tag_37\n  jumpi\n    /* \"MyToken.Sol\":1501:1585  return \"Token_5_RIDT_https://ai.catenacap.xyz/wp-content/uploads/inscription/5.avif\" */\n  mload(0x40)\n  dup1\n  0x80\n  add\n  0x40\n  mstore\n  dup1\n  0x4b\n  dup2\n  mstore\n  0x20\n  add\n  data_96831e173c406c6740249720937b71915e51b6deb788893b3ebdf39a951785cb\n  0x4b\n  swap2\n  codecopy\n  swap1\n  pop\n  jump(tag_28)\n    /* \"MyToken.Sol\":1469:2310  if (tokenId == 5) {... */\ntag_37:\n    /* \"MyToken.Sol\":1617:1618  6 */\n  0x06\n    /* \"MyToken.Sol\":1606:1613  tokenId */\n  dup3\n    /* \"MyToken.Sol\":1606:1618  tokenId == 6 */\n  sub\n    /* \"MyToken.Sol\":1602:2310  if (tokenId == 6) {... */\n  tag_39\n  jumpi\n    /* \"MyToken.Sol\":1634:1718  return \"Token_6_RIDT_https://ai.catenacap.xyz/wp-content/uploads/inscription/6.avif\" */\n  mload(0x40)\n  dup1\n  0x80\n  add\n  0x40\n  mstore\n  dup1\n  0x4b\n  dup2\n  mstore\n  0x20\n  add\n  data_3a92d77b1e0d677e4d45fcd1f84b95b566c71b874448ef2835e7d085c3031161\n  0x4b\n  swap2\n  codecopy\n  swap1\n  pop\n  jump(tag_28)\n    /* \"MyToken.Sol\":1602:2310  if (tokenId == 6) {... */\ntag_39:\n    /* \"MyToken.Sol\":1750:1751  7 */\n  0x07\n    /* \"MyToken.Sol\":1739:1746  tokenId */\n  dup3\n    /* \"MyToken.Sol\":1739:1751  tokenId == 7 */\n  sub\n    /* \"MyToken.Sol\":1735:2310  if (tokenId == 7) {... */\n  tag_41\n  jumpi\n    /* \"MyToken.Sol\":1767:1832  return \"Token_7_RIDT_https://www.youtube.com/watch?v=VhA1dZXeao0\" */\n  mload(0x40)\n  dup1\n  0x60\n  add\n  0x40\n  mstore\n  dup1\n  0x38\n  dup2\n  mstore\n  0x20\n  add\n  data_37b5b292b60bb71a1546c48161430adaa9c23ae7f9da8f511df59671f4650d5f\n  0x38\n  swap2\n  codecopy\n  swap1\n  pop\n  jump(tag_28)\n    /* \"MyToken.Sol\":1735:2310  if (tokenId == 7) {... */\ntag_41:\n    /* \"MyToken.Sol\":1864:1865  8 */\n  0x08\n    /* \"MyToken.Sol\":1853:1860  tokenId */\n  dup3\n    /* \"MyToken.Sol\":1853:1865  tokenId == 8 */\n  sub\n    /* \"MyToken.Sol\":1849:2310  if (tokenId == 8) {... */\n  tag_43\n  jumpi\n    /* \"MyToken.Sol\":1881:1962  return \"Token_8_RIDT_https://www.fca.org.uk/news/speeches/risks-token-regulation\" */\n  mload(0x40)\n  dup1\n  0x80\n  add\n  0x40\n  mstore\n  dup1\n  0x48\n  dup2\n  mstore\n  0x20\n  add\n  data_60788f81a30eaf0fa650eec77883c7d39f0b7c061c9075db901daa5b6d99e18d\n  0x48\n  swap2\n  codecopy\n  swap1\n  pop\n  jump(tag_28)\n    /* \"MyToken.Sol\":1849:2310  if (tokenId == 8) {... */\ntag_43:\n    /* \"MyToken.Sol\":1994:1995  9 */\n  0x09\n    /* \"MyToken.Sol\":1983:1990  tokenId */\n  dup3\n    /* \"MyToken.Sol\":1983:1995  tokenId == 9 */\n  sub\n    /* \"MyToken.Sol\":1979:2310  if (tokenId == 9) {... */\n  tag_45\n  jumpi\n    /* \"MyToken.Sol\":2011:2144  return \"Token_9_RIDT_https://www.thetimes.co.uk/article/chancellor-alistair-darling-on-brink-of-second-bailout-for-banks-n9l382mn62h\" */\n  mload(0x40)\n  dup1\n  0xa0\n  add\n  0x40\n  mstore\n  dup1\n  0x7c\n  dup2\n  mstore\n  0x20\n  add\n  data_ef7a015e9c85b17b0ba02fb3ed3e88da48487040ea1e9dd34283061cb375878f\n  0x7c\n  swap2\n  codecopy\n  swap1\n  pop\n  jump(tag_28)\n    /* \"MyToken.Sol\":1979:2310  if (tokenId == 9) {... */\ntag_45:\n    /* \"MyToken.Sol\":2176:2178  10 */\n  0x0a\n    /* \"MyToken.Sol\":2165:2172  tokenId */\n  dup3\n    /* \"MyToken.Sol\":2165:2178  tokenId == 10 */\n  sub\n    /* \"MyToken.Sol\":2161:2310  if (tokenId == 10) {... */\n  tag_47\n  jumpi\n    /* \"MyToken.Sol\":2194:2259  return \"Token_10_RIDT_https://www.youtube.com/shorts/IachOr82OqE\" */\n  mload(0x40)\n  dup1\n  0x60\n  add\n  0x40\n  mstore\n  dup1\n  0x38\n  dup2\n  mstore\n  0x20\n  add\n  data_fe7601398f7bc5da2becbd799eeffc4cd99181d7d37eb051a663a9a7b2f2d8d0\n  0x38\n  swap2\n  codecopy\n  swap1\n  pop\n  jump(tag_28)\n    /* \"MyToken.Sol\":2161:2310  if (tokenId == 10) {... */\ntag_47:\n    /* \"MyToken.Sol\":2290:2299  return \"\" */\n  mload(0x40)\n  dup1\n  0x20\n  add\n  0x40\n  mstore\n  dup1\n  0x00\n  dup2\n  mstore\n  pop\n  swap1\n  pop\n    /* \"MyToken.Sol\":843:2316  function getTokenInscription(uint256 tokenId) internal pure returns (string memory) {... */\ntag_28:\n  swap2\n  swap1\n  pop\n  jump\t// out\n    /* \"MyToken.Sol\":2322:3656  function getTokenURL(uint256 tokenId) internal pure returns (string memory) {... */\ntag_19:\n    /* \"MyToken.Sol\":2383:2396  string memory */\n  0x60\n    /* \"MyToken.Sol\":2423:2424  1 */\n  0x01\n    /* \"MyToken.Sol\":2412:2419  tokenId */\n  dup3\n    /* \"MyToken.Sol\":2412:2424  tokenId == 1 */\n  sub\n    /* \"MyToken.Sol\":2408:3650  if (tokenId == 1) {... */\n  tag_50\n  jumpi\n    /* \"MyToken.Sol\":2440:2511  return \"https://ai.catenacap.xyz/wp-content/uploads/inscription/1.avif\" */\n  mload(0x40)\n  dup1\n  0x60\n  add\n  0x40\n  mstore\n  dup1\n  0x3e\n  dup2\n  mstore\n  0x20\n  add\n  data_ba5296341937da56c64e4b120c75c508edf79a91325f24d0b19707658e3d5e86\n  0x3e\n  swap2\n  codecopy\n  swap1\n  pop\n  jump(tag_49)\n    /* \"MyToken.Sol\":2408:3650  if (tokenId == 1) {... */\ntag_50:\n    /* \"MyToken.Sol\":2543:2544  2 */\n  0x02\n    /* \"MyToken.Sol\":2532:2539  tokenId */\n  dup3\n    /* \"MyToken.Sol\":2532:2544  tokenId == 2 */\n  sub\n    /* \"MyToken.Sol\":2528:3650  if (tokenId == 2) {... */\n  tag_52\n  jumpi\n    /* \"MyToken.Sol\":2560:2631  return \"https://ai.catenacap.xyz/wp-content/uploads/inscription/2.avif\" */\n  mload(0x40)\n  dup1\n  0x60\n  add\n  0x40\n  mstore\n  dup1\n  0x3e\n  dup2\n  mstore\n  0x20\n  add\n  data_da47089add43f3547a63abba7b07239aededffca432e867a3dff163abf119985\n  0x3e\n  swap2\n  codecopy\n  swap1\n  pop\n  jump(tag_49)\n    /* \"MyToken.Sol\":2528:3650  if (tokenId == 2) {... */\ntag_52:\n    /* \"MyToken.Sol\":2663:2664  3 */\n  0x03\n    /* \"MyToken.Sol\":2652:2659  tokenId */\n  dup3\n    /* \"MyToken.Sol\":2652:2664  tokenId == 3 */\n  sub\n    /* \"MyToken.Sol\":2648:3650  if (tokenId == 3) {... */\n  tag_54\n  jumpi\n    /* \"MyToken.Sol\":2680:2751  return \"https://ai.catenacap.xyz/wp-content/uploads/inscription/3.avif\" */\n  mload(0x40)\n  dup1\n  0x60\n  add\n  0x40\n  mstore\n  dup1\n  0x3e\n  dup2\n  mstore\n  0x20\n  add\n  data_20458399f5177a6d8ff378bb997b35d9fdf302f8db42743ed1367cbc40b409cc\n  0x3e\n  swap2\n  codecopy\n  swap1\n  pop\n  jump(tag_49)\n    /* \"MyToken.Sol\":2648:3650  if (tokenId == 3) {... */\ntag_54:\n    /* \"MyToken.Sol\":2783:2784  4 */\n  0x04\n    /* \"MyToken.Sol\":2772:2779  tokenId */\n  dup3\n    /* \"MyToken.Sol\":2772:2784  tokenId == 4 */\n  sub\n    /* \"MyToken.Sol\":2768:3650  if (tokenId == 4) {... */\n  tag_56\n  jumpi\n    /* \"MyToken.Sol\":2800:2871  return \"https://ai.catenacap.xyz/wp-content/uploads/inscription/4.avif\" */\n  mload(0x40)\n  dup1\n  0x60\n  add\n  0x40\n  mstore\n  dup1\n  0x3e\n  dup2\n  mstore\n  0x20\n  add\n  data_9fcce11f21a8076679d9e2c7ae1f6eda2ade7acba810073eec1a065fb656afdf\n  0x3e\n  swap2\n  codecopy\n  swap1\n  pop\n  jump(tag_49)\n    /* \"MyToken.Sol\":2768:3650  if (tokenId == 4) {... */\ntag_56:\n    /* \"MyToken.Sol\":2903:2904  5 */\n  0x05\n    /* \"MyToken.Sol\":2892:2899  tokenId */\n  dup3\n    /* \"MyToken.Sol\":2892:2904  tokenId == 5 */\n  sub\n    /* \"MyToken.Sol\":2888:3650  if (tokenId == 5) {... */\n  tag_58\n  jumpi\n    /* \"MyToken.Sol\":2920:2991  return \"https://ai.catenacap.xyz/wp-content/uploads/inscription/5.avif\" */\n  mload(0x40)\n  dup1\n  0x60\n  add\n  0x40\n  mstore\n  dup1\n  0x3e\n  dup2\n  mstore\n  0x20\n  add\n  data_f8745e0a147d4e438c804a8b854fd828667b5dc826f2cdf359af4de9c9213247\n  0x3e\n  swap2\n  codecopy\n  swap1\n  pop\n  jump(tag_49)\n    /* \"MyToken.Sol\":2888:3650  if (tokenId == 5) {... */\ntag_58:\n    /* \"MyToken.Sol\":3023:3024  6 */\n  0x06\n    /* \"MyToken.Sol\":3012:3019  tokenId */\n  dup3\n    /* \"MyToken.Sol\":3012:3024  tokenId == 6 */\n  sub\n    /* \"MyToken.Sol\":3008:3650  if (tokenId == 6) {... */\n  tag_60\n  jumpi\n    /* \"MyToken.Sol\":3040:3111  return \"https://ai.catenacap.xyz/wp-content/uploads/inscription/6.avif\" */\n  mload(0x40)\n  dup1\n  0x60\n  add\n  0x40\n  mstore\n  dup1\n  0x3e\n  dup2\n  mstore\n  0x20\n  add\n  data_b7d76f2dfc823306e435867cca24710925c5780da6598238824d9a23d40bf1d6\n  0x3e\n  swap2\n  codecopy\n  swap1\n  pop\n  jump(tag_49)\n    /* \"MyToken.Sol\":3008:3650  if (tokenId == 6) {... */\ntag_60:\n    /* \"MyToken.Sol\":3143:3144  7 */\n  0x07\n    /* \"MyToken.Sol\":3132:3139  tokenId */\n  dup3\n    /* \"MyToken.Sol\":3132:3144  tokenId == 7 */\n  sub\n    /* \"MyToken.Sol\":3128:3650  if (tokenId == 7) {... */\n  tag_62\n  jumpi\n    /* \"MyToken.Sol\":3160:3212  return \"https://www.youtube.com/watch?v=VhA1dZXeao0\" */\n  mload(0x40)\n  dup1\n  0x60\n  add\n  0x40\n  mstore\n  dup1\n  0x2b\n  dup2\n  mstore\n  0x20\n  add\n  data_2de04cb3f44407c1ebe2cd3cc4013564588c6d04eeaad7bba820958f39407c47\n  0x2b\n  swap2\n  codecopy\n  swap1\n  pop\n  jump(tag_49)\n    /* \"MyToken.Sol\":3128:3650  if (tokenId == 7) {... */\ntag_62:\n    /* \"MyToken.Sol\":3244:3245  8 */\n  0x08\n    /* \"MyToken.Sol\":3233:3240  tokenId */\n  dup3\n    /* \"MyToken.Sol\":3233:3245  tokenId == 8 */\n  sub\n    /* \"MyToken.Sol\":3229:3650  if (tokenId == 8) {... */\n  tag_64\n  jumpi\n    /* \"MyToken.Sol\":3261:3329  return \"https://www.fca.org.uk/news/speeches/risks-token-regulation\" */\n  mload(0x40)\n  dup1\n  0x60\n  add\n  0x40\n  mstore\n  dup1\n  0x3b\n  dup2\n  mstore\n  0x20\n  add\n  data_81a04d2df88b3a8ef864163f351981629a9e0c43104002ef59ec344f9ff9e486\n  0x3b\n  swap2\n  codecopy\n  swap1\n  pop\n  jump(tag_49)\n    /* \"MyToken.Sol\":3229:3650  if (tokenId == 8) {... */\ntag_64:\n    /* \"MyToken.Sol\":3361:3362  9 */\n  0x09\n    /* \"MyToken.Sol\":3350:3357  tokenId */\n  dup3\n    /* \"MyToken.Sol\":3350:3362  tokenId == 9 */\n  sub\n    /* \"MyToken.Sol\":3346:3650  if (tokenId == 9) {... */\n  tag_66\n  jumpi\n    /* \"MyToken.Sol\":3378:3498  return \"https://www.thetimes.co.uk/article/chancellor-alistair-darling-on-brink-of-second-bailout-for-banks-n9l382mn62h\" */\n  mload(0x40)\n  dup1\n  0xa0\n  add\n  0x40\n  mstore\n  dup1\n  0x6f\n  dup2\n  mstore\n  0x20\n  add\n  data_009e6cc0b562864d3527a55b1f2c2c48c82926caaefc4a2dcccd9b0f56d0d679\n  0x6f\n  swap2\n  codecopy\n  swap1\n  pop\n  jump(tag_49)\n    /* \"MyToken.Sol\":3346:3650  if (tokenId == 9) {... */\ntag_66:\n    /* \"MyToken.Sol\":3530:3532  10 */\n  0x0a\n    /* \"MyToken.Sol\":3519:3526  tokenId */\n  dup3\n    /* \"MyToken.Sol\":3519:3532  tokenId == 10 */\n  sub\n    /* \"MyToken.Sol\":3515:3650  if (tokenId == 10) {... */\n  tag_68\n  jumpi\n    /* \"MyToken.Sol\":3548:3599  return \"https://www.youtube.com/shorts/IachOr82OqE\" */\n  mload(0x40)\n  dup1\n  0x60\n  add\n  0x40\n  mstore\n  dup1\n  0x2a\n  dup2\n  mstore\n  0x20\n  add\n  data_bb12861a05922f4fce8830870b2c07e781d6d679ada6a89a1a9af3ebd733eeef\n  0x2a\n  swap2\n  codecopy\n  swap1\n  pop\n  jump(tag_49)\n    /* \"MyToken.Sol\":3515:3650  if (tokenId == 10) {... */\ntag_68:\n    /* \"MyToken.Sol\":3630:3639  return \"\" */\n  mload(0x40)\n  dup1\n  0x20\n  add\n  0x40\n  mstore\n  dup1\n  0x00\n  dup2\n  mstore\n  pop\n  swap1\n  pop\n    /* \"MyToken.Sol\":2322:3656  function getTokenURL(uint256 tokenId) internal pure returns (string memory) {... */\ntag_49:\n  swap2\n  swap1\n  pop\n  jump\t// out\n    /* \"@openzeppelin/contracts/token/ERC20/ERC20.sol\":8520:9055  function _mint(address account, uint256 amount) internal virtual {... */\ntag_23:\n    /* \"@openzeppelin/contracts/token/ERC20/ERC20.sol\":8622:8623  0 */\n  0x00\n    /* \"@openzeppelin/contracts/token/ERC20/ERC20.sol\":8603:8624  account != address(0) */\n  0xffffffffffffffffffffffffffffffffffffffff\n  and\n    /* \"@openzeppelin/contracts/token/ERC20/ERC20.sol\":8603:8610  account */\n  dup3\n    /* \"@openzeppelin/contracts/token/ERC20/ERC20.sol\":8603:8624  account != address(0) */\n  0xffffffffffffffffffffffffffffffffffffffff\n  and\n  sub\n    /* \"@openzeppelin/contracts/token/ERC20/ERC20.sol\":8595:8660  require(account != address(0), \"ERC20: mint to the zero address\") */\n  tag_71\n  jumpi\n  mload(0x40)\n  0x08c379a000000000000000000000000000000000000000000000000000000000\n  dup2\n  mstore\n  0x04\n  add\n  tag_72\n  swap1\n  tag_73\n  jump\t// in\ntag_72:\n  mload(0x40)\n  dup1\n  swap2\n  sub\n  swap1\n  revert\ntag_71:\n    /* \"@openzeppelin/contracts/token/ERC20/ERC20.sol\":8671:8720  _beforeTokenTransfer(address(0), account, amount) */\n  tag_74\n    /* \"@openzeppelin/contracts/token/ERC20/ERC20.sol\":8700:8701  0 */\n  0x00\n    /* \"@openzeppelin/contracts/token/ERC20/ERC20.sol\":8704:8711  account */\n  dup4\n    /* \"@openzeppelin/contracts/token/ERC20/ERC20.sol\":8713:8719  amount */\n  dup4\n    /* \"@openzeppelin/contracts/token/ERC20/ERC20.sol\":8671:8691  _beforeTokenTransfer */\n  shl(0x20, tag_75)\n    /* \"@openzeppelin/contracts/token/ERC20/ERC20.sol\":8671:8720  _beforeTokenTransfer(address(0), account, amount) */\n  0x20\n  shr\n  jump\t// in\ntag_74:\n    /* \"@openzeppelin/contracts/token/ERC20/ERC20.sol\":8747:8753  amount */\n  dup1\n    /* \"@openzeppelin/contracts/token/ERC20/ERC20.sol\":8731:8743  _totalSupply */\n  0x02\n  0x00\n    /* \"@openzeppelin/contracts/token/ERC20/ERC20.sol\":8731:8753  _totalSupply += amount */\n  dup3\n  dup3\n  sload\n  tag_76\n  swap2\n  swap1\n  tag_77\n  jump\t// in\ntag_76:\n  swap3\n  pop\n  pop\n  dup2\n  swap1\n  sstore\n  pop\n    /* \"@openzeppelin/contracts/token/ERC20/ERC20.sol\":8921:8927  amount */\n  dup1\n    /* \"@openzeppelin/contracts/token/ERC20/ERC20.sol\":8899:8908  _balances */\n  0x00\n    /* \"@openzeppelin/contracts/token/ERC20/ERC20.sol\":8899:8917  _balances[account] */\n  dup1\n    /* \"@openzeppelin/contracts/token/ERC20/ERC20.sol\":8909:8916  account */\n  dup5\n    /* \"@openzeppelin/contracts/token/ERC20/ERC20.sol\":8899:8917  _balances[account] */\n  0xffffffffffffffffffffffffffffffffffffffff\n  and\n  0xffffffffffffffffffffffffffffffffffffffff\n  and\n  dup2\n  mstore\n  0x20\n  add\n  swap1\n  dup2\n  mstore\n  0x20\n  add\n  0x00\n  keccak256\n  0x00\n    /* \"@openzeppelin/contracts/token/ERC20/ERC20.sol\":8899:8927  _balances[account] += amount */\n  dup3\n  dup3\n  sload\n  add\n  swap3\n  pop\n  pop\n  dup2\n  swap1\n  sstore\n  pop\n    /* \"@openzeppelin/contracts/token/ERC20/ERC20.sol\":8973:8980  account */\n  dup2\n    /* \"@openzeppelin/contracts/token/ERC20/ERC20.sol\":8952:8989  Transfer(address(0), account, amount) */\n  0xffffffffffffffffffffffffffffffffffffffff\n  and\n    /* \"@openzeppelin/contracts/token/ERC20/ERC20.sol\":8969:8970  0 */\n  0x00\n    /* \"@openzeppelin/contracts/token/ERC20/ERC20.sol\":8952:8989  Transfer(address(0), account, amount) */\n  0xffffffffffffffffffffffffffffffffffffffff\n  and\n  0xddf252ad1be2c89b69c2b068fc378daa952ba7f163c4a11628f55a4df523b3ef\n    /* \"@openzeppelin/contracts/token/ERC20/ERC20.sol\":8982:8988  amount */\n  dup4\n    /* \"@openzeppelin/contracts/token/ERC20/ERC20.sol\":8952:8989  Transfer(address(0), account, amount) */\n  mload(0x40)\n  tag_78\n  swap2\n  swap1\n  tag_79\n  jump\t// in\ntag_78:\n  mload(0x40)\n  dup1\n  swap2\n  sub\n  swap1\n  log3\n    /* \"@openzeppelin/contracts/token/ERC20/ERC20.sol\":9000:9048  _afterTokenTransfer(address(0), account, amount) */\n  tag_80\n    /* \"@openzeppelin/contracts/token/ERC20/ERC20.sol\":9028:9029  0 */\n  0x00\n    /* \"@openzeppelin/contracts/token/ERC20/ERC20.sol\":9032:9039  account */\n  dup4\n    /* \"@openzeppelin/contracts/token/ERC20/ERC20.sol\":9041:9047  amount */\n  dup4\n    /* \"@openzeppelin/contracts/token/ERC20/ERC20.sol\":9000:9019  _afterTokenTransfer */\n  shl(0x20, tag_81)\n    /* \"@openzeppelin/contracts/token/ERC20/ERC20.sol\":9000:9048  _afterTokenTransfer(address(0), account, amount) */\n  0x20\n  shr\n  jump\t// in\ntag_80:\n    /* \"@openzeppelin/contracts/token/ERC20/ERC20.sol\":8520:9055  function _mint(address account, uint256 amount) internal virtual {... */\n  pop\n  pop\n  jump\t// out\n    /* \"@openzeppelin/contracts/token/ERC20/ERC20.sol\":12073:12164  function _beforeTokenTransfer(address from, address to, uint256 amount) internal virtual {} */\ntag_75:\n  pop\n  pop\n  pop\n  jump\t// out\n    /* \"@openzeppelin/contracts/token/ERC20/ERC20.sol\":12752:12842  function _afterTokenTransfer(address from, address to, uint256 amount) internal virtual {} */\ntag_81:\n  pop\n  pop\n  pop\n  jump\t// out\n    /* \"#utility.yul\":7:106   */\ntag_84:\n    /* \"#utility.yul\":59:65   */\n  0x00\n    /* \"#utility.yul\":93:98   */\n  dup2\n    /* \"#utility.yul\":87:99   */\n  mload\n    /* \"#utility.yul\":77:99   */\n  swap1\n  pop\n    /* \"#utility.yul\":7:106   */\n  swap2\n  swap1\n  pop\n  jump\t// out\n    /* \"#utility.yul\":112:292   */\ntag_85:\n    /* \"#utility.yul\":160:237   */\n  0x4e487b7100000000000000000000000000000000000000000000000000000000\n    /* \"#utility.yul\":157:158   */\n  0x00\n    /* \"#utility.yul\":150:238   */\n  mstore\n    /* \"#utility.yul\":257:261   */\n  0x41\n    /* \"#utility.yul\":254:255   */\n  0x04\n    /* \"#utility.yul\":247:262   */\n  mstore\n    /* \"#utility.yul\":281:285   */\n  0x24\n    /* \"#utility.yul\":278:279   */\n  0x00\n    /* \"#utility.yul\":271:286   */\n  revert\n    /* \"#utility.yul\":298:478   */\ntag_86:\n    /* \"#utility.yul\":346:423   */\n  0x4e487b7100000000000000000000000000000000000000000000000000000000\n    /* \"#utility.yul\":343:344   */\n  0x00\n    /* \"#utility.yul\":336:424   */\n  mstore\n    /* \"#utility.yul\":443:447   */\n  0x22\n    /* \"#utility.yul\":440:441   */\n  0x04\n    /* \"#utility.yul\":433:448   */\n  mstore\n    /* \"#utility.yul\":467:471   */\n  0x24\n    /* \"#utility.yul\":464:465   */\n  0x00\n    /* \"#utility.yul\":457:472   */\n  revert\n    /* \"#utility.yul\":484:804   */\ntag_87:\n    /* \"#utility.yul\":528:534   */\n  0x00\n    /* \"#utility.yul\":565:566   */\n  0x02\n    /* \"#utility.yul\":559:563   */\n  dup3\n    /* \"#utility.yul\":555:567   */\n  div\n    /* \"#utility.yul\":545:567   */\n  swap1\n  pop\n    /* \"#utility.yul\":612:613   */\n  0x01\n    /* \"#utility.yul\":606:610   */\n  dup3\n    /* \"#utility.yul\":602:614   */\n  and\n    /* \"#utility.yul\":633:651   */\n  dup1\n    /* \"#utility.yul\":623:704   */\n  tag_118\n  jumpi\n    /* \"#utility.yul\":689:693   */\n  0x7f\n    /* \"#utility.yul\":681:687   */\n  dup3\n    /* \"#utility.yul\":677:694   */\n  and\n    /* \"#utility.yul\":667:694   */\n  swap2\n  pop\n    /* \"#utility.yul\":623:704   */\ntag_118:\n    /* \"#utility.yul\":751:753   */\n  0x20\n    /* \"#utility.yul\":743:749   */\n  dup3\n    /* \"#utility.yul\":740:754   */\n  lt\n    /* \"#utility.yul\":720:738   */\n  dup2\n    /* \"#utility.yul\":717:755   */\n  sub\n    /* \"#utility.yul\":714:798   */\n  tag_119\n  jumpi\n    /* \"#utility.yul\":770:788   */\n  tag_120\n  tag_86\n  jump\t// in\ntag_120:\n    /* \"#utility.yul\":714:798   */\ntag_119:\n    /* \"#utility.yul\":535:804   */\n  pop\n    /* \"#utility.yul\":484:804   */\n  swap2\n  swap1\n  pop\n  jump\t// out\n    /* \"#utility.yul\":810:951   */\ntag_88:\n    /* \"#utility.yul\":859:863   */\n  0x00\n    /* \"#utility.yul\":882:885   */\n  dup2\n    /* \"#utility.yul\":874:885   */\n  swap1\n  pop\n    /* \"#utility.yul\":905:908   */\n  dup2\n    /* \"#utility.yul\":902:903   */\n  0x00\n    /* \"#utility.yul\":895:909   */\n  mstore\n    /* \"#utility.yul\":939:943   */\n  0x20\n    /* \"#utility.yul\":936:937   */\n  0x00\n    /* \"#utility.yul\":926:944   */\n  keccak256\n    /* \"#utility.yul\":918:944   */\n  swap1\n  pop\n    /* \"#utility.yul\":810:951   */\n  swap2\n  swap1\n  pop\n  jump\t// out\n    /* \"#utility.yul\":957:1050   */\ntag_89:\n    /* \"#utility.yul\":994:1000   */\n  0x00\n    /* \"#utility.yul\":1041:1043   */\n  0x20\n    /* \"#utility.yul\":1036:1038   */\n  0x1f\n    /* \"#utility.yul\":1029:1034   */\n  dup4\n    /* \"#utility.yul\":1025:1039   */\n  add\n    /* \"#utility.yul\":1021:1044   */\n  div\n    /* \"#utility.yul\":1011:1044   */\n  swap1\n  pop\n    /* \"#utility.yul\":957:1050   */\n  swap2\n  swap1\n  pop\n  jump\t// out\n    /* \"#utility.yul\":1056:1163   */\ntag_90:\n    /* \"#utility.yul\":1100:1108   */\n  0x00\n    /* \"#utility.yul\":1150:1155   */\n  dup3\n    /* \"#utility.yul\":1144:1148   */\n  dup3\n    /* \"#utility.yul\":1140:1156   */\n  shl\n    /* \"#utility.yul\":1119:1156   */\n  swap1\n  pop\n    /* \"#utility.yul\":1056:1163   */\n  swap3\n  swap2\n  pop\n  pop\n  jump\t// out\n    /* \"#utility.yul\":1169:1562   */\ntag_91:\n    /* \"#utility.yul\":1238:1244   */\n  0x00\n    /* \"#utility.yul\":1288:1289   */\n  0x08\n    /* \"#utility.yul\":1276:1286   */\n  dup4\n    /* \"#utility.yul\":1272:1290   */\n  mul\n    /* \"#utility.yul\":1311:1408   */\n  tag_125\n    /* \"#utility.yul\":1341:1407   */\n  0xffffffffffffffffffffffffffffffffffffffffffffffffffffffffffffffff\n    /* \"#utility.yul\":1330:1339   */\n  dup3\n    /* \"#utility.yul\":1311:1408   */\n  tag_90\n  jump\t// in\ntag_125:\n    /* \"#utility.yul\":1429:1468   */\n  tag_126\n    /* \"#utility.yul\":1459:1467   */\n  dup7\n    /* \"#utility.yul\":1448:1457   */\n  dup4\n    /* \"#utility.yul\":1429:1468   */\n  tag_90\n  jump\t// in\ntag_126:\n    /* \"#utility.yul\":1417:1468   */\n  swap6\n  pop\n    /* \"#utility.yul\":1501:1505   */\n  dup1\n    /* \"#utility.yul\":1497:1506   */\n  not\n    /* \"#utility.yul\":1490:1495   */\n  dup5\n    /* \"#utility.yul\":1486:1507   */\n  and\n    /* \"#utility.yul\":1477:1507   */\n  swap4\n  pop\n    /* \"#utility.yul\":1550:1554   */\n  dup1\n    /* \"#utility.yul\":1540:1548   */\n  dup7\n    /* \"#utility.yul\":1536:1555   */\n  and\n    /* \"#utility.yul\":1529:1534   */\n  dup5\n    /* \"#utility.yul\":1526:1556   */\n  or\n    /* \"#utility.yul\":1516:1556   */\n  swap3\n  pop\n    /* \"#utility.yul\":1245:1562   */\n  pop\n  pop\n    /* \"#utility.yul\":1169:1562   */\n  swap4\n  swap3\n  pop\n  pop\n  pop\n  jump\t// out\n    /* \"#utility.yul\":1568:1645   */\ntag_92:\n    /* \"#utility.yul\":1605:1612   */\n  0x00\n    /* \"#utility.yul\":1634:1639   */\n  dup2\n    /* \"#utility.yul\":1623:1639   */\n  swap1\n  pop\n    /* \"#utility.yul\":1568:1645   */\n  swap2\n  swap1\n  pop\n  jump\t// out\n    /* \"#utility.yul\":1651:1711   */\ntag_93:\n    /* \"#utility.yul\":1679:1682   */\n  0x00\n    /* \"#utility.yul\":1700:1705   */\n  dup2\n    /* \"#utility.yul\":1693:1705   */\n  swap1\n  pop\n    /* \"#utility.yul\":1651:1711   */\n  swap2\n  swap1\n  pop\n  jump\t// out\n    /* \"#utility.yul\":1717:1859   */\ntag_94:\n    /* \"#utility.yul\":1767:1776   */\n  0x00\n    /* \"#utility.yul\":1800:1853   */\n  tag_130\n    /* \"#utility.yul\":1818:1852   */\n  tag_131\n    /* \"#utility.yul\":1827:1851   */\n  tag_132\n    /* \"#utility.yul\":1845:1850   */\n  dup5\n    /* \"#utility.yul\":1827:1851   */\n  tag_92\n  jump\t// in\ntag_132:\n    /* \"#utility.yul\":1818:1852   */\n  tag_93\n  jump\t// in\ntag_131:\n    /* \"#utility.yul\":1800:1853   */\n  tag_92\n  jump\t// in\ntag_130:\n    /* \"#utility.yul\":1787:1853   */\n  swap1\n  pop\n    /* \"#utility.yul\":1717:1859   */\n  swap2\n  swap1\n  pop\n  jump\t// out\n    /* \"#utility.yul\":1865:1940   */\ntag_95:\n    /* \"#utility.yul\":1908:1911   */\n  0x00\n    /* \"#utility.yul\":1929:1934   */\n  dup2\n    /* \"#utility.yul\":1922:1934   */\n  swap1\n  pop\n    /* \"#utility.yul\":1865:1940   */\n  swap2\n  swap1\n  pop\n  jump\t// out\n    /* \"#utility.yul\":1946:2215   */\ntag_96:\n    /* \"#utility.yul\":2056:2095   */\n  tag_135\n    /* \"#utility.yul\":2087:2094   */\n  dup4\n    /* \"#utility.yul\":2056:2095   */\n  tag_94\n  jump\t// in\ntag_135:\n    /* \"#utility.yul\":2117:2208   */\n  tag_136\n    /* \"#utility.yul\":2166:2207   */\n  tag_137\n    /* \"#utility.yul\":2190:2206   */\n  dup3\n    /* \"#utility.yul\":2166:2207   */\n  tag_95\n  jump\t// in\ntag_137:\n    /* \"#utility.yul\":2158:2164   */\n  dup5\n    /* \"#utility.yul\":2151:2155   */\n  dup5\n    /* \"#utility.yul\":2145:2156   */\n  sload\n    /* \"#utility.yul\":2117:2208   */\n  tag_91\n  jump\t// in\ntag_136:\n    /* \"#utility.yul\":2111:2115   */\n  dup3\n    /* \"#utility.yul\":2104:2209   */\n  sstore\n    /* \"#utility.yul\":2022:2215   */\n  pop\n    /* \"#utility.yul\":1946:2215   */\n  pop\n  pop\n  pop\n  jump\t// out\n    /* \"#utility.yul\":2221:2294   */\ntag_97:\n    /* \"#utility.yul\":2266:2269   */\n  0x00\n    /* \"#utility.yul\":2221:2294   */\n  swap1\n  jump\t// out\n    /* \"#utility.yul\":2300:2489   */\ntag_98:\n    /* \"#utility.yul\":2377:2409   */\n  tag_140\n  tag_97\n  jump\t// in\ntag_140:\n    /* \"#utility.yul\":2418:2483   */\n  tag_141\n    /* \"#utility.yul\":2476:2482   */\n  dup2\n    /* \"#utility.yul\":2468:2474   */\n  dup5\n    /* \"#utility.yul\":2462:2466   */\n  dup5\n    /* \"#utility.yul\":2418:2483   */\n  tag_96\n  jump\t// in\ntag_141:\n    /* \"#utility.yul\":2353:2489   */\n  pop\n    /* \"#utility.yul\":2300:2489   */\n  pop\n  pop\n  jump\t// out\n    /* \"#utility.yul\":2495:2681   */\ntag_99:\n    /* \"#utility.yul\":2555:2675   */\ntag_143:\n    /* \"#utility.yul\":2572:2575   */\n  dup2\n    /* \"#utility.yul\":2565:2570   */\n  dup2\n    /* \"#utility.yul\":2562:2576   */\n  lt\n    /* \"#utility.yul\":2555:2675   */\n  iszero\n  tag_145\n  jumpi\n    /* \"#utility.yul\":2626:2665   */\n  tag_146\n    /* \"#utility.yul\":2663:2664   */\n  0x00\n    /* \"#utility.yul\":2656:2661   */\n  dup3\n    /* \"#utility.yul\":2626:2665   */\n  tag_98\n  jump\t// in\ntag_146:\n    /* \"#utility.yul\":2599:2600   */\n  0x01\n    /* \"#utility.yul\":2592:2597   */\n  dup2\n    /* \"#utility.yul\":2588:2601   */\n  add\n    /* \"#utility.yul\":2579:2601   */\n  swap1\n  pop\n    /* \"#utility.yul\":2555:2675   */\n  jump(tag_143)\ntag_145:\n    /* \"#utility.yul\":2495:2681   */\n  pop\n  pop\n  jump\t// out\n    /* \"#utility.yul\":2687:3230   */\ntag_100:\n    /* \"#utility.yul\":2788:2790   */\n  0x1f\n    /* \"#utility.yul\":2783:2786   */\n  dup3\n    /* \"#utility.yul\":2780:2791   */\n  gt\n    /* \"#utility.yul\":2777:3223   */\n  iszero\n  tag_148\n  jumpi\n    /* \"#utility.yul\":2822:2860   */\n  tag_149\n    /* \"#utility.yul\":2854:2859   */\n  dup2\n    /* \"#utility.yul\":2822:2860   */\n  tag_88\n  jump\t// in\ntag_149:\n    /* \"#utility.yul\":2906:2935   */\n  tag_150\n    /* \"#utility.yul\":2924:2934   */\n  dup5\n    /* \"#utility.yul\":2906:2935   */\n  tag_89\n  jump\t// in\ntag_150:\n    /* \"#utility.yul\":2896:2904   */\n  dup2\n    /* \"#utility.yul\":2892:2936   */\n  add\n    /* \"#utility.yul\":3089:3091   */\n  0x20\n    /* \"#utility.yul\":3077:3087   */\n  dup6\n    /* \"#utility.yul\":3074:3092   */\n  lt\n    /* \"#utility.yul\":3071:3120   */\n  iszero\n  tag_151\n  jumpi\n    /* \"#utility.yul\":3110:3118   */\n  dup2\n    /* \"#utility.yul\":3095:3118   */\n  swap1\n  pop\n    /* \"#utility.yul\":3071:3120   */\ntag_151:\n    /* \"#utility.yul\":3133:3213   */\n  tag_152\n    /* \"#utility.yul\":3189:3211   */\n  tag_153\n    /* \"#utility.yul\":3207:3210   */\n  dup6\n    /* \"#utility.yul\":3189:3211   */\n  tag_89\n  jump\t// in\ntag_153:\n    /* \"#utility.yul\":3179:3187   */\n  dup4\n    /* \"#utility.yul\":3175:3212   */\n  add\n    /* \"#utility.yul\":3162:3173   */\n  dup3\n    /* \"#utility.yul\":3133:3213   */\n  tag_99\n  jump\t// in\ntag_152:\n    /* \"#utility.yul\":2792:3223   */\n  pop\n  pop\n    /* \"#utility.yul\":2777:3223   */\ntag_148:\n    /* \"#utility.yul\":2687:3230   */\n  pop\n  pop\n  pop\n  jump\t// out\n    /* \"#utility.yul\":3236:3353   */\ntag_101:\n    /* \"#utility.yul\":3290:3298   */\n  0x00\n    /* \"#utility.yul\":3340:3345   */\n  dup3\n    /* \"#utility.yul\":3334:3338   */\n  dup3\n    /* \"#utility.yul\":3330:3346   */\n  shr\n    /* \"#utility.yul\":3309:3346   */\n  swap1\n  pop\n    /* \"#utility.yul\":3236:3353   */\n  swap3\n  swap2\n  pop\n  pop\n  jump\t// out\n    /* \"#utility.yul\":3359:3528   */\ntag_102:\n    /* \"#utility.yul\":3403:3409   */\n  0x00\n    /* \"#utility.yul\":3436:3487   */\n  tag_156\n    /* \"#utility.yul\":3484:3485   */\n  0x00\n    /* \"#utility.yul\":3480:3486   */\n  not\n    /* \"#utility.yul\":3472:3477   */\n  dup5\n    /* \"#utility.yul\":3469:3470   */\n  0x08\n    /* \"#utility.yul\":3465:3478   */\n  mul\n    /* \"#utility.yul\":3436:3487   */\n  tag_101\n  jump\t// in\ntag_156:\n    /* \"#utility.yul\":3432:3488   */\n  not\n    /* \"#utility.yul\":3517:3521   */\n  dup1\n    /* \"#utility.yul\":3511:3515   */\n  dup4\n    /* \"#utility.yul\":3507:3522   */\n  and\n    /* \"#utility.yul\":3497:3522   */\n  swap2\n  pop\n    /* \"#utility.yul\":3410:3528   */\n  pop\n    /* \"#utility.yul\":3359:3528   */\n  swap3\n  swap2\n  pop\n  pop\n  jump\t// out\n    /* \"#utility.yul\":3533:3828   */\ntag_103:\n    /* \"#utility.yul\":3609:3613   */\n  0x00\n    /* \"#utility.yul\":3755:3784   */\n  tag_158\n    /* \"#utility.yul\":3780:3783   */\n  dup4\n    /* \"#utility.yul\":3774:3778   */\n  dup4\n    /* \"#utility.yul\":3755:3784   */\n  tag_102\n  jump\t// in\ntag_158:\n    /* \"#utility.yul\":3747:3784   */\n  swap2\n  pop\n    /* \"#utility.yul\":3817:3820   */\n  dup3\n    /* \"#utility.yul\":3814:3815   */\n  0x02\n    /* \"#utility.yul\":3810:3821   */\n  mul\n    /* \"#utility.yul\":3804:3808   */\n  dup3\n    /* \"#utility.yul\":3801:3822   */\n  or\n    /* \"#utility.yul\":3793:3822   */\n  swap1\n  pop\n    /* \"#utility.yul\":3533:3828   */\n  swap3\n  swap2\n  pop\n  pop\n  jump\t// out\n    /* \"#utility.yul\":3833:5228   */\ntag_6:\n    /* \"#utility.yul\":3950:3987   */\n  tag_160\n    /* \"#utility.yul\":3983:3986   */\n  dup3\n    /* \"#utility.yul\":3950:3987   */\n  tag_84\n  jump\t// in\ntag_160:\n    /* \"#utility.yul\":4052:4070   */\n  0xffffffffffffffff\n    /* \"#utility.yul\":4044:4050   */\n  dup2\n    /* \"#utility.yul\":4041:4071   */\n  gt\n    /* \"#utility.yul\":4038:4094   */\n  iszero\n  tag_161\n  jumpi\n    /* \"#utility.yul\":4074:4092   */\n  tag_162\n  tag_85\n  jump\t// in\ntag_162:\n    /* \"#utility.yul\":4038:4094   */\ntag_161:\n    /* \"#utility.yul\":4118:4156   */\n  tag_163\n    /* \"#utility.yul\":4150:4154   */\n  dup3\n    /* \"#utility.yul\":4144:4155   */\n  sload\n    /* \"#utility.yul\":4118:4156   */\n  tag_87\n  jump\t// in\ntag_163:\n    /* \"#utility.yul\":4203:4270   */\n  tag_164\n    /* \"#utility.yul\":4263:4269   */\n  dup3\n    /* \"#utility.yul\":4255:4261   */\n  dup3\n    /* \"#utility.yul\":4249:4253   */\n  dup6\n    /* \"#utility.yul\":4203:4270   */\n  tag_100\n  jump\t// in\ntag_164:\n    /* \"#utility.yul\":4297:4298   */\n  0x00\n    /* \"#utility.yul\":4321:4325   */\n  0x20\n    /* \"#utility.yul\":4308:4325   */\n  swap1\n  pop\n    /* \"#utility.yul\":4353:4355   */\n  0x1f\n    /* \"#utility.yul\":4345:4351   */\n  dup4\n    /* \"#utility.yul\":4342:4356   */\n  gt\n    /* \"#utility.yul\":4370:4371   */\n  0x01\n    /* \"#utility.yul\":4365:4983   */\n  dup2\n  eq\n  tag_166\n  jumpi\n    /* \"#utility.yul\":5027:5028   */\n  0x00\n    /* \"#utility.yul\":5044:5050   */\n  dup5\n    /* \"#utility.yul\":5041:5118   */\n  iszero\n  tag_167\n  jumpi\n    /* \"#utility.yul\":5093:5102   */\n  dup3\n    /* \"#utility.yul\":5088:5091   */\n  dup8\n    /* \"#utility.yul\":5084:5103   */\n  add\n    /* \"#utility.yul\":5078:5104   */\n  mload\n    /* \"#utility.yul\":5069:5104   */\n  swap1\n  pop\n    /* \"#utility.yul\":5041:5118   */\ntag_167:\n    /* \"#utility.yul\":5144:5211   */\n  tag_168\n    /* \"#utility.yul\":5204:5210   */\n  dup6\n    /* \"#utility.yul\":5197:5202   */\n  dup3\n    /* \"#utility.yul\":5144:5211   */\n  tag_103\n  jump\t// in\ntag_168:\n    /* \"#utility.yul\":5138:5142   */\n  dup7\n    /* \"#utility.yul\":5131:5212   */\n  sstore\n    /* \"#utility.yul\":5000:5222   */\n  pop\n    /* \"#utility.yul\":4335:5222   */\n  jump(tag_165)\n    /* \"#utility.yul\":4365:4983   */\ntag_166:\n    /* \"#utility.yul\":4417:4421   */\n  0x1f\n    /* \"#utility.yul\":4413:4422   */\n  not\n    /* \"#utility.yul\":4405:4411   */\n  dup5\n    /* \"#utility.yul\":4401:4423   */\n  and\n    /* \"#utility.yul\":4451:4488   */\n  tag_169\n    /* \"#utility.yul\":4483:4487   */\n  dup7\n    /* \"#utility.yul\":4451:4488   */\n  tag_88\n  jump\t// in\ntag_169:\n    /* \"#utility.yul\":4510:4511   */\n  0x00\n    /* \"#utility.yul\":4524:4732   */\ntag_170:\n    /* \"#utility.yul\":4538:4545   */\n  dup3\n    /* \"#utility.yul\":4535:4536   */\n  dup2\n    /* \"#utility.yul\":4532:4546   */\n  lt\n    /* \"#utility.yul\":4524:4732   */\n  iszero\n  tag_172\n  jumpi\n    /* \"#utility.yul\":4617:4626   */\n  dup5\n    /* \"#utility.yul\":4612:4615   */\n  dup10\n    /* \"#utility.yul\":4608:4627   */\n  add\n    /* \"#utility.yul\":4602:4628   */\n  mload\n    /* \"#utility.yul\":4594:4600   */\n  dup3\n    /* \"#utility.yul\":4587:4629   */\n  sstore\n    /* \"#utility.yul\":4668:4669   */\n  0x01\n    /* \"#utility.yul\":4660:4666   */\n  dup3\n    /* \"#utility.yul\":4656:4670   */\n  add\n    /* \"#utility.yul\":4646:4670   */\n  swap2\n  pop\n    /* \"#utility.yul\":4715:4717   */\n  0x20\n    /* \"#utility.yul\":4704:4713   */\n  dup6\n    /* \"#utility.yul\":4700:4718   */\n  add\n    /* \"#utility.yul\":4687:4718   */\n  swap5\n  pop\n    /* \"#utility.yul\":4561:4565   */\n  0x20\n    /* \"#utility.yul\":4558:4559   */\n  dup2\n    /* \"#utility.yul\":4554:4566   */\n  add\n    /* \"#utility.yul\":4549:4566   */\n  swap1\n  pop\n    /* \"#utility.yul\":4524:4732   */\n  jump(tag_170)\ntag_172:\n    /* \"#utility.yul\":4760:4766   */\n  dup7\n    /* \"#utility.yul\":4751:4758   */\n  dup4\n    /* \"#utility.yul\":4748:4767   */\n  lt\n    /* \"#utility.yul\":4745:4924   */\n  iszero\n  tag_173\n  jumpi\n    /* \"#utility.yul\":4818:4827   */\n  dup5\n    /* \"#utility.yul\":4813:4816   */\n  dup10\n    /* \"#utility.yul\":4809:4828   */\n  add\n    /* \"#utility.yul\":4803:4829   */\n  mload\n    /* \"#utility.yul\":4861:4909   */\n  tag_174\n    /* \"#utility.yul\":4903:4907   */\n  0x1f\n    /* \"#utility.yul\":4895:4901   */\n  dup10\n    /* \"#utility.yul\":4891:4908   */\n  and\n    /* \"#utility.yul\":4880:4889   */\n  dup3\n    /* \"#utility.yul\":4861:4909   */\n  tag_102\n  jump\t// in\ntag_174:\n    /* \"#utility.yul\":4853:4859   */\n  dup4\n    /* \"#utility.yul\":4846:4910   */\n  sstore\n    /* \"#utility.yul\":4768:4924   */\n  pop\n    /* \"#utility.yul\":4745:4924   */\ntag_173:\n    /* \"#utility.yul\":4970:4971   */\n  0x01\n    /* \"#utility.yul\":4966:4967   */\n  0x02\n    /* \"#utility.yul\":4958:4964   */\n  dup9\n    /* \"#utility.yul\":4954:4968   */\n  mul\n    /* \"#utility.yul\":4950:4972   */\n  add\n    /* \"#utility.yul\":4944:4948   */\n  dup9\n    /* \"#utility.yul\":4937:4973   */\n  sstore\n    /* \"#utility.yul\":4372:4983   */\n  pop\n  pop\n  pop\n    /* \"#utility.yul\":4335:5222   */\ntag_165:\n  pop\n    /* \"#utility.yul\":3925:5228   */\n  pop\n  pop\n  pop\n    /* \"#utility.yul\":3833:5228   */\n  pop\n  pop\n  jump\t// out\n    /* \"#utility.yul\":5234:5414   */\ntag_104:\n    /* \"#utility.yul\":5282:5359   */\n  0x4e487b7100000000000000000000000000000000000000000000000000000000\n    /* \"#utility.yul\":5279:5280   */\n  0x00\n    /* \"#utility.yul\":5272:5360   */\n  mstore\n    /* \"#utility.yul\":5379:5383   */\n  0x11\n    /* \"#utility.yul\":5376:5377   */\n  0x04\n    /* \"#utility.yul\":5369:5384   */\n  mstore\n    /* \"#utility.yul\":5403:5407   */\n  0x24\n    /* \"#utility.yul\":5400:5401   */\n  0x00\n    /* \"#utility.yul\":5393:5408   */\n  revert\n    /* \"#utility.yul\":5420:5522   */\ntag_105:\n    /* \"#utility.yul\":5462:5470   */\n  0x00\n    /* \"#utility.yul\":5509:5514   */\n  dup2\n    /* \"#utility.yul\":5506:5507   */\n  0x01\n    /* \"#utility.yul\":5502:5515   */\n  shr\n    /* \"#utility.yul\":5481:5515   */\n  swap1\n  pop\n    /* \"#utility.yul\":5420:5522   */\n  swap2\n  swap1\n  pop\n  jump\t// out\n    /* \"#utility.yul\":5528:6376   */\ntag_106:\n    /* \"#utility.yul\":5589:5594   */\n  0x00\n    /* \"#utility.yul\":5596:5600   */\n  dup1\n    /* \"#utility.yul\":5620:5626   */\n  dup3\n    /* \"#utility.yul\":5611:5626   */\n  swap2\n  pop\n    /* \"#utility.yul\":5644:5649   */\n  dup4\n    /* \"#utility.yul\":5635:5649   */\n  swap1\n  pop\n    /* \"#utility.yul\":5658:6370   */\ntag_178:\n    /* \"#utility.yul\":5679:5680   */\n  0x01\n    /* \"#utility.yul\":5669:5677   */\n  dup6\n    /* \"#utility.yul\":5666:5681   */\n  gt\n    /* \"#utility.yul\":5658:6370   */\n  iszero\n  tag_180\n  jumpi\n    /* \"#utility.yul\":5774:5778   */\n  dup1\n    /* \"#utility.yul\":5769:5772   */\n  dup7\n    /* \"#utility.yul\":5765:5779   */\n  div\n    /* \"#utility.yul\":5759:5763   */\n  dup2\n    /* \"#utility.yul\":5756:5780   */\n  gt\n    /* \"#utility.yul\":5753:5803   */\n  iszero\n  tag_181\n  jumpi\n    /* \"#utility.yul\":5783:5801   */\n  tag_182\n  tag_104\n  jump\t// in\ntag_182:\n    /* \"#utility.yul\":5753:5803   */\ntag_181:\n    /* \"#utility.yul\":5833:5834   */\n  0x01\n    /* \"#utility.yul\":5823:5831   */\n  dup6\n    /* \"#utility.yul\":5819:5835   */\n  and\n    /* \"#utility.yul\":5816:6267   */\n  iszero\n  tag_183\n  jumpi\n    /* \"#utility.yul\":6248:6252   */\n  dup1\n    /* \"#utility.yul\":6241:6246   */\n  dup3\n    /* \"#utility.yul\":6237:6253   */\n  mul\n    /* \"#utility.yul\":6228:6253   */\n  swap2\n  pop\n    /* \"#utility.yul\":5816:6267   */\ntag_183:\n    /* \"#utility.yul\":6298:6302   */\n  dup1\n    /* \"#utility.yul\":6292:6296   */\n  dup2\n    /* \"#utility.yul\":6288:6303   */\n  mul\n    /* \"#utility.yul\":6280:6303   */\n  swap1\n  pop\n    /* \"#utility.yul\":6328:6360   */\n  tag_184\n    /* \"#utility.yul\":6351:6359   */\n  dup6\n    /* \"#utility.yul\":6328:6360   */\n  tag_105\n  jump\t// in\ntag_184:\n    /* \"#utility.yul\":6316:6360   */\n  swap5\n  pop\n    /* \"#utility.yul\":5658:6370   */\n  jump(tag_178)\ntag_180:\n    /* \"#utility.yul\":5528:6376   */\n  swap5\n  pop\n  swap5\n  swap3\n  pop\n  pop\n  pop\n  jump\t// out\n    /* \"#utility.yul\":6382:7455   */\ntag_107:\n    /* \"#utility.yul\":6436:6441   */\n  0x00\n    /* \"#utility.yul\":6627:6635   */\n  dup3\n    /* \"#utility.yul\":6617:6657   */\n  tag_186\n  jumpi\n    /* \"#utility.yul\":6648:6649   */\n  0x01\n    /* \"#utility.yul\":6639:6649   */\n  swap1\n  pop\n    /* \"#utility.yul\":6650:6655   */\n  jump(tag_185)\n    /* \"#utility.yul\":6617:6657   */\ntag_186:\n    /* \"#utility.yul\":6676:6680   */\n  dup2\n    /* \"#utility.yul\":6666:6702   */\n  tag_187\n  jumpi\n    /* \"#utility.yul\":6693:6694   */\n  0x00\n    /* \"#utility.yul\":6684:6694   */\n  swap1\n  pop\n    /* \"#utility.yul\":6695:6700   */\n  jump(tag_185)\n    /* \"#utility.yul\":6666:6702   */\ntag_187:\n    /* \"#utility.yul\":6762:6766   */\n  dup2\n    /* \"#utility.yul\":6810:6811   */\n  0x01\n    /* \"#utility.yul\":6805:6832   */\n  dup2\n  eq\n  tag_189\n  jumpi\n    /* \"#utility.yul\":6846:6847   */\n  0x02\n    /* \"#utility.yul\":6841:7032   */\n  dup2\n  eq\n  tag_190\n  jumpi\n    /* \"#utility.yul\":6755:7032   */\n  jump(tag_188)\n    /* \"#utility.yul\":6805:6832   */\ntag_189:\n    /* \"#utility.yul\":6823:6824   */\n  0x01\n    /* \"#utility.yul\":6814:6824   */\n  swap2\n  pop\n    /* \"#utility.yul\":6825:6830   */\n  pop\n  jump(tag_185)\n    /* \"#utility.yul\":6841:7032   */\ntag_190:\n    /* \"#utility.yul\":6886:6889   */\n  0xff\n    /* \"#utility.yul\":6876:6884   */\n  dup5\n    /* \"#utility.yul\":6873:6890   */\n  gt\n    /* \"#utility.yul\":6870:6913   */\n  iszero\n  tag_191\n  jumpi\n    /* \"#utility.yul\":6893:6911   */\n  tag_192\n  tag_104\n  jump\t// in\ntag_192:\n    /* \"#utility.yul\":6870:6913   */\ntag_191:\n    /* \"#utility.yul\":6942:6950   */\n  dup4\n    /* \"#utility.yul\":6939:6940   */\n  0x02\n    /* \"#utility.yul\":6935:6951   */\n  exp\n    /* \"#utility.yul\":6926:6951   */\n  swap2\n  pop\n    /* \"#utility.yul\":6977:6980   */\n  dup5\n    /* \"#utility.yul\":6970:6975   */\n  dup3\n    /* \"#utility.yul\":6967:6981   */\n  gt\n    /* \"#utility.yul\":6964:7004   */\n  iszero\n  tag_193\n  jumpi\n    /* \"#utility.yul\":6984:7002   */\n  tag_194\n  tag_104\n  jump\t// in\ntag_194:\n    /* \"#utility.yul\":6964:7004   */\ntag_193:\n    /* \"#utility.yul\":7017:7022   */\n  pop\n  jump(tag_185)\n    /* \"#utility.yul\":6755:7032   */\ntag_188:\n  pop\n    /* \"#utility.yul\":7141:7143   */\n  0x20\n    /* \"#utility.yul\":7131:7139   */\n  dup4\n    /* \"#utility.yul\":7128:7144   */\n  lt\n    /* \"#utility.yul\":7122:7125   */\n  0x0133\n    /* \"#utility.yul\":7116:7120   */\n  dup4\n    /* \"#utility.yul\":7113:7126   */\n  lt\n    /* \"#utility.yul\":7109:7145   */\n  and\n    /* \"#utility.yul\":7091:7093   */\n  0x4e\n    /* \"#utility.yul\":7081:7089   */\n  dup5\n    /* \"#utility.yul\":7078:7094   */\n  lt\n    /* \"#utility.yul\":7073:7075   */\n  0x0b\n    /* \"#utility.yul\":7067:7071   */\n  dup5\n    /* \"#utility.yul\":7064:7076   */\n  lt\n    /* \"#utility.yul\":7060:7095   */\n  and\n    /* \"#utility.yul\":7044:7155   */\n  or\n    /* \"#utility.yul\":7041:7287   */\n  iszero\n  tag_195\n  jumpi\n    /* \"#utility.yul\":7197:7205   */\n  dup3\n    /* \"#utility.yul\":7191:7195   */\n  dup3\n    /* \"#utility.yul\":7187:7206   */\n  exp\n    /* \"#utility.yul\":7178:7206   */\n  swap1\n  pop\n    /* \"#utility.yul\":7232:7235   */\n  dup4\n    /* \"#utility.yul\":7225:7230   */\n  dup2\n    /* \"#utility.yul\":7222:7236   */\n  gt\n    /* \"#utility.yul\":7219:7259   */\n  iszero\n  tag_196\n  jumpi\n    /* \"#utility.yul\":7239:7257   */\n  tag_197\n  tag_104\n  jump\t// in\ntag_197:\n    /* \"#utility.yul\":7219:7259   */\ntag_196:\n    /* \"#utility.yul\":7272:7277   */\n  jump(tag_185)\n    /* \"#utility.yul\":7041:7287   */\ntag_195:\n    /* \"#utility.yul\":7312:7354   */\n  tag_198\n    /* \"#utility.yul\":7350:7353   */\n  dup5\n    /* \"#utility.yul\":7340:7348   */\n  dup5\n    /* \"#utility.yul\":7334:7338   */\n  dup5\n    /* \"#utility.yul\":7331:7332   */\n  0x01\n    /* \"#utility.yul\":7312:7354   */\n  tag_106\n  jump\t// in\ntag_198:\n    /* \"#utility.yul\":7297:7354   */\n  swap3\n  pop\n  swap1\n  pop\n    /* \"#utility.yul\":7386:7390   */\n  dup2\n    /* \"#utility.yul\":7381:7384   */\n  dup5\n    /* \"#utility.yul\":7377:7391   */\n  div\n    /* \"#utility.yul\":7370:7375   */\n  dup2\n    /* \"#utility.yul\":7367:7392   */\n  gt\n    /* \"#utility.yul\":7364:7415   */\n  iszero\n  tag_199\n  jumpi\n    /* \"#utility.yul\":7395:7413   */\n  tag_200\n  tag_104\n  jump\t// in\ntag_200:\n    /* \"#utility.yul\":7364:7415   */\ntag_199:\n    /* \"#utility.yul\":7444:7448   */\n  dup2\n    /* \"#utility.yul\":7437:7442   */\n  dup2\n    /* \"#utility.yul\":7433:7449   */\n  mul\n    /* \"#utility.yul\":7424:7449   */\n  swap1\n  pop\n    /* \"#utility.yul\":6382:7455   */\ntag_185:\n  swap4\n  swap3\n  pop\n  pop\n  pop\n  jump\t// out\n    /* \"#utility.yul\":7461:7547   */\ntag_108:\n    /* \"#utility.yul\":7496:7503   */\n  0x00\n    /* \"#utility.yul\":7536:7540   */\n  0xff\n    /* \"#utility.yul\":7529:7534   */\n  dup3\n    /* \"#utility.yul\":7525:7541   */\n  and\n    /* \"#utility.yul\":7514:7541   */\n  swap1\n  pop\n    /* \"#utility.yul\":7461:7547   */\n  swap2\n  swap1\n  pop\n  jump\t// out\n    /* \"#utility.yul\":7553:7834   */\ntag_12:\n    /* \"#utility.yul\":7611:7616   */\n  0x00\n    /* \"#utility.yul\":7635:7658   */\n  tag_203\n    /* \"#utility.yul\":7653:7657   */\n  dup3\n    /* \"#utility.yul\":7635:7658   */\n  tag_92\n  jump\t// in\ntag_203:\n    /* \"#utility.yul\":7627:7658   */\n  swap2\n  pop\n    /* \"#utility.yul\":7679:7704   */\n  tag_204\n    /* \"#utility.yul\":7695:7703   */\n  dup4\n    /* \"#utility.yul\":7679:7704   */\n  tag_108\n  jump\t// in\ntag_204:\n    /* \"#utility.yul\":7667:7704   */\n  swap3\n  pop\n    /* \"#utility.yul\":7723:7827   */\n  tag_205\n    /* \"#utility.yul\":7760:7826   */\n  0xffffffffffffffffffffffffffffffffffffffffffffffffffffffffffffffff\n    /* \"#utility.yul\":7750:7758   */\n  dup5\n    /* \"#utility.yul\":7744:7748   */\n  dup5\n    /* \"#utility.yul\":7723:7827   */\n  tag_107\n  jump\t// in\ntag_205:\n    /* \"#utility.yul\":7714:7827   */\n  swap1\n  pop\n    /* \"#utility.yul\":7553:7834   */\n  swap3\n  swap2\n  pop\n  pop\n  jump\t// out\n    /* \"#utility.yul\":7840:8073   */\ntag_25:\n    /* \"#utility.yul\":7879:7882   */\n  0x00\n    /* \"#utility.yul\":7902:7926   */\n  tag_207\n    /* \"#utility.yul\":7920:7925   */\n  dup3\n    /* \"#utility.yul\":7902:7926   */\n  tag_92\n  jump\t// in\ntag_207:\n    /* \"#utility.yul\":7893:7926   */\n  swap2\n  pop\n    /* \"#utility.yul\":7948:8014   */\n  0xffffffffffffffffffffffffffffffffffffffffffffffffffffffffffffffff\n    /* \"#utility.yul\":7941:7946   */\n  dup3\n    /* \"#utility.yul\":7938:8015   */\n  sub\n    /* \"#utility.yul\":7935:8038   */\n  tag_208\n  jumpi\n    /* \"#utility.yul\":8018:8036   */\n  tag_209\n  tag_104\n  jump\t// in\ntag_209:\n    /* \"#utility.yul\":7935:8038   */\ntag_208:\n    /* \"#utility.yul\":8065:8066   */\n  0x01\n    /* \"#utility.yul\":8058:8063   */\n  dup3\n    /* \"#utility.yul\":8054:8067   */\n  add\n    /* \"#utility.yul\":8047:8067   */\n  swap1\n  pop\n    /* \"#utility.yul\":7840:8073   */\n  swap2\n  swap1\n  pop\n  jump\t// out\n    /* \"#utility.yul\":8079:8248   */\ntag_109:\n    /* \"#utility.yul\":8163:8174   */\n  0x00\n    /* \"#utility.yul\":8197:8203   */\n  dup3\n    /* \"#utility.yul\":8192:8195   */\n  dup3\n    /* \"#utility.yul\":8185:8204   */\n  mstore\n    /* \"#utility.yul\":8237:8241   */\n  0x20\n    /* \"#utility.yul\":8232:8235   */\n  dup3\n    /* \"#utility.yul\":8228:8242   */\n  add\n    /* \"#utility.yul\":8213:8242   */\n  swap1\n  pop\n    /* \"#utility.yul\":8079:8248   */\n  swap3\n  swap2\n  pop\n  pop\n  jump\t// out\n    /* \"#utility.yul\":8254:8435   */\ntag_110:\n    /* \"#utility.yul\":8394:8427   */\n  0x45524332303a206d696e7420746f20746865207a65726f206164647265737300\n    /* \"#utility.yul\":8390:8391   */\n  0x00\n    /* \"#utility.yul\":8382:8388   */\n  dup3\n    /* \"#utility.yul\":8378:8392   */\n  add\n    /* \"#utility.yul\":8371:8428   */\n  mstore\n    /* \"#utility.yul\":8254:8435   */\n  pop\n  jump\t// out\n    /* \"#utility.yul\":8441:8807   */\ntag_111:\n    /* \"#utility.yul\":8583:8586   */\n  0x00\n    /* \"#utility.yul\":8604:8671   */\n  tag_213\n    /* \"#utility.yul\":8668:8670   */\n  0x1f\n    /* \"#utility.yul\":8663:8666   */\n  dup4\n    /* \"#utility.yul\":8604:8671   */\n  tag_109\n  jump\t// in\ntag_213:\n    /* \"#utility.yul\":8597:8671   */\n  swap2\n  pop\n    /* \"#utility.yul\":8680:8773   */\n  tag_214\n    /* \"#utility.yul\":8769:8772   */\n  dup3\n    /* \"#utility.yul\":8680:8773   */\n  tag_110\n  jump\t// in\ntag_214:\n    /* \"#utility.yul\":8798:8800   */\n  0x20\n    /* \"#utility.yul\":8793:8796   */\n  dup3\n    /* \"#utility.yul\":8789:8801   */\n  add\n    /* \"#utility.yul\":8782:8801   */\n  swap1\n  pop\n    /* \"#utility.yul\":8441:8807   */\n  swap2\n  swap1\n  pop\n  jump\t// out\n    /* \"#utility.yul\":8813:9232   */\ntag_73:\n    /* \"#utility.yul\":8979:8983   */\n  0x00\n    /* \"#utility.yul\":9017:9019   */\n  0x20\n    /* \"#utility.yul\":9006:9015   */\n  dup3\n    /* \"#utility.yul\":9002:9020   */\n  add\n    /* \"#utility.yul\":8994:9020   */\n  swap1\n  pop\n    /* \"#utility.yul\":9066:9075   */\n  dup2\n    /* \"#utility.yul\":9060:9064   */\n  dup2\n    /* \"#utility.yul\":9056:9076   */\n  sub\n    /* \"#utility.yul\":9052:9053   */\n  0x00\n    /* \"#utility.yul\":9041:9050   */\n  dup4\n    /* \"#utility.yul\":9037:9054   */\n  add\n    /* \"#utility.yul\":9030:9077   */\n  mstore\n    /* \"#utility.yul\":9094:9225   */\n  tag_216\n    /* \"#utility.yul\":9220:9224   */\n  dup2\n    /* \"#utility.yul\":9094:9225   */\n  tag_111\n  jump\t// in\ntag_216:\n    /* \"#utility.yul\":9086:9225   */\n  swap1\n  pop\n    /* \"#utility.yul\":8813:9232   */\n  swap2\n  swap1\n  pop\n  jump\t// out\n    /* \"#utility.yul\":9238:9429   */\ntag_77:\n    /* \"#utility.yul\":9278:9281   */\n  0x00\n    /* \"#utility.yul\":9297:9317   */\n  tag_218\n    /* \"#utility.yul\":9315:9316   */\n  dup3\n    /* \"#utility.yul\":9297:9317   */\n  tag_92\n  jump\t// in\ntag_218:\n    /* \"#utility.yul\":9292:9317   */\n  swap2\n  pop\n    /* \"#utility.yul\":9331:9351   */\n  tag_219\n    /* \"#utility.yul\":9349:9350   */\n  dup4\n    /* \"#utility.yul\":9331:9351   */\n  tag_92\n  jump\t// in\ntag_219:\n    /* \"#utility.yul\":9326:9351   */\n  swap3\n  pop\n    /* \"#utility.yul\":9374:9375   */\n  dup3\n    /* \"#utility.yul\":9371:9372   */\n  dup3\n    /* \"#utility.yul\":9367:9376   */\n  add\n    /* \"#utility.yul\":9360:9376   */\n  swap1\n  pop\n    /* \"#utility.yul\":9395:9398   */\n  dup1\n    /* \"#utility.yul\":9392:9393   */\n  dup3\n    /* \"#utility.yul\":9389:9399   */\n  gt\n    /* \"#utility.yul\":9386:9422   */\n  iszero\n  tag_220\n  jumpi\n    /* \"#utility.yul\":9402:9420   */\n  tag_221\n  tag_104\n  jump\t// in\ntag_221:\n    /* \"#utility.yul\":9386:9422   */\ntag_220:\n    /* \"#utility.yul\":9238:9429   */\n  swap3\n  swap2\n  pop\n  pop\n  jump\t// out\n    /* \"#utility.yul\":9435:9553   */\ntag_112:\n    /* \"#utility.yul\":9522:9546   */\n  tag_223\n    /* \"#utility.yul\":9540:9545   */\n  dup2\n    /* \"#utility.yul\":9522:9546   */\n  tag_92\n  jump\t// in\ntag_223:\n    /* \"#utility.yul\":9517:9520   */\n  dup3\n    /* \"#utility.yul\":9510:9547   */\n  mstore\n    /* \"#utility.yul\":9435:9553   */\n  pop\n  pop\n  jump\t// out\n    /* \"#utility.yul\":9559:9781   */\ntag_79:\n    /* \"#utility.yul\":9652:9656   */\n  0x00\n    /* \"#utility.yul\":9690:9692   */\n  0x20\n    /* \"#utility.yul\":9679:9688   */\n  dup3\n    /* \"#utility.yul\":9675:9693   */\n  add\n    /* \"#utility.yul\":9667:9693   */\n  swap1\n  pop\n    /* \"#utility.yul\":9703:9774   */\n  tag_225\n    /* \"#utility.yul\":9771:9772   */\n  0x00\n    /* \"#utility.yul\":9760:9769   */\n  dup4\n    /* \"#utility.yul\":9756:9773   */\n  add\n    /* \"#utility.yul\":9747:9753   */\n  dup5\n    /* \"#utility.yul\":9703:9774   */\n  tag_112\n  jump\t// in\ntag_225:\n    /* \"#utility.yul\":9559:9781   */\n  swap3\n  swap2\n  pop\n  pop\n  jump\t// out\n    /* \"MyToken.Sol\":158:4652  contract MyToken is ERC20 {... */\ntag_26:\n  dataSize(sub_0)\n  dup1\n  dataOffset(sub_0)\n  0x00\n  codecopy\n  0x00\n  return\nstop\ndata_009e6cc0b562864d3527a55b1f2c2c48c82926caaefc4a2dcccd9b0f56d0d679 68747470733a2f2f7777772e74686574696d65732e636f2e756b2f61727469636c652f6368616e63656c6c6f722d616c6973746169722d6461726c696e672d6f6e2d6272696e6b2d6f662d7365636f6e642d6261696c6f75742d666f722d62616e6b732d6e396c3338326d6e363268\ndata_20458399f5177a6d8ff378bb997b35d9fdf302f8db42743ed1367cbc40b409cc 68747470733a2f2f61692e636174656e616361702e78797a2f77702d636f6e74656e742f75706c6f6164732f696e736372697074696f6e2f332e61766966\ndata_2de04cb3f44407c1ebe2cd3cc4013564588c6d04eeaad7bba820958f39407c47 68747470733a2f2f7777772e796f75747562652e636f6d2f77617463683f763d56684131645a5865616f30\ndata_37b5b292b60bb71a1546c48161430adaa9c23ae7f9da8f511df59671f4650d5f 546f6b656e5f375f524944545f68747470733a2f2f7777772e796f75747562652e636f6d2f77617463683f763d56684131645a5865616f30\ndata_3a92d77b1e0d677e4d45fcd1f84b95b566c71b874448ef2835e7d085c3031161 546f6b656e5f365f524944545f68747470733a2f2f61692e636174656e616361702e78797a2f77702d636f6e74656e742f75706c6f6164732f696e736372697074696f6e2f362e61766966\ndata_60788f81a30eaf0fa650eec77883c7d39f0b7c061c9075db901daa5b6d99e18d 546f6b656e5f385f524944545f68747470733a2f2f7777772e6663612e6f72672e756b2f6e6577732f73706565636865732f7269736b732d746f6b656e2d726567756c6174696f6e\ndata_81a04d2df88b3a8ef864163f351981629a9e0c43104002ef59ec344f9ff9e486 68747470733a2f2f7777772e6663612e6f72672e756b2f6e6577732f73706565636865732f7269736b732d746f6b656e2d726567756c6174696f6e\ndata_8781b65016e1783dd2017365f5a6db032a1fd66474714766b16f87af6ec87290 546f6b656e5f315f524944545f68747470733a2f2f61692e636174656e616361702e78797a2f77702d636f6e74656e742f75706c6f6164732f696e736372697074696f6e2f312e61766966\ndata_9470408ef12cd937a24e2c246d651ce2cdcabe8e5a0b6c24b14f199f39d5cdef 546f6b656e5f335f524944545f68747470733a2f2f61692e636174656e616361702e78797a2f77702d636f6e74656e742f75706c6f6164732f696e736372697074696f6e2f332e61766966\ndata_96831e173c406c6740249720937b71915e51b6deb788893b3ebdf39a951785cb 546f6b656e5f355f524944545f68747470733a2f2f61692e636174656e616361702e78797a2f77702d636f6e74656e742f75706c6f6164732f696e736372697074696f6e2f352e61766966\ndata_9fcce11f21a8076679d9e2c7ae1f6eda2ade7acba810073eec1a065fb656afdf 68747470733a2f2f61692e636174656e616361702e78797a2f77702d636f6e74656e742f75706c6f6164732f696e736372697074696f6e2f342e61766966\ndata_a0936a2c676b2a310427c5f08d450ac01e7a0773af974cf3fd2b1e7439adbcd8 546f6b656e5f325f524944545f68747470733a2f2f61692e636174656e616361702e78797a2f77702d636f6e74656e742f75706c6f6164732f696e736372697074696f6e2f322e61766966\ndata_b7d76f2dfc823306e435867cca24710925c5780da6598238824d9a23d40bf1d6 68747470733a2f2f61692e636174656e616361702e78797a2f77702d636f6e74656e742f75706c6f6164732f696e736372697074696f6e2f362e61766966\ndata_ba5296341937da56c64e4b120c75c508edf79a91325f24d0b19707658e3d5e86 68747470733a2f2f61692e636174656e616361702e78797a2f77702d636f6e74656e742f75706c6f6164732f696e736372697074696f6e2f312e61766966\ndata_bb12861a05922f4fce8830870b2c07e781d6d679ada6a89a1a9af3ebd733eeef 68747470733a2f2f7777772e796f75747562652e636f6d2f73686f7274732f496163684f7238324f7145\ndata_da47089add43f3547a63abba7b07239aededffca432e867a3dff163abf119985 68747470733a2f2f61692e636174656e616361702e78797a2f77702d636f6e74656e742f75706c6f6164732f696e736372697074696f6e2f322e61766966\ndata_ef7a015e9c85b17b0ba02fb3ed3e88da48487040ea1e9dd34283061cb375878f 546f6b656e5f395f524944545f68747470733a2f2f7777772e74686574696d65732e636f2e756b2f61727469636c652f6368616e63656c6c6f722d616c6973746169722d6461726c696e672d6f6e2d6272696e6b2d6f662d7365636f6e642d6261696c6f75742d666f722d62616e6b732d6e396c3338326d6e363268\ndata_f8745e0a147d4e438c804a8b854fd828667b5dc826f2cdf359af4de9c9213247 68747470733a2f2f61692e636174656e616361702e78797a2f77702d636f6e74656e742f75706c6f6164732f696e736372697074696f6e2f352e61766966\ndata_fb2de1bd042ab8fe9b3070d5c29f7fe2ffcba590b8289728bc5657f45b25a3b4 546f6b656e5f345f524944545f68747470733a2f2f61692e636174656e616361702e78797a2f77702d636f6e74656e742f75706c6f6164732f696e736372697074696f6e2f342e61766966\ndata_fe7601398f7bc5da2becbd799eeffc4cd99181d7d37eb051a663a9a7b2f2d8d0 546f6b656e5f31305f524944545f68747470733a2f2f7777772e796f75747562652e636f6d2f73686f7274732f496163684f7238324f7145\n\nsub_0: assembly {\n        /* \"MyToken.Sol\":158:4652  contract MyToken is ERC20 {... */\n      mstore(0x40, 0x80)\n      callvalue\n      dup1\n      iszero\n      tag_1\n      jumpi\n      0x00\n      dup1\n      revert\n    tag_1:\n      pop\n      jumpi(tag_2, lt(calldatasize, 0x04))\n      shr(0xe0, calldataload(0x00))\n      dup1\n      0x537df3b6\n      gt\n      tag_23\n      jumpi\n      dup1\n      0xa457c2d7\n      gt\n      tag_24\n      jumpi\n      dup1\n      0xa457c2d7\n      eq\n      tag_18\n      jumpi\n      dup1\n      0xa9059cbb\n      eq\n      tag_19\n      jumpi\n      dup1\n      0xbec3fa17\n      eq\n      tag_20\n      jumpi\n      dup1\n      0xc4f576c7\n      eq\n      tag_21\n      jumpi\n      dup1\n      0xdd62ed3e\n      eq\n      tag_22\n      jumpi\n      jump(tag_2)\n    tag_24:\n      dup1\n      0x537df3b6\n      eq\n      tag_13\n      jumpi\n      dup1\n      0x70a08231\n      eq\n      tag_14\n      jumpi\n      dup1\n      0x7e1c0c09\n      eq\n      tag_15\n      jumpi\n      dup1\n      0x85d4755b\n      eq\n      tag_16\n      jumpi\n      dup1\n      0x95d89b41\n      eq\n      tag_17\n      jumpi\n      jump(tag_2)\n    tag_23:\n      dup1\n      0x23b872dd\n      gt\n      tag_25\n      jumpi\n      dup1\n      0x23b872dd\n      eq\n      tag_8\n      jumpi\n      dup1\n      0x2431b6d5\n      eq\n      tag_9\n      jumpi\n      dup1\n      0x313ce567\n      eq\n      tag_10\n      jumpi\n      dup1\n      0x39509351\n      eq\n      tag_11\n      jumpi\n      dup1\n      0x44337ea1\n      eq\n      tag_12\n      jumpi\n      jump(tag_2)\n    tag_25:\n      dup1\n      0x047c0889\n      eq\n      tag_3\n      jumpi\n      dup1\n      0x06fdde03\n      eq\n      tag_4\n      jumpi\n      dup1\n      0x095ea7b3\n      eq\n      tag_5\n      jumpi\n      dup1\n      0x12065fe0\n      eq\n      tag_6\n      jumpi\n      dup1\n      0x18160ddd\n      eq\n      tag_7\n      jumpi\n    tag_2:\n      0x00\n      dup1\n      revert\n        /* \"MyToken.Sol\":247:290  mapping(uint256 => string) public tokenURLs */\n    tag_3:\n      tag_26\n      0x04\n      dup1\n      calldatasize\n      sub\n      dup2\n      add\n      swap1\n      tag_27\n      swap2\n      swap1\n      tag_28\n      jump\t// in\n    tag_27:\n      tag_29\n      jump\t// in\n    tag_26:\n      mload(0x40)\n      tag_30\n      swap2\n      swap1\n      tag_31\n      jump\t// in\n    tag_30:\n      mload(0x40)\n      dup1\n      swap2\n      sub\n      swap1\n      return\n        /* \"@openzeppelin/contracts/token/ERC20/ERC20.sol\":2158:2256  function name() public view virtual override returns (string memory) {... */\n    tag_4:\n      tag_32\n      tag_33\n      jump\t// in\n    tag_32:\n      mload(0x40)\n      tag_34\n      swap2\n      swap1\n      tag_31\n      jump\t// in\n    tag_34:\n      mload(0x40)\n      dup1\n      swap2\n      sub\n      swap1\n      return\n        /* \"@openzeppelin/contracts/token/ERC20/ERC20.sol\":4444:4641  function approve(address spender, uint256 amount) public virtual override returns (bool) {... */\n    tag_5:\n      tag_35\n      0x04\n      dup1\n      calldatasize\n      sub\n      dup2\n      add\n      swap1\n      tag_36\n      swap2\n      swap1\n      tag_37\n      jump\t// in\n    tag_36:\n      tag_38\n      jump\t// in\n    tag_35:\n      mload(0x40)\n      tag_39\n      swap2\n      swap1\n      tag_40\n      jump\t// in\n    tag_39:\n      mload(0x40)\n      dup1\n      swap2\n      sub\n      swap1\n      return\n        /* \"MyToken.Sol\":4032:4131  function getBalance() external view returns (uint256) {... */\n    tag_6:\n      tag_41\n      tag_42\n      jump\t// in\n    tag_41:\n      mload(0x40)\n      tag_43\n      swap2\n      swap1\n      tag_44\n      jump\t// in\n    tag_43:\n      mload(0x40)\n      dup1\n      swap2\n      sub\n      swap1\n      return\n        /* \"@openzeppelin/contracts/token/ERC20/ERC20.sol\":3255:3361  function totalSupply() public view virtual override returns (uint256) {... */\n    tag_7:\n      tag_45\n      tag_46\n      jump\t// in\n    tag_45:\n      mload(0x40)\n      tag_47\n      swap2\n      swap1\n      tag_44\n      jump\t// in\n    tag_47:\n      mload(0x40)\n      dup1\n      swap2\n      sub\n      swap1\n      return\n        /* \"@openzeppelin/contracts/token/ERC20/ERC20.sol\":5203:5459  function transferFrom(address from, address to, uint256 amount) public virtual override returns (bool) {... */\n    tag_8:\n      tag_48\n      0x04\n      dup1\n      calldatasize\n      sub\n      dup2\n      add\n      swap1\n      tag_49\n      swap2\n      swap1\n      tag_50\n      jump\t// in\n    tag_49:\n      tag_51\n      jump\t// in\n    tag_48:\n      mload(0x40)\n      tag_52\n      swap2\n      swap1\n      tag_40\n      jump\t// in\n    tag_52:\n      mload(0x40)\n      dup1\n      swap2\n      sub\n      swap1\n      return\n        /* \"MyToken.Sol\":190:241  mapping(uint256 => string) public tokenInscriptions */\n    tag_9:\n      tag_53\n      0x04\n      dup1\n      calldatasize\n      sub\n      dup2\n      add\n      swap1\n      tag_54\n      swap2\n      swap1\n      tag_28\n      jump\t// in\n    tag_54:\n      tag_55\n      jump\t// in\n    tag_53:\n      mload(0x40)\n      tag_56\n      swap2\n      swap1\n      tag_31\n      jump\t// in\n    tag_56:\n      mload(0x40)\n      dup1\n      swap2\n      sub\n      swap1\n      return\n        /* \"@openzeppelin/contracts/token/ERC20/ERC20.sol\":3104:3195  function decimals() public view virtual override returns (uint8) {... */\n    tag_10:\n      tag_57\n      tag_58\n      jump\t// in\n    tag_57:\n      mload(0x40)\n      tag_59\n      swap2\n      swap1\n      tag_60\n      jump\t// in\n    tag_59:\n      mload(0x40)\n      dup1\n      swap2\n      sub\n      swap1\n      return\n        /* \"@openzeppelin/contracts/token/ERC20/ERC20.sol\":5854:6088  function increaseAllowance(address spender, uint256 addedValue) public virtual returns (bool) {... */\n    tag_11:\n      tag_61\n      0x04\n      dup1\n      calldatasize\n      sub\n      dup2\n      add\n      swap1\n      tag_62\n      swap2\n      swap1\n      tag_37\n      jump\t// in\n    tag_62:\n      tag_63\n      jump\t// in\n    tag_61:\n      mload(0x40)\n      tag_64\n      swap2\n      swap1\n      tag_40\n      jump\t// in\n    tag_64:\n      mload(0x40)\n      dup1\n      swap2\n      sub\n      swap1\n      return\n        /* \"MyToken.Sol\":3662:3826  function addToBlacklist(address account) external {... */\n    tag_12:\n      tag_65\n      0x04\n      dup1\n      calldatasize\n      sub\n      dup2\n      add\n      swap1\n      tag_66\n      swap2\n      swap1\n      tag_67\n      jump\t// in\n    tag_66:\n      tag_68\n      jump\t// in\n    tag_65:\n      stop\n        /* \"MyToken.Sol\":3832:3997  function removeFromBlacklist(address account) external {... */\n    tag_13:\n      tag_69\n      0x04\n      dup1\n      calldatasize\n      sub\n      dup2\n      add\n      swap1\n      tag_70\n      swap2\n      swap1\n      tag_67\n      jump\t// in\n    tag_70:\n      tag_71\n      jump\t// in\n    tag_69:\n      stop\n        /* \"@openzeppelin/contracts/token/ERC20/ERC20.sol\":3419:3544  function balanceOf(address account) public view virtual override returns (uint256) {... */\n    tag_14:\n      tag_72\n      0x04\n      dup1\n      calldatasize\n      sub\n      dup2\n      add\n      swap1\n      tag_73\n      swap2\n      swap1\n      tag_67\n      jump\t// in\n    tag_73:\n      tag_74\n      jump\t// in\n    tag_72:\n      mload(0x40)\n      tag_75\n      swap2\n      swap1\n      tag_44\n      jump\t// in\n    tag_75:\n      mload(0x40)\n      dup1\n      swap2\n      sub\n      swap1\n      return\n        /* \"MyToken.Sol\":344:370  uint256 public totalTokens */\n    tag_15:\n      tag_76\n      tag_77\n      jump\t// in\n    tag_76:\n      mload(0x40)\n      tag_78\n      swap2\n      swap1\n      tag_44\n      jump\t// in\n    tag_78:\n      mload(0x40)\n      dup1\n      swap2\n      sub\n      swap1\n      return\n        /* \"MyToken.Sol\":4537:4650  function getURL(uint256 tokenId) external view returns (string memory) {... */\n    tag_16:\n      tag_79\n      0x04\n      dup1\n      calldatasize\n      sub\n      dup2\n      add\n      swap1\n      tag_80\n      swap2\n      swap1\n      tag_28\n      jump\t// in\n    tag_80:\n      tag_81\n      jump\t// in\n    tag_79:\n      mload(0x40)\n      tag_82\n      swap2\n      swap1\n      tag_31\n      jump\t// in\n    tag_82:\n      mload(0x40)\n      dup1\n      swap2\n      sub\n      swap1\n      return\n        /* \"@openzeppelin/contracts/token/ERC20/ERC20.sol\":2369:2471  function symbol() public view virtual override returns (string memory) {... */\n    tag_17:\n      tag_83\n      tag_84\n      jump\t// in\n    tag_83:\n      mload(0x40)\n      tag_85\n      swap2\n      swap1\n      tag_31\n      jump\t// in\n    tag_85:\n      mload(0x40)\n      dup1\n      swap2\n      sub\n      swap1\n      return\n        /* \"@openzeppelin/contracts/token/ERC20/ERC20.sol\":6575:7002  function decreaseAllowance(address spender, uint256 subtractedValue) public virtual returns (bool) {... */\n    tag_18:\n      tag_86\n      0x04\n      dup1\n      calldatasize\n      sub\n      dup2\n      add\n      swap1\n      tag_87\n      swap2\n      swap1\n      tag_37\n      jump\t// in\n    tag_87:\n      tag_88\n      jump\t// in\n    tag_86:\n      mload(0x40)\n      tag_89\n      swap2\n      swap1\n      tag_40\n      jump\t// in\n    tag_89:\n      mload(0x40)\n      dup1\n      swap2\n      sub\n      swap1\n      return\n        /* \"@openzeppelin/contracts/token/ERC20/ERC20.sol\":3740:3929  function transfer(address to, uint256 amount) public virtual override returns (bool) {... */\n    tag_19:\n      tag_90\n      0x04\n      dup1\n      calldatasize\n      sub\n      dup2\n      add\n      swap1\n      tag_91\n      swap2\n      swap1\n      tag_37\n      jump\t// in\n    tag_91:\n      tag_92\n      jump\t// in\n    tag_90:\n      mload(0x40)\n      tag_93\n      swap2\n      swap1\n      tag_40\n      jump\t// in\n    tag_93:\n      mload(0x40)\n      dup1\n      swap2\n      sub\n      swap1\n      return\n        /* \"MyToken.Sol\":4137:4396  function transferTokens(address recipient, uint256 amount) external {... */\n    tag_20:\n      tag_94\n      0x04\n      dup1\n      calldatasize\n      sub\n      dup2\n      add\n      swap1\n      tag_95\n      swap2\n      swap1\n      tag_37\n      jump\t// in\n    tag_95:\n      tag_96\n      jump\t// in\n    tag_94:\n      stop\n        /* \"MyToken.Sol\":4402:4531  function getInscription(uint256 tokenId) external view returns (string memory) {... */\n    tag_21:\n      tag_97\n      0x04\n      dup1\n      calldatasize\n      sub\n      dup2\n      add\n      swap1\n      tag_98\n      swap2\n      swap1\n      tag_28\n      jump\t// in\n    tag_98:\n      tag_99\n      jump\t// in\n    tag_97:\n      mload(0x40)\n      tag_100\n      swap2\n      swap1\n      tag_31\n      jump\t// in\n    tag_100:\n      mload(0x40)\n      dup1\n      swap2\n      sub\n      swap1\n      return\n        /* \"@openzeppelin/contracts/token/ERC20/ERC20.sol\":3987:4136  function allowance(address owner, address spender) public view virtual override returns (uint256) {... */\n    tag_22:\n      tag_101\n      0x04\n      dup1\n      calldatasize\n      sub\n      dup2\n      add\n      swap1\n      tag_102\n      swap2\n      swap1\n      tag_103\n      jump\t// in\n    tag_102:\n      tag_104\n      jump\t// in\n    tag_101:\n      mload(0x40)\n      tag_105\n      swap2\n      swap1\n      tag_44\n      jump\t// in\n    tag_105:\n      mload(0x40)\n      dup1\n      swap2\n      sub\n      swap1\n      return\n        /* \"MyToken.Sol\":247:290  mapping(uint256 => string) public tokenURLs */\n    tag_29:\n      mstore(0x20, 0x06)\n      dup1\n      0x00\n      mstore\n      keccak256(0x00, 0x40)\n      0x00\n      swap2\n      pop\n      swap1\n      pop\n      dup1\n      sload\n      tag_106\n      swap1\n      tag_107\n      jump\t// in\n    tag_106:\n      dup1\n      0x1f\n      add\n      0x20\n      dup1\n      swap2\n      div\n      mul\n      0x20\n      add\n      mload(0x40)\n      swap1\n      dup2\n      add\n      0x40\n      mstore\n      dup1\n      swap3\n      swap2\n      swap1\n      dup2\n      dup2\n      mstore\n      0x20\n      add\n      dup3\n      dup1\n      sload\n      tag_108\n      swap1\n      tag_107\n      jump\t// in\n    tag_108:\n      dup1\n      iszero\n      tag_109\n      jumpi\n      dup1\n      0x1f\n      lt\n      tag_110\n      jumpi\n      0x0100\n      dup1\n      dup4\n      sload\n      div\n      mul\n      dup4\n      mstore\n      swap2\n      0x20\n      add\n      swap2\n      jump(tag_109)\n    tag_110:\n      dup3\n      add\n      swap2\n      swap1\n      0x00\n      mstore\n      keccak256(0x00, 0x20)\n      swap1\n    tag_111:\n      dup2\n      sload\n      dup2\n      mstore\n      swap1\n      0x01\n      add\n      swap1\n      0x20\n      add\n      dup1\n      dup4\n      gt\n      tag_111\n      jumpi\n      dup3\n      swap1\n      sub\n      0x1f\n      and\n      dup3\n      add\n      swap2\n    tag_109:\n      pop\n      pop\n      pop\n      pop\n      pop\n      dup2\n      jump\t// out\n        /* \"@openzeppelin/contracts/token/ERC20/ERC20.sol\":2158:2256  function name() public view virtual override returns (string memory) {... */\n    tag_33:\n        /* \"@openzeppelin/contracts/token/ERC20/ERC20.sol\":2212:2225  string memory */\n      0x60\n        /* \"@openzeppelin/contracts/token/ERC20/ERC20.sol\":2244:2249  _name */\n      0x03\n        /* \"@openzeppelin/contracts/token/ERC20/ERC20.sol\":2237:2249  return _name */\n      dup1\n      sload\n      tag_113\n      swap1\n      tag_107\n      jump\t// in\n    tag_113:\n      dup1\n      0x1f\n      add\n      0x20\n      dup1\n      swap2\n      div\n      mul\n      0x20\n      add\n      mload(0x40)\n      swap1\n      dup2\n      add\n      0x40\n      mstore\n      dup1\n      swap3\n      swap2\n      swap1\n      dup2\n      dup2\n      mstore\n      0x20\n      add\n      dup3\n      dup1\n      sload\n      tag_114\n      swap1\n      tag_107\n      jump\t// in\n    tag_114:\n      dup1\n      iszero\n      tag_115\n      jumpi\n      dup1\n      0x1f\n      lt\n      tag_116\n      jumpi\n      0x0100\n      dup1\n      dup4\n      sload\n      div\n      mul\n      dup4\n      mstore\n      swap2\n      0x20\n      add\n      swap2\n      jump(tag_115)\n    tag_116:\n      dup3\n      add\n      swap2\n      swap1\n      0x00\n      mstore\n      keccak256(0x00, 0x20)\n      swap1\n    tag_117:\n      dup2\n      sload\n      dup2\n      mstore\n      swap1\n      0x01\n      add\n      swap1\n      0x20\n      add\n      dup1\n      dup4\n      gt\n      tag_117\n      jumpi\n      dup3\n      swap1\n      sub\n      0x1f\n      and\n      dup3\n      add\n      swap2\n    tag_115:\n      pop\n      pop\n      pop\n      pop\n      pop\n      swap1\n      pop\n        /* \"@openzeppelin/contracts/token/ERC20/ERC20.sol\":2158:2256  function name() public view virtual override returns (string memory) {... */\n      swap1\n      jump\t// out\n        /* \"@openzeppelin/contracts/token/ERC20/ERC20.sol\":4444:4641  function approve(address spender, uint256 amount) public virtual override returns (bool) {... */\n    tag_38:\n        /* \"@openzeppelin/contracts/token/ERC20/ERC20.sol\":4527:4531  bool */\n      0x00\n        /* \"@openzeppelin/contracts/token/ERC20/ERC20.sol\":4543:4556  address owner */\n      dup1\n        /* \"@openzeppelin/contracts/token/ERC20/ERC20.sol\":4559:4571  _msgSender() */\n      tag_119\n        /* \"@openzeppelin/contracts/token/ERC20/ERC20.sol\":4559:4569  _msgSender */\n      tag_120\n        /* \"@openzeppelin/contracts/token/ERC20/ERC20.sol\":4559:4571  _msgSender() */\n      jump\t// in\n    tag_119:\n        /* \"@openzeppelin/contracts/token/ERC20/ERC20.sol\":4543:4571  address owner = _msgSender() */\n      swap1\n      pop\n        /* \"@openzeppelin/contracts/token/ERC20/ERC20.sol\":4581:4613  _approve(owner, spender, amount) */\n      tag_121\n        /* \"@openzeppelin/contracts/token/ERC20/ERC20.sol\":4590:4595  owner */\n      dup2\n        /* \"@openzeppelin/contracts/token/ERC20/ERC20.sol\":4597:4604  spender */\n      dup6\n        /* \"@openzeppelin/contracts/token/ERC20/ERC20.sol\":4606:4612  amount */\n      dup6\n        /* \"@openzeppelin/contracts/token/ERC20/ERC20.sol\":4581:4589  _approve */\n      tag_122\n        /* \"@openzeppelin/contracts/token/ERC20/ERC20.sol\":4581:4613  _approve(owner, spender, amount) */\n      jump\t// in\n    tag_121:\n        /* \"@openzeppelin/contracts/token/ERC20/ERC20.sol\":4630:4634  true */\n      0x01\n        /* \"@openzeppelin/contracts/token/ERC20/ERC20.sol\":4623:4634  return true */\n      swap2\n      pop\n      pop\n        /* \"@openzeppelin/contracts/token/ERC20/ERC20.sol\":4444:4641  function approve(address spender, uint256 amount) public virtual override returns (bool) {... */\n      swap3\n      swap2\n      pop\n      pop\n      jump\t// out\n        /* \"MyToken.Sol\":4032:4131  function getBalance() external view returns (uint256) {... */\n    tag_42:\n        /* \"MyToken.Sol\":4077:4084  uint256 */\n      0x00\n        /* \"MyToken.Sol\":4103:4124  balanceOf(msg.sender) */\n      tag_124\n        /* \"MyToken.Sol\":4113:4123  msg.sender */\n      caller\n        /* \"MyToken.Sol\":4103:4112  balanceOf */\n      tag_74\n        /* \"MyToken.Sol\":4103:4124  balanceOf(msg.sender) */\n      jump\t// in\n    tag_124:\n        /* \"MyToken.Sol\":4096:4124  return balanceOf(msg.sender) */\n      swap1\n      pop\n        /* \"MyToken.Sol\":4032:4131  function getBalance() external view returns (uint256) {... */\n      swap1\n      jump\t// out\n        /* \"@openzeppelin/contracts/token/ERC20/ERC20.sol\":3255:3361  function totalSupply() public view virtual override returns (uint256) {... */\n    tag_46:\n        /* \"@openzeppelin/contracts/token/ERC20/ERC20.sol\":3316:3323  uint256 */\n      0x00\n        /* \"@openzeppelin/contracts/token/ERC20/ERC20.sol\":3342:3354  _totalSupply */\n      sload(0x02)\n        /* \"@openzeppelin/contracts/token/ERC20/ERC20.sol\":3335:3354  return _totalSupply */\n      swap1\n      pop\n        /* \"@openzeppelin/contracts/token/ERC20/ERC20.sol\":3255:3361  function totalSupply() public view virtual override returns (uint256) {... */\n      swap1\n      jump\t// out\n        /* \"@openzeppelin/contracts/token/ERC20/ERC20.sol\":5203:5459  function transferFrom(address from, address to, uint256 amount) public virtual override returns (bool) {... */\n    tag_51:\n        /* \"@openzeppelin/contracts/token/ERC20/ERC20.sol\":5300:5304  bool */\n      0x00\n        /* \"@openzeppelin/contracts/token/ERC20/ERC20.sol\":5316:5331  address spender */\n      dup1\n        /* \"@openzeppelin/contracts/token/ERC20/ERC20.sol\":5334:5346  _msgSender() */\n      tag_127\n        /* \"@openzeppelin/contracts/token/ERC20/ERC20.sol\":5334:5344  _msgSender */\n      tag_120\n        /* \"@openzeppelin/contracts/token/ERC20/ERC20.sol\":5334:5346  _msgSender() */\n      jump\t// in\n    tag_127:\n        /* \"@openzeppelin/contracts/token/ERC20/ERC20.sol\":5316:5346  address spender = _msgSender() */\n      swap1\n      pop\n        /* \"@openzeppelin/contracts/token/ERC20/ERC20.sol\":5356:5394  _spendAllowance(from, spender, amount) */\n      tag_128\n        /* \"@openzeppelin/contracts/token/ERC20/ERC20.sol\":5372:5376  from */\n      dup6\n        /* \"@openzeppelin/contracts/token/ERC20/ERC20.sol\":5378:5385  spender */\n      dup3\n        /* \"@openzeppelin/contracts/token/ERC20/ERC20.sol\":5387:5393  amount */\n      dup6\n        /* \"@openzeppelin/contracts/token/ERC20/ERC20.sol\":5356:5371  _spendAllowance */\n      tag_129\n        /* \"@openzeppelin/contracts/token/ERC20/ERC20.sol\":5356:5394  _spendAllowance(from, spender, amount) */\n      jump\t// in\n    tag_128:\n        /* \"@openzeppelin/contracts/token/ERC20/ERC20.sol\":5404:5431  _transfer(from, to, amount) */\n      tag_130\n        /* \"@openzeppelin/contracts/token/ERC20/ERC20.sol\":5414:5418  from */\n      dup6\n        /* \"@openzeppelin/contracts/token/ERC20/ERC20.sol\":5420:5422  to */\n      dup6\n        /* \"@openzeppelin/contracts/token/ERC20/ERC20.sol\":5424:5430  amount */\n      dup6\n        /* \"@openzeppelin/contracts/token/ERC20/ERC20.sol\":5404:5413  _transfer */\n      tag_131\n        /* \"@openzeppelin/contracts/token/ERC20/ERC20.sol\":5404:5431  _transfer(from, to, amount) */\n      jump\t// in\n    tag_130:\n        /* \"@openzeppelin/contracts/token/ERC20/ERC20.sol\":5448:5452  true */\n      0x01\n        /* \"@openzeppelin/contracts/token/ERC20/ERC20.sol\":5441:5452  return true */\n      swap2\n      pop\n      pop\n        /* \"@openzeppelin/contracts/token/ERC20/ERC20.sol\":5203:5459  function transferFrom(address from, address to, uint256 amount) public virtual override returns (bool) {... */\n      swap4\n      swap3\n      pop\n      pop\n      pop\n      jump\t// out\n        /* \"MyToken.Sol\":190:241  mapping(uint256 => string) public tokenInscriptions */\n    tag_55:\n      mstore(0x20, 0x05)\n      dup1\n      0x00\n      mstore\n      keccak256(0x00, 0x40)\n      0x00\n      swap2\n      pop\n      swap1\n      pop\n      dup1\n      sload\n      tag_132\n      swap1\n      tag_107\n      jump\t// in\n    tag_132:\n      dup1\n      0x1f\n      add\n      0x20\n      dup1\n      swap2\n      div\n      mul\n      0x20\n      add\n      mload(0x40)\n      swap1\n      dup2\n      add\n      0x40\n      mstore\n      dup1\n      swap3\n      swap2\n      swap1\n      dup2\n      dup2\n      mstore\n      0x20\n      add\n      dup3\n      dup1\n      sload\n      tag_133\n      swap1\n      tag_107\n      jump\t// in\n    tag_133:\n      dup1\n      iszero\n      tag_134\n      jumpi\n      dup1\n      0x1f\n      lt\n      tag_135\n      jumpi\n      0x0100\n      dup1\n      dup4\n      sload\n      div\n      mul\n      dup4\n      mstore\n      swap2\n      0x20\n      add\n      swap2\n      jump(tag_134)\n    tag_135:\n      dup3\n      add\n      swap2\n      swap1\n      0x00\n      mstore\n      keccak256(0x00, 0x20)\n      swap1\n    tag_136:\n      dup2\n      sload\n      dup2\n      mstore\n      swap1\n      0x01\n      add\n      swap1\n      0x20\n      add\n      dup1\n      dup4\n      gt\n      tag_136\n      jumpi\n      dup3\n      swap1\n      sub\n      0x1f\n      and\n      dup3\n      add\n      swap2\n    tag_134:\n      pop\n      pop\n      pop\n      pop\n      pop\n      dup2\n      jump\t// out\n        /* \"@openzeppelin/contracts/token/ERC20/ERC20.sol\":3104:3195  function decimals() public view virtual override returns (uint8) {... */\n    tag_58:\n        /* \"@openzeppelin/contracts/token/ERC20/ERC20.sol\":3162:3167  uint8 */\n      0x00\n        /* \"@openzeppelin/contracts/token/ERC20/ERC20.sol\":3186:3188  18 */\n      0x12\n        /* \"@openzeppelin/contracts/token/ERC20/ERC20.sol\":3179:3188  return 18 */\n      swap1\n      pop\n        /* \"@openzeppelin/contracts/token/ERC20/ERC20.sol\":3104:3195  function decimals() public view virtual override returns (uint8) {... */\n      swap1\n      jump\t// out\n        /* \"@openzeppelin/contracts/token/ERC20/ERC20.sol\":5854:6088  function increaseAllowance(address spender, uint256 addedValue) public virtual returns (bool) {... */\n    tag_63:\n        /* \"@openzeppelin/contracts/token/ERC20/ERC20.sol\":5942:5946  bool */\n      0x00\n        /* \"@openzeppelin/contracts/token/ERC20/ERC20.sol\":5958:5971  address owner */\n      dup1\n        /* \"@openzeppelin/contracts/token/ERC20/ERC20.sol\":5974:5986  _msgSender() */\n      tag_139\n        /* \"@openzeppelin/contracts/token/ERC20/ERC20.sol\":5974:5984  _msgSender */\n      tag_120\n        /* \"@openzeppelin/contracts/token/ERC20/ERC20.sol\":5974:5986  _msgSender() */\n      jump\t// in\n    tag_139:\n        /* \"@openzeppelin/contracts/token/ERC20/ERC20.sol\":5958:5986  address owner = _msgSender() */\n      swap1\n      pop\n        /* \"@openzeppelin/contracts/token/ERC20/ERC20.sol\":5996:6060  _approve(owner, spender, allowance(owner, spender) + addedValue) */\n      tag_140\n        /* \"@openzeppelin/contracts/token/ERC20/ERC20.sol\":6005:6010  owner */\n      dup2\n        /* \"@openzeppelin/contracts/token/ERC20/ERC20.sol\":6012:6019  spender */\n      dup6\n        /* \"@openzeppelin/contracts/token/ERC20/ERC20.sol\":6049:6059  addedValue */\n      dup6\n        /* \"@openzeppelin/contracts/token/ERC20/ERC20.sol\":6021:6046  allowance(owner, spender) */\n      tag_141\n        /* \"@openzeppelin/contracts/token/ERC20/ERC20.sol\":6031:6036  owner */\n      dup6\n        /* \"@openzeppelin/contracts/token/ERC20/ERC20.sol\":6038:6045  spender */\n      dup10\n        /* \"@openzeppelin/contracts/token/ERC20/ERC20.sol\":6021:6030  allowance */\n      tag_104\n        /* \"@openzeppelin/contracts/token/ERC20/ERC20.sol\":6021:6046  allowance(owner, spender) */\n      jump\t// in\n    tag_141:\n        /* \"@openzeppelin/contracts/token/ERC20/ERC20.sol\":6021:6059  allowance(owner, spender) + addedValue */\n      tag_142\n      swap2\n      swap1\n      tag_143\n      jump\t// in\n    tag_142:\n        /* \"@openzeppelin/contracts/token/ERC20/ERC20.sol\":5996:6004  _approve */\n      tag_122\n        /* \"@openzeppelin/contracts/token/ERC20/ERC20.sol\":5996:6060  _approve(owner, spender, allowance(owner, spender) + addedValue) */\n      jump\t// in\n    tag_140:\n        /* \"@openzeppelin/contracts/token/ERC20/ERC20.sol\":6077:6081  true */\n      0x01\n        /* \"@openzeppelin/contracts/token/ERC20/ERC20.sol\":6070:6081  return true */\n      swap2\n      pop\n      pop\n        /* \"@openzeppelin/contracts/token/ERC20/ERC20.sol\":5854:6088  function increaseAllowance(address spender, uint256 addedValue) public virtual returns (bool) {... */\n      swap3\n      swap2\n      pop\n      pop\n      jump\t// out\n        /* \"MyToken.Sol\":3662:3826  function addToBlacklist(address account) external {... */\n    tag_68:\n        /* \"MyToken.Sol\":3731:3740  blacklist */\n      0x07\n        /* \"MyToken.Sol\":3731:3749  blacklist[account] */\n      0x00\n        /* \"MyToken.Sol\":3741:3748  account */\n      dup3\n        /* \"MyToken.Sol\":3731:3749  blacklist[account] */\n      0xffffffffffffffffffffffffffffffffffffffff\n      and\n      0xffffffffffffffffffffffffffffffffffffffff\n      and\n      dup2\n      mstore\n      0x20\n      add\n      swap1\n      dup2\n      mstore\n      0x20\n      add\n      0x00\n      keccak256\n      0x00\n      swap1\n      sload\n      swap1\n      0x0100\n      exp\n      swap1\n      div\n      0xff\n      and\n        /* \"MyToken.Sol\":3730:3749  !blacklist[account] */\n      iszero\n        /* \"MyToken.Sol\":3722:3784  require(!blacklist[account], \"Account is already blacklisted\") */\n      tag_145\n      jumpi\n      mload(0x40)\n      0x08c379a000000000000000000000000000000000000000000000000000000000\n      dup2\n      mstore\n      0x04\n      add\n      tag_146\n      swap1\n      tag_147\n      jump\t// in\n    tag_146:\n      mload(0x40)\n      dup1\n      swap2\n      sub\n      swap1\n      revert\n    tag_145:\n        /* \"MyToken.Sol\":3815:3819  true */\n      0x01\n        /* \"MyToken.Sol\":3794:3803  blacklist */\n      0x07\n        /* \"MyToken.Sol\":3794:3812  blacklist[account] */\n      0x00\n        /* \"MyToken.Sol\":3804:3811  account */\n      dup4\n        /* \"MyToken.Sol\":3794:3812  blacklist[account] */\n      0xffffffffffffffffffffffffffffffffffffffff\n      and\n      0xffffffffffffffffffffffffffffffffffffffff\n      and\n      dup2\n      mstore\n      0x20\n      add\n      swap1\n      dup2\n      mstore\n      0x20\n      add\n      0x00\n      keccak256\n      0x00\n        /* \"MyToken.Sol\":3794:3819  blacklist[account] = true */\n      0x0100\n      exp\n      dup2\n      sload\n      dup2\n      0xff\n      mul\n      not\n      and\n      swap1\n      dup4\n      iszero\n      iszero\n      mul\n      or\n      swap1\n      sstore\n      pop\n        /* \"MyToken.Sol\":3662:3826  function addToBlacklist(address account) external {... */\n      pop\n      jump\t// out\n        /* \"MyToken.Sol\":3832:3997  function removeFromBlacklist(address account) external {... */\n    tag_71:\n        /* \"MyToken.Sol\":3905:3914  blacklist */\n      0x07\n        /* \"MyToken.Sol\":3905:3923  blacklist[account] */\n      0x00\n        /* \"MyToken.Sol\":3915:3922  account */\n      dup3\n        /* \"MyToken.Sol\":3905:3923  blacklist[account] */\n      0xffffffffffffffffffffffffffffffffffffffff\n      and\n      0xffffffffffffffffffffffffffffffffffffffff\n      and\n      dup2\n      mstore\n      0x20\n      add\n      swap1\n      dup2\n      mstore\n      0x20\n      add\n      0x00\n      keccak256\n      0x00\n      swap1\n      sload\n      swap1\n      0x0100\n      exp\n      swap1\n      div\n      0xff\n      and\n        /* \"MyToken.Sol\":3897:3954  require(blacklist[account], \"Account is not blacklisted\") */\n      tag_149\n      jumpi\n      mload(0x40)\n      0x08c379a000000000000000000000000000000000000000000000000000000000\n      dup2\n      mstore\n      0x04\n      add\n      tag_150\n      swap1\n      tag_151\n      jump\t// in\n    tag_150:\n      mload(0x40)\n      dup1\n      swap2\n      sub\n      swap1\n      revert\n    tag_149:\n        /* \"MyToken.Sol\":3985:3990  false */\n      0x00\n        /* \"MyToken.Sol\":3964:3973  blacklist */\n      0x07\n        /* \"MyToken.Sol\":3964:3982  blacklist[account] */\n      0x00\n        /* \"MyToken.Sol\":3974:3981  account */\n      dup4\n        /* \"MyToken.Sol\":3964:3982  blacklist[account] */\n      0xffffffffffffffffffffffffffffffffffffffff\n      and\n      0xffffffffffffffffffffffffffffffffffffffff\n      and\n      dup2\n      mstore\n      0x20\n      add\n      swap1\n      dup2\n      mstore\n      0x20\n      add\n      0x00\n      keccak256\n      0x00\n        /* \"MyToken.Sol\":3964:3990  blacklist[account] = false */\n      0x0100\n      exp\n      dup2\n      sload\n      dup2\n      0xff\n      mul\n      not\n      and\n      swap1\n      dup4\n      iszero\n      iszero\n      mul\n      or\n      swap1\n      sstore\n      pop\n        /* \"MyToken.Sol\":3832:3997  function removeFromBlacklist(address account) external {... */\n      pop\n      jump\t// out\n        /* \"@openzeppelin/contracts/token/ERC20/ERC20.sol\":3419:3544  function balanceOf(address account) public view virtual override returns (uint256) {... */\n    tag_74:\n        /* \"@openzeppelin/contracts/token/ERC20/ERC20.sol\":3493:3500  uint256 */\n      0x00\n        /* \"@openzeppelin/contracts/token/ERC20/ERC20.sol\":3519:3528  _balances */\n      dup1\n        /* \"@openzeppelin/contracts/token/ERC20/ERC20.sol\":3519:3537  _balances[account] */\n      0x00\n        /* \"@openzeppelin/contracts/token/ERC20/ERC20.sol\":3529:3536  account */\n      dup4\n        /* \"@openzeppelin/contracts/token/ERC20/ERC20.sol\":3519:3537  _balances[account] */\n      0xffffffffffffffffffffffffffffffffffffffff\n      and\n      0xffffffffffffffffffffffffffffffffffffffff\n      and\n      dup2\n      mstore\n      0x20\n      add\n      swap1\n      dup2\n      mstore\n      0x20\n      add\n      0x00\n      keccak256\n      sload\n        /* \"@openzeppelin/contracts/token/ERC20/ERC20.sol\":3512:3537  return _balances[account] */\n      swap1\n      pop\n        /* \"@openzeppelin/contracts/token/ERC20/ERC20.sol\":3419:3544  function balanceOf(address account) public view virtual override returns (uint256) {... */\n      swap2\n      swap1\n      pop\n      jump\t// out\n        /* \"MyToken.Sol\":344:370  uint256 public totalTokens */\n    tag_77:\n      sload(0x08)\n      dup2\n      jump\t// out\n        /* \"MyToken.Sol\":4537:4650  function getURL(uint256 tokenId) external view returns (string memory) {... */\n    tag_81:\n        /* \"MyToken.Sol\":4593:4606  string memory */\n      0x60\n        /* \"MyToken.Sol\":4625:4634  tokenURLs */\n      0x06\n        /* \"MyToken.Sol\":4625:4643  tokenURLs[tokenId] */\n      0x00\n        /* \"MyToken.Sol\":4635:4642  tokenId */\n      dup4\n        /* \"MyToken.Sol\":4625:4643  tokenURLs[tokenId] */\n      dup2\n      mstore\n      0x20\n      add\n      swap1\n      dup2\n      mstore\n      0x20\n      add\n      0x00\n      keccak256\n        /* \"MyToken.Sol\":4618:4643  return tokenURLs[tokenId] */\n      dup1\n      sload\n      tag_154\n      swap1\n      tag_107\n      jump\t// in\n    tag_154:\n      dup1\n      0x1f\n      add\n      0x20\n      dup1\n      swap2\n      div\n      mul\n      0x20\n      add\n      mload(0x40)\n      swap1\n      dup2\n      add\n      0x40\n      mstore\n      dup1\n      swap3\n      swap2\n      swap1\n      dup2\n      dup2\n      mstore\n      0x20\n      add\n      dup3\n      dup1\n      sload\n      tag_155\n      swap1\n      tag_107\n      jump\t// in\n    tag_155:\n      dup1\n      iszero\n      tag_156\n      jumpi\n      dup1\n      0x1f\n      lt\n      tag_157\n      jumpi\n      0x0100\n      dup1\n      dup4\n      sload\n      div\n      mul\n      dup4\n      mstore\n      swap2\n      0x20\n      add\n      swap2\n      jump(tag_156)\n    tag_157:\n      dup3\n      add\n      swap2\n      swap1\n      0x00\n      mstore\n      keccak256(0x00, 0x20)\n      swap1\n    tag_158:\n      dup2\n      sload\n      dup2\n      mstore\n      swap1\n      0x01\n      add\n      swap1\n      0x20\n      add\n      dup1\n      dup4\n      gt\n      tag_158\n      jumpi\n      dup3\n      swap1\n      sub\n      0x1f\n      and\n      dup3\n      add\n      swap2\n    tag_156:\n      pop\n      pop\n      pop\n      pop\n      pop\n      swap1\n      pop\n        /* \"MyToken.Sol\":4537:4650  function getURL(uint256 tokenId) external view returns (string memory) {... */\n      swap2\n      swap1\n      pop\n      jump\t// out\n        /* \"@openzeppelin/contracts/token/ERC20/ERC20.sol\":2369:2471  function symbol() public view virtual override returns (string memory) {... */\n    tag_84:\n        /* \"@openzeppelin/contracts/token/ERC20/ERC20.sol\":2425:2438  string memory */\n      0x60\n        /* \"@openzeppelin/contracts/token/ERC20/ERC20.sol\":2457:2464  _symbol */\n      0x04\n        /* \"@openzeppelin/contracts/token/ERC20/ERC20.sol\":2450:2464  return _symbol */\n      dup1\n      sload\n      tag_160\n      swap1\n      tag_107\n      jump\t// in\n    tag_160:\n      dup1\n      0x1f\n      add\n      0x20\n      dup1\n      swap2\n      div\n      mul\n      0x20\n      add\n      mload(0x40)\n      swap1\n      dup2\n      add\n      0x40\n      mstore\n      dup1\n      swap3\n      swap2\n      swap1\n      dup2\n      dup2\n      mstore\n      0x20\n      add\n      dup3\n      dup1\n      sload\n      tag_161\n      swap1\n      tag_107\n      jump\t// in\n    tag_161:\n      dup1\n      iszero\n      tag_162\n      jumpi\n      dup1\n      0x1f\n      lt\n      tag_163\n      jumpi\n      0x0100\n      dup1\n      dup4\n      sload\n      div\n      mul\n      dup4\n      mstore\n      swap2\n      0x20\n      add\n      swap2\n      jump(tag_162)\n    tag_163:\n      dup3\n      add\n      swap2\n      swap1\n      0x00\n      mstore\n      keccak256(0x00, 0x20)\n      swap1\n    tag_164:\n      dup2\n      sload\n      dup2\n      mstore\n      swap1\n      0x01\n      add\n      swap1\n      0x20\n      add\n      dup1\n      dup4\n      gt\n      tag_164\n      jumpi\n      dup3\n      swap1\n      sub\n      0x1f\n      and\n      dup3\n      add\n      swap2\n    tag_162:\n      pop\n      pop\n      pop\n      pop\n      pop\n      swap1\n      pop\n        /* \"@openzeppelin/contracts/token/ERC20/ERC20.sol\":2369:2471  function symbol() public view virtual override returns (string memory) {... */\n      swap1\n      jump\t// out\n        /* \"@openzeppelin/contracts/token/ERC20/ERC20.sol\":6575:7002  function decreaseAllowance(address spender, uint256 subtractedValue) public virtual returns (bool) {... */\n    tag_88:\n        /* \"@openzeppelin/contracts/token/ERC20/ERC20.sol\":6668:6672  bool */\n      0x00\n        /* \"@openzeppelin/contracts/token/ERC20/ERC20.sol\":6684:6697  address owner */\n      dup1\n        /* \"@openzeppelin/contracts/token/ERC20/ERC20.sol\":6700:6712  _msgSender() */\n      tag_166\n        /* \"@openzeppelin/contracts/token/ERC20/ERC20.sol\":6700:6710  _msgSender */\n      tag_120\n        /* \"@openzeppelin/contracts/token/ERC20/ERC20.sol\":6700:6712  _msgSender() */\n      jump\t// in\n    tag_166:\n        /* \"@openzeppelin/contracts/token/ERC20/ERC20.sol\":6684:6712  address owner = _msgSender() */\n      swap1\n      pop\n        /* \"@openzeppelin/contracts/token/ERC20/ERC20.sol\":6722:6746  uint256 currentAllowance */\n      0x00\n        /* \"@openzeppelin/contracts/token/ERC20/ERC20.sol\":6749:6774  allowance(owner, spender) */\n      tag_167\n        /* \"@openzeppelin/contracts/token/ERC20/ERC20.sol\":6759:6764  owner */\n      dup3\n        /* \"@openzeppelin/contracts/token/ERC20/ERC20.sol\":6766:6773  spender */\n      dup7\n        /* \"@openzeppelin/contracts/token/ERC20/ERC20.sol\":6749:6758  allowance */\n      tag_104\n        /* \"@openzeppelin/contracts/token/ERC20/ERC20.sol\":6749:6774  allowance(owner, spender) */\n      jump\t// in\n    tag_167:\n        /* \"@openzeppelin/contracts/token/ERC20/ERC20.sol\":6722:6774  uint256 currentAllowance = allowance(owner, spender) */\n      swap1\n      pop\n        /* \"@openzeppelin/contracts/token/ERC20/ERC20.sol\":6812:6827  subtractedValue */\n      dup4\n        /* \"@openzeppelin/contracts/token/ERC20/ERC20.sol\":6792:6808  currentAllowance */\n      dup2\n        /* \"@openzeppelin/contracts/token/ERC20/ERC20.sol\":6792:6827  currentAllowance >= subtractedValue */\n      lt\n      iszero\n        /* \"@openzeppelin/contracts/token/ERC20/ERC20.sol\":6784:6869  require(currentAllowance >= subtractedValue, \"ERC20: decreased allowance below zero\") */\n      tag_168\n      jumpi\n      mload(0x40)\n      0x08c379a000000000000000000000000000000000000000000000000000000000\n      dup2\n      mstore\n      0x04\n      add\n      tag_169\n      swap1\n      tag_170\n      jump\t// in\n    tag_169:\n      mload(0x40)\n      dup1\n      swap2\n      sub\n      swap1\n      revert\n    tag_168:\n        /* \"@openzeppelin/contracts/token/ERC20/ERC20.sol\":6903:6963  _approve(owner, spender, currentAllowance - subtractedValue) */\n      tag_171\n        /* \"@openzeppelin/contracts/token/ERC20/ERC20.sol\":6912:6917  owner */\n      dup3\n        /* \"@openzeppelin/contracts/token/ERC20/ERC20.sol\":6919:6926  spender */\n      dup7\n        /* \"@openzeppelin/contracts/token/ERC20/ERC20.sol\":6947:6962  subtractedValue */\n      dup7\n        /* \"@openzeppelin/contracts/token/ERC20/ERC20.sol\":6928:6944  currentAllowance */\n      dup5\n        /* \"@openzeppelin/contracts/token/ERC20/ERC20.sol\":6928:6962  currentAllowance - subtractedValue */\n      sub\n        /* \"@openzeppelin/contracts/token/ERC20/ERC20.sol\":6903:6911  _approve */\n      tag_122\n        /* \"@openzeppelin/contracts/token/ERC20/ERC20.sol\":6903:6963  _approve(owner, spender, currentAllowance - subtractedValue) */\n      jump\t// in\n    tag_171:\n        /* \"@openzeppelin/contracts/token/ERC20/ERC20.sol\":6991:6995  true */\n      0x01\n        /* \"@openzeppelin/contracts/token/ERC20/ERC20.sol\":6984:6995  return true */\n      swap3\n      pop\n      pop\n      pop\n        /* \"@openzeppelin/contracts/token/ERC20/ERC20.sol\":6575:7002  function decreaseAllowance(address spender, uint256 subtractedValue) public virtual returns (bool) {... */\n      swap3\n      swap2\n      pop\n      pop\n      jump\t// out\n        /* \"@openzeppelin/contracts/token/ERC20/ERC20.sol\":3740:3929  function transfer(address to, uint256 amount) public virtual override returns (bool) {... */\n    tag_92:\n        /* \"@openzeppelin/contracts/token/ERC20/ERC20.sol\":3819:3823  bool */\n      0x00\n        /* \"@openzeppelin/contracts/token/ERC20/ERC20.sol\":3835:3848  address owner */\n      dup1\n        /* \"@openzeppelin/contracts/token/ERC20/ERC20.sol\":3851:3863  _msgSender() */\n      tag_173\n        /* \"@openzeppelin/contracts/token/ERC20/ERC20.sol\":3851:3861  _msgSender */\n      tag_120\n        /* \"@openzeppelin/contracts/token/ERC20/ERC20.sol\":3851:3863  _msgSender() */\n      jump\t// in\n    tag_173:\n        /* \"@openzeppelin/contracts/token/ERC20/ERC20.sol\":3835:3863  address owner = _msgSender() */\n      swap1\n      pop\n        /* \"@openzeppelin/contracts/token/ERC20/ERC20.sol\":3873:3901  _transfer(owner, to, amount) */\n      tag_174\n        /* \"@openzeppelin/contracts/token/ERC20/ERC20.sol\":3883:3888  owner */\n      dup2\n        /* \"@openzeppelin/contracts/token/ERC20/ERC20.sol\":3890:3892  to */\n      dup6\n        /* \"@openzeppelin/contracts/token/ERC20/ERC20.sol\":3894:3900  amount */\n      dup6\n        /* \"@openzeppelin/contracts/token/ERC20/ERC20.sol\":3873:3882  _transfer */\n      tag_131\n        /* \"@openzeppelin/contracts/token/ERC20/ERC20.sol\":3873:3901  _transfer(owner, to, amount) */\n      jump\t// in\n    tag_174:\n        /* \"@openzeppelin/contracts/token/ERC20/ERC20.sol\":3918:3922  true */\n      0x01\n        /* \"@openzeppelin/contracts/token/ERC20/ERC20.sol\":3911:3922  return true */\n      swap2\n      pop\n      pop\n        /* \"@openzeppelin/contracts/token/ERC20/ERC20.sol\":3740:3929  function transfer(address to, uint256 amount) public virtual override returns (bool) {... */\n      swap3\n      swap2\n      pop\n      pop\n      jump\t// out\n        /* \"MyToken.Sol\":4137:4396  function transferTokens(address recipient, uint256 amount) external {... */\n    tag_96:\n        /* \"MyToken.Sol\":4224:4233  blacklist */\n      0x07\n        /* \"MyToken.Sol\":4224:4245  blacklist[msg.sender] */\n      0x00\n        /* \"MyToken.Sol\":4234:4244  msg.sender */\n      caller\n        /* \"MyToken.Sol\":4224:4245  blacklist[msg.sender] */\n      0xffffffffffffffffffffffffffffffffffffffff\n      and\n      0xffffffffffffffffffffffffffffffffffffffff\n      and\n      dup2\n      mstore\n      0x20\n      add\n      swap1\n      dup2\n      mstore\n      0x20\n      add\n      0x00\n      keccak256\n      0x00\n      swap1\n      sload\n      swap1\n      0x0100\n      exp\n      swap1\n      div\n      0xff\n      and\n        /* \"MyToken.Sol\":4223:4245  !blacklist[msg.sender] */\n      iszero\n        /* \"MyToken.Sol\":4215:4271  require(!blacklist[msg.sender], \"Sender is blacklisted\") */\n      tag_176\n      jumpi\n      mload(0x40)\n      0x08c379a000000000000000000000000000000000000000000000000000000000\n      dup2\n      mstore\n      0x04\n      add\n      tag_177\n      swap1\n      tag_178\n      jump\t// in\n    tag_177:\n      mload(0x40)\n      dup1\n      swap2\n      sub\n      swap1\n      revert\n    tag_176:\n        /* \"MyToken.Sol\":4290:4299  blacklist */\n      0x07\n        /* \"MyToken.Sol\":4290:4310  blacklist[recipient] */\n      0x00\n        /* \"MyToken.Sol\":4300:4309  recipient */\n      dup4\n        /* \"MyToken.Sol\":4290:4310  blacklist[recipient] */\n      0xffffffffffffffffffffffffffffffffffffffff\n      and\n      0xffffffffffffffffffffffffffffffffffffffff\n      and\n      dup2\n      mstore\n      0x20\n      add\n      swap1\n      dup2\n      mstore\n      0x20\n      add\n      0x00\n      keccak256\n      0x00\n      swap1\n      sload\n      swap1\n      0x0100\n      exp\n      swap1\n      div\n      0xff\n      and\n        /* \"MyToken.Sol\":4289:4310  !blacklist[recipient] */\n      iszero\n        /* \"MyToken.Sol\":4281:4339  require(!blacklist[recipient], \"Recipient is blacklisted\") */\n      tag_179\n      jumpi\n      mload(0x40)\n      0x08c379a000000000000000000000000000000000000000000000000000000000\n      dup2\n      mstore\n      0x04\n      add\n      tag_180\n      swap1\n      tag_181\n      jump\t// in\n    tag_180:\n      mload(0x40)\n      dup1\n      swap2\n      sub\n      swap1\n      revert\n    tag_179:\n        /* \"MyToken.Sol\":4349:4389  _transfer(msg.sender, recipient, amount) */\n      tag_182\n        /* \"MyToken.Sol\":4359:4369  msg.sender */\n      caller\n        /* \"MyToken.Sol\":4371:4380  recipient */\n      dup4\n        /* \"MyToken.Sol\":4382:4388  amount */\n      dup4\n        /* \"MyToken.Sol\":4349:4358  _transfer */\n      tag_131\n        /* \"MyToken.Sol\":4349:4389  _transfer(msg.sender, recipient, amount) */\n      jump\t// in\n    tag_182:\n        /* \"MyToken.Sol\":4137:4396  function transferTokens(address recipient, uint256 amount) external {... */\n      pop\n      pop\n      jump\t// out\n        /* \"MyToken.Sol\":4402:4531  function getInscription(uint256 tokenId) external view returns (string memory) {... */\n    tag_99:\n        /* \"MyToken.Sol\":4466:4479  string memory */\n      0x60\n        /* \"MyToken.Sol\":4498:4515  tokenInscriptions */\n      0x05\n        /* \"MyToken.Sol\":4498:4524  tokenInscriptions[tokenId] */\n      0x00\n        /* \"MyToken.Sol\":4516:4523  tokenId */\n      dup4\n        /* \"MyToken.Sol\":4498:4524  tokenInscriptions[tokenId] */\n      dup2\n      mstore\n      0x20\n      add\n      swap1\n      dup2\n      mstore\n      0x20\n      add\n      0x00\n      keccak256\n        /* \"MyToken.Sol\":4491:4524  return tokenInscriptions[tokenId] */\n      dup1\n      sload\n      tag_184\n      swap1\n      tag_107\n      jump\t// in\n    tag_184:\n      dup1\n      0x1f\n      add\n      0x20\n      dup1\n      swap2\n      div\n      mul\n      0x20\n      add\n      mload(0x40)\n      swap1\n      dup2\n      add\n      0x40\n      mstore\n      dup1\n      swap3\n      swap2\n      swap1\n      dup2\n      dup2\n      mstore\n      0x20\n      add\n      dup3\n      dup1\n      sload\n      tag_185\n      swap1\n      tag_107\n      jump\t// in\n    tag_185:\n      dup1\n      iszero\n      tag_186\n      jumpi\n      dup1\n      0x1f\n      lt\n      tag_187\n      jumpi\n      0x0100\n      dup1\n      dup4\n      sload\n      div\n      mul\n      dup4\n      mstore\n      swap2\n      0x20\n      add\n      swap2\n      jump(tag_186)\n    tag_187:\n      dup3\n      add\n      swap2\n      swap1\n      0x00\n      mstore\n      keccak256(0x00, 0x20)\n      swap1\n    tag_188:\n      dup2\n      sload\n      dup2\n      mstore\n      swap1\n      0x01\n      add\n      swap1\n      0x20\n      add\n      dup1\n      dup4\n      gt\n      tag_188\n      jumpi\n      dup3\n      swap1\n      sub\n      0x1f\n      and\n      dup3\n      add\n      swap2\n    tag_186:\n      pop\n      pop\n      pop\n      pop\n      pop\n      swap1\n      pop\n        /* \"MyToken.Sol\":4402:4531  function getInscription(uint256 tokenId) external view returns (string memory) {... */\n      swap2\n      swap1\n      pop\n      jump\t// out\n        /* \"@openzeppelin/contracts/token/ERC20/ERC20.sol\":3987:4136  function allowance(address owner, address spender) public view virtual override returns (uint256) {... */\n    tag_104:\n        /* \"@openzeppelin/contracts/token/ERC20/ERC20.sol\":4076:4083  uint256 */\n      0x00\n        /* \"@openzeppelin/contracts/token/ERC20/ERC20.sol\":4102:4113  _allowances */\n      0x01\n        /* \"@openzeppelin/contracts/token/ERC20/ERC20.sol\":4102:4120  _allowances[owner] */\n      0x00\n        /* \"@openzeppelin/contracts/token/ERC20/ERC20.sol\":4114:4119  owner */\n      dup5\n        /* \"@openzeppelin/contracts/token/ERC20/ERC20.sol\":4102:4120  _allowances[owner] */\n      0xffffffffffffffffffffffffffffffffffffffff\n      and\n      0xffffffffffffffffffffffffffffffffffffffff\n      and\n      dup2\n      mstore\n      0x20\n      add\n      swap1\n      dup2\n      mstore\n      0x20\n      add\n      0x00\n      keccak256\n        /* \"@openzeppelin/contracts/token/ERC20/ERC20.sol\":4102:4129  _allowances[owner][spender] */\n      0x00\n        /* \"@openzeppelin/contracts/token/ERC20/ERC20.sol\":4121:4128  spender */\n      dup4\n        /* \"@openzeppelin/contracts/token/ERC20/ERC20.sol\":4102:4129  _allowances[owner][spender] */\n      0xffffffffffffffffffffffffffffffffffffffff\n      and\n      0xffffffffffffffffffffffffffffffffffffffff\n      and\n      dup2\n      mstore\n      0x20\n      add\n      swap1\n      dup2\n      mstore\n      0x20\n      add\n      0x00\n      keccak256\n      sload\n        /* \"@openzeppelin/contracts/token/ERC20/ERC20.sol\":4095:4129  return _allowances[owner][spender] */\n      swap1\n      pop\n        /* \"@openzeppelin/contracts/token/ERC20/ERC20.sol\":3987:4136  function allowance(address owner, address spender) public view virtual override returns (uint256) {... */\n      swap3\n      swap2\n      pop\n      pop\n      jump\t// out\n        /* \"@openzeppelin/contracts/utils/Context.sol\":640:736  function _msgSender() internal view virtual returns (address) {... */\n    tag_120:\n        /* \"@openzeppelin/contracts/utils/Context.sol\":693:700  address */\n      0x00\n        /* \"@openzeppelin/contracts/utils/Context.sol\":719:729  msg.sender */\n      caller\n        /* \"@openzeppelin/contracts/utils/Context.sol\":712:729  return msg.sender */\n      swap1\n      pop\n        /* \"@openzeppelin/contracts/utils/Context.sol\":640:736  function _msgSender() internal view virtual returns (address) {... */\n      swap1\n      jump\t// out\n        /* \"@openzeppelin/contracts/token/ERC20/ERC20.sol\":10457:10797  function _approve(address owner, address spender, uint256 amount) internal virtual {... */\n    tag_122:\n        /* \"@openzeppelin/contracts/token/ERC20/ERC20.sol\":10575:10576  0 */\n      0x00\n        /* \"@openzeppelin/contracts/token/ERC20/ERC20.sol\":10558:10577  owner != address(0) */\n      0xffffffffffffffffffffffffffffffffffffffff\n      and\n        /* \"@openzeppelin/contracts/token/ERC20/ERC20.sol\":10558:10563  owner */\n      dup4\n        /* \"@openzeppelin/contracts/token/ERC20/ERC20.sol\":10558:10577  owner != address(0) */\n      0xffffffffffffffffffffffffffffffffffffffff\n      and\n      sub\n        /* \"@openzeppelin/contracts/token/ERC20/ERC20.sol\":10550:10618  require(owner != address(0), \"ERC20: approve from the zero address\") */\n      tag_192\n      jumpi\n      mload(0x40)\n      0x08c379a000000000000000000000000000000000000000000000000000000000\n      dup2\n      mstore\n      0x04\n      add\n      tag_193\n      swap1\n      tag_194\n      jump\t// in\n    tag_193:\n      mload(0x40)\n      dup1\n      swap2\n      sub\n      swap1\n      revert\n    tag_192:\n        /* \"@openzeppelin/contracts/token/ERC20/ERC20.sol\":10655:10656  0 */\n      0x00\n        /* \"@openzeppelin/contracts/token/ERC20/ERC20.sol\":10636:10657  spender != address(0) */\n      0xffffffffffffffffffffffffffffffffffffffff\n      and\n        /* \"@openzeppelin/contracts/token/ERC20/ERC20.sol\":10636:10643  spender */\n      dup3\n        /* \"@openzeppelin/contracts/token/ERC20/ERC20.sol\":10636:10657  spender != address(0) */\n      0xffffffffffffffffffffffffffffffffffffffff\n      and\n      sub\n        /* \"@openzeppelin/contracts/token/ERC20/ERC20.sol\":10628:10696  require(spender != address(0), \"ERC20: approve to the zero address\") */\n      tag_195\n      jumpi\n      mload(0x40)\n      0x08c379a000000000000000000000000000000000000000000000000000000000\n      dup2\n      mstore\n      0x04\n      add\n      tag_196\n      swap1\n      tag_197\n      jump\t// in\n    tag_196:\n      mload(0x40)\n      dup1\n      swap2\n      sub\n      swap1\n      revert\n    tag_195:\n        /* \"@openzeppelin/contracts/token/ERC20/ERC20.sol\":10737:10743  amount */\n      dup1\n        /* \"@openzeppelin/contracts/token/ERC20/ERC20.sol\":10707:10718  _allowances */\n      0x01\n        /* \"@openzeppelin/contracts/token/ERC20/ERC20.sol\":10707:10725  _allowances[owner] */\n      0x00\n        /* \"@openzeppelin/contracts/token/ERC20/ERC20.sol\":10719:10724  owner */\n      dup6\n        /* \"@openzeppelin/contracts/token/ERC20/ERC20.sol\":10707:10725  _allowances[owner] */\n      0xffffffffffffffffffffffffffffffffffffffff\n      and\n      0xffffffffffffffffffffffffffffffffffffffff\n      and\n      dup2\n      mstore\n      0x20\n      add\n      swap1\n      dup2\n      mstore\n      0x20\n      add\n      0x00\n      keccak256\n        /* \"@openzeppelin/contracts/token/ERC20/ERC20.sol\":10707:10734  _allowances[owner][spender] */\n      0x00\n        /* \"@openzeppelin/contracts/token/ERC20/ERC20.sol\":10726:10733  spender */\n      dup5\n        /* \"@openzeppelin/contracts/token/ERC20/ERC20.sol\":10707:10734  _allowances[owner][spender] */\n      0xffffffffffffffffffffffffffffffffffffffff\n      and\n      0xffffffffffffffffffffffffffffffffffffffff\n      and\n      dup2\n      mstore\n      0x20\n      add\n      swap1\n      dup2\n      mstore\n      0x20\n      add\n      0x00\n      keccak256\n        /* \"@openzeppelin/contracts/token/ERC20/ERC20.sol\":10707:10743  _allowances[owner][spender] = amount */\n      dup2\n      swap1\n      sstore\n      pop\n        /* \"@openzeppelin/contracts/token/ERC20/ERC20.sol\":10774:10781  spender */\n      dup2\n        /* \"@openzeppelin/contracts/token/ERC20/ERC20.sol\":10758:10790  Approval(owner, spender, amount) */\n      0xffffffffffffffffffffffffffffffffffffffff\n      and\n        /* \"@openzeppelin/contracts/token/ERC20/ERC20.sol\":10767:10772  owner */\n      dup4\n        /* \"@openzeppelin/contracts/token/ERC20/ERC20.sol\":10758:10790  Approval(owner, spender, amount) */\n      0xffffffffffffffffffffffffffffffffffffffff\n      and\n      0x8c5be1e5ebec7d5bd14f71427d1e84f3dd0314c0f7b2291e5b200ac8c7c3b925\n        /* \"@openzeppelin/contracts/token/ERC20/ERC20.sol\":10783:10789  amount */\n      dup4\n        /* \"@openzeppelin/contracts/token/ERC20/ERC20.sol\":10758:10790  Approval(owner, spender, amount) */\n      mload(0x40)\n      tag_198\n      swap2\n      swap1\n      tag_44\n      jump\t// in\n    tag_198:\n      mload(0x40)\n      dup1\n      swap2\n      sub\n      swap1\n      log3\n        /* \"@openzeppelin/contracts/token/ERC20/ERC20.sol\":10457:10797  function _approve(address owner, address spender, uint256 amount) internal virtual {... */\n      pop\n      pop\n      pop\n      jump\t// out\n        /* \"@openzeppelin/contracts/token/ERC20/ERC20.sol\":11078:11489  function _spendAllowance(address owner, address spender, uint256 amount) internal virtual {... */\n    tag_129:\n        /* \"@openzeppelin/contracts/token/ERC20/ERC20.sol\":11178:11202  uint256 currentAllowance */\n      0x00\n        /* \"@openzeppelin/contracts/token/ERC20/ERC20.sol\":11205:11230  allowance(owner, spender) */\n      tag_200\n        /* \"@openzeppelin/contracts/token/ERC20/ERC20.sol\":11215:11220  owner */\n      dup5\n        /* \"@openzeppelin/contracts/token/ERC20/ERC20.sol\":11222:11229  spender */\n      dup5\n        /* \"@openzeppelin/contracts/token/ERC20/ERC20.sol\":11205:11214  allowance */\n      tag_104\n        /* \"@openzeppelin/contracts/token/ERC20/ERC20.sol\":11205:11230  allowance(owner, spender) */\n      jump\t// in\n    tag_200:\n        /* \"@openzeppelin/contracts/token/ERC20/ERC20.sol\":11178:11230  uint256 currentAllowance = allowance(owner, spender) */\n      swap1\n      pop\n        /* \"@openzeppelin/contracts/token/ERC20/ERC20.sol\":11264:11281  type(uint256).max */\n      0xffffffffffffffffffffffffffffffffffffffffffffffffffffffffffffffff\n        /* \"@openzeppelin/contracts/token/ERC20/ERC20.sol\":11244:11260  currentAllowance */\n      dup2\n        /* \"@openzeppelin/contracts/token/ERC20/ERC20.sol\":11244:11281  currentAllowance != type(uint256).max */\n      eq\n        /* \"@openzeppelin/contracts/token/ERC20/ERC20.sol\":11240:11483  if (currentAllowance != type(uint256).max) {... */\n      tag_201\n      jumpi\n        /* \"@openzeppelin/contracts/token/ERC20/ERC20.sol\":11325:11331  amount */\n      dup2\n        /* \"@openzeppelin/contracts/token/ERC20/ERC20.sol\":11305:11321  currentAllowance */\n      dup2\n        /* \"@openzeppelin/contracts/token/ERC20/ERC20.sol\":11305:11331  currentAllowance >= amount */\n      lt\n      iszero\n        /* \"@openzeppelin/contracts/token/ERC20/ERC20.sol\":11297:11365  require(currentAllowance >= amount, \"ERC20: insufficient allowance\") */\n      tag_202\n      jumpi\n      mload(0x40)\n      0x08c379a000000000000000000000000000000000000000000000000000000000\n      dup2\n      mstore\n      0x04\n      add\n      tag_203\n      swap1\n      tag_204\n      jump\t// in\n    tag_203:\n      mload(0x40)\n      dup1\n      swap2\n      sub\n      swap1\n      revert\n    tag_202:\n        /* \"@openzeppelin/contracts/token/ERC20/ERC20.sol\":11407:11458  _approve(owner, spender, currentAllowance - amount) */\n      tag_205\n        /* \"@openzeppelin/contracts/token/ERC20/ERC20.sol\":11416:11421  owner */\n      dup5\n        /* \"@openzeppelin/contracts/token/ERC20/ERC20.sol\":11423:11430  spender */\n      dup5\n        /* \"@openzeppelin/contracts/token/ERC20/ERC20.sol\":11451:11457  amount */\n      dup5\n        /* \"@openzeppelin/contracts/token/ERC20/ERC20.sol\":11432:11448  currentAllowance */\n      dup5\n        /* \"@openzeppelin/contracts/token/ERC20/ERC20.sol\":11432:11457  currentAllowance - amount */\n      sub\n        /* \"@openzeppelin/contracts/token/ERC20/ERC20.sol\":11407:11415  _approve */\n      tag_122\n        /* \"@openzeppelin/contracts/token/ERC20/ERC20.sol\":11407:11458  _approve(owner, spender, currentAllowance - amount) */\n      jump\t// in\n    tag_205:\n        /* \"@openzeppelin/contracts/token/ERC20/ERC20.sol\":11240:11483  if (currentAllowance != type(uint256).max) {... */\n    tag_201:\n        /* \"@openzeppelin/contracts/token/ERC20/ERC20.sol\":11168:11489  {... */\n      pop\n        /* \"@openzeppelin/contracts/token/ERC20/ERC20.sol\":11078:11489  function _spendAllowance(address owner, address spender, uint256 amount) internal virtual {... */\n      pop\n      pop\n      pop\n      jump\t// out\n        /* \"@openzeppelin/contracts/token/ERC20/ERC20.sol\":7456:8244  function _transfer(address from, address to, uint256 amount) internal virtual {... */\n    tag_131:\n        /* \"@openzeppelin/contracts/token/ERC20/ERC20.sol\":7568:7569  0 */\n      0x00\n        /* \"@openzeppelin/contracts/token/ERC20/ERC20.sol\":7552:7570  from != address(0) */\n      0xffffffffffffffffffffffffffffffffffffffff\n      and\n        /* \"@openzeppelin/contracts/token/ERC20/ERC20.sol\":7552:7556  from */\n      dup4\n        /* \"@openzeppelin/contracts/token/ERC20/ERC20.sol\":7552:7570  from != address(0) */\n      0xffffffffffffffffffffffffffffffffffffffff\n      and\n      sub\n        /* \"@openzeppelin/contracts/token/ERC20/ERC20.sol\":7544:7612  require(from != address(0), \"ERC20: transfer from the zero address\") */\n      tag_207\n      jumpi\n      mload(0x40)\n      0x08c379a000000000000000000000000000000000000000000000000000000000\n      dup2\n      mstore\n      0x04\n      add\n      tag_208\n      swap1\n      tag_209\n      jump\t// in\n    tag_208:\n      mload(0x40)\n      dup1\n      swap2\n      sub\n      swap1\n      revert\n    tag_207:\n        /* \"@openzeppelin/contracts/token/ERC20/ERC20.sol\":7644:7645  0 */\n      0x00\n        /* \"@openzeppelin/contracts/token/ERC20/ERC20.sol\":7630:7646  to != address(0) */\n      0xffffffffffffffffffffffffffffffffffffffff\n      and\n        /* \"@openzeppelin/contracts/token/ERC20/ERC20.sol\":7630:7632  to */\n      dup3\n        /* \"@openzeppelin/contracts/token/ERC20/ERC20.sol\":7630:7646  to != address(0) */\n      0xffffffffffffffffffffffffffffffffffffffff\n      and\n      sub\n        /* \"@openzeppelin/contracts/token/ERC20/ERC20.sol\":7622:7686  require(to != address(0), \"ERC20: transfer to the zero address\") */\n      tag_210\n      jumpi\n      mload(0x40)\n      0x08c379a000000000000000000000000000000000000000000000000000000000\n      dup2\n      mstore\n      0x04\n      add\n      tag_211\n      swap1\n      tag_212\n      jump\t// in\n    tag_211:\n      mload(0x40)\n      dup1\n      swap2\n      sub\n      swap1\n      revert\n    tag_210:\n        /* \"@openzeppelin/contracts/token/ERC20/ERC20.sol\":7697:7735  _beforeTokenTransfer(from, to, amount) */\n      tag_213\n        /* \"@openzeppelin/contracts/token/ERC20/ERC20.sol\":7718:7722  from */\n      dup4\n        /* \"@openzeppelin/contracts/token/ERC20/ERC20.sol\":7724:7726  to */\n      dup4\n        /* \"@openzeppelin/contracts/token/ERC20/ERC20.sol\":7728:7734  amount */\n      dup4\n        /* \"@openzeppelin/contracts/token/ERC20/ERC20.sol\":7697:7717  _beforeTokenTransfer */\n      tag_214\n        /* \"@openzeppelin/contracts/token/ERC20/ERC20.sol\":7697:7735  _beforeTokenTransfer(from, to, amount) */\n      jump\t// in\n    tag_213:\n        /* \"@openzeppelin/contracts/token/ERC20/ERC20.sol\":7746:7765  uint256 fromBalance */\n      0x00\n        /* \"@openzeppelin/contracts/token/ERC20/ERC20.sol\":7768:7777  _balances */\n      dup1\n        /* \"@openzeppelin/contracts/token/ERC20/ERC20.sol\":7768:7783  _balances[from] */\n      0x00\n        /* \"@openzeppelin/contracts/token/ERC20/ERC20.sol\":7778:7782  from */\n      dup6\n        /* \"@openzeppelin/contracts/token/ERC20/ERC20.sol\":7768:7783  _balances[from] */\n      0xffffffffffffffffffffffffffffffffffffffff\n      and\n      0xffffffffffffffffffffffffffffffffffffffff\n      and\n      dup2\n      mstore\n      0x20\n      add\n      swap1\n      dup2\n      mstore\n      0x20\n      add\n      0x00\n      keccak256\n      sload\n        /* \"@openzeppelin/contracts/token/ERC20/ERC20.sol\":7746:7783  uint256 fromBalance = _balances[from] */\n      swap1\n      pop\n        /* \"@openzeppelin/contracts/token/ERC20/ERC20.sol\":7816:7822  amount */\n      dup2\n        /* \"@openzeppelin/contracts/token/ERC20/ERC20.sol\":7801:7812  fromBalance */\n      dup2\n        /* \"@openzeppelin/contracts/token/ERC20/ERC20.sol\":7801:7822  fromBalance >= amount */\n      lt\n      iszero\n        /* \"@openzeppelin/contracts/token/ERC20/ERC20.sol\":7793:7865  require(fromBalance >= amount, \"ERC20: transfer amount exceeds balance\") */\n      tag_215\n      jumpi\n      mload(0x40)\n      0x08c379a000000000000000000000000000000000000000000000000000000000\n      dup2\n      mstore\n      0x04\n      add\n      tag_216\n      swap1\n      tag_217\n      jump\t// in\n    tag_216:\n      mload(0x40)\n      dup1\n      swap2\n      sub\n      swap1\n      revert\n    tag_215:\n        /* \"@openzeppelin/contracts/token/ERC20/ERC20.sol\":7931:7937  amount */\n      dup2\n        /* \"@openzeppelin/contracts/token/ERC20/ERC20.sol\":7917:7928  fromBalance */\n      dup2\n        /* \"@openzeppelin/contracts/token/ERC20/ERC20.sol\":7917:7937  fromBalance - amount */\n      sub\n        /* \"@openzeppelin/contracts/token/ERC20/ERC20.sol\":7899:7908  _balances */\n      0x00\n        /* \"@openzeppelin/contracts/token/ERC20/ERC20.sol\":7899:7914  _balances[from] */\n      dup1\n        /* \"@openzeppelin/contracts/token/ERC20/ERC20.sol\":7909:7913  from */\n      dup7\n        /* \"@openzeppelin/contracts/token/ERC20/ERC20.sol\":7899:7914  _balances[from] */\n      0xffffffffffffffffffffffffffffffffffffffff\n      and\n      0xffffffffffffffffffffffffffffffffffffffff\n      and\n      dup2\n      mstore\n      0x20\n      add\n      swap1\n      dup2\n      mstore\n      0x20\n      add\n      0x00\n      keccak256\n        /* \"@openzeppelin/contracts/token/ERC20/ERC20.sol\":7899:7937  _balances[from] = fromBalance - amount */\n      dup2\n      swap1\n      sstore\n      pop\n        /* \"@openzeppelin/contracts/token/ERC20/ERC20.sol\":8131:8137  amount */\n      dup2\n        /* \"@openzeppelin/contracts/token/ERC20/ERC20.sol\":8114:8123  _balances */\n      0x00\n        /* \"@openzeppelin/contracts/token/ERC20/ERC20.sol\":8114:8127  _balances[to] */\n      dup1\n        /* \"@openzeppelin/contracts/token/ERC20/ERC20.sol\":8124:8126  to */\n      dup6\n        /* \"@openzeppelin/contracts/token/ERC20/ERC20.sol\":8114:8127  _balances[to] */\n      0xffffffffffffffffffffffffffffffffffffffff\n      and\n      0xffffffffffffffffffffffffffffffffffffffff\n      and\n      dup2\n      mstore\n      0x20\n      add\n      swap1\n      dup2\n      mstore\n      0x20\n      add\n      0x00\n      keccak256\n      0x00\n        /* \"@openzeppelin/contracts/token/ERC20/ERC20.sol\":8114:8137  _balances[to] += amount */\n      dup3\n      dup3\n      sload\n      add\n      swap3\n      pop\n      pop\n      dup2\n      swap1\n      sstore\n      pop\n        /* \"@openzeppelin/contracts/token/ERC20/ERC20.sol\":8178:8180  to */\n      dup3\n        /* \"@openzeppelin/contracts/token/ERC20/ERC20.sol\":8163:8189  Transfer(from, to, amount) */\n      0xffffffffffffffffffffffffffffffffffffffff\n      and\n        /* \"@openzeppelin/contracts/token/ERC20/ERC20.sol\":8172:8176  from */\n      dup5\n        /* \"@openzeppelin/contracts/token/ERC20/ERC20.sol\":8163:8189  Transfer(from, to, amount) */\n      0xffffffffffffffffffffffffffffffffffffffff\n      and\n      0xddf252ad1be2c89b69c2b068fc378daa952ba7f163c4a11628f55a4df523b3ef\n        /* \"@openzeppelin/contracts/token/ERC20/ERC20.sol\":8182:8188  amount */\n      dup5\n        /* \"@openzeppelin/contracts/token/ERC20/ERC20.sol\":8163:8189  Transfer(from, to, amount) */\n      mload(0x40)\n      tag_218\n      swap2\n      swap1\n      tag_44\n      jump\t// in\n    tag_218:\n      mload(0x40)\n      dup1\n      swap2\n      sub\n      swap1\n      log3\n        /* \"@openzeppelin/contracts/token/ERC20/ERC20.sol\":8200:8237  _afterTokenTransfer(from, to, amount) */\n      tag_219\n        /* \"@openzeppelin/contracts/token/ERC20/ERC20.sol\":8220:8224  from */\n      dup5\n        /* \"@openzeppelin/contracts/token/ERC20/ERC20.sol\":8226:8228  to */\n      dup5\n        /* \"@openzeppelin/contracts/token/ERC20/ERC20.sol\":8230:8236  amount */\n      dup5\n        /* \"@openzeppelin/contracts/token/ERC20/ERC20.sol\":8200:8219  _afterTokenTransfer */\n      tag_220\n        /* \"@openzeppelin/contracts/token/ERC20/ERC20.sol\":8200:8237  _afterTokenTransfer(from, to, amount) */\n      jump\t// in\n    tag_219:\n        /* \"@openzeppelin/contracts/token/ERC20/ERC20.sol\":7534:8244  {... */\n      pop\n        /* \"@openzeppelin/contracts/token/ERC20/ERC20.sol\":7456:8244  function _transfer(address from, address to, uint256 amount) internal virtual {... */\n      pop\n      pop\n      pop\n      jump\t// out\n        /* \"@openzeppelin/contracts/token/ERC20/ERC20.sol\":12073:12164  function _beforeTokenTransfer(address from, address to, uint256 amount) internal virtual {} */\n    tag_214:\n      pop\n      pop\n      pop\n      jump\t// out\n        /* \"@openzeppelin/contracts/token/ERC20/ERC20.sol\":12752:12842  function _afterTokenTransfer(address from, address to, uint256 amount) internal virtual {} */\n    tag_220:\n      pop\n      pop\n      pop\n      jump\t// out\n        /* \"#utility.yul\":88:205   */\n    tag_224:\n        /* \"#utility.yul\":197:198   */\n      0x00\n        /* \"#utility.yul\":194:195   */\n      dup1\n        /* \"#utility.yul\":187:199   */\n      revert\n        /* \"#utility.yul\":334:411   */\n    tag_226:\n        /* \"#utility.yul\":371:378   */\n      0x00\n        /* \"#utility.yul\":400:405   */\n      dup2\n        /* \"#utility.yul\":389:405   */\n      swap1\n      pop\n        /* \"#utility.yul\":334:411   */\n      swap2\n      swap1\n      pop\n      jump\t// out\n        /* \"#utility.yul\":417:539   */\n    tag_227:\n        /* \"#utility.yul\":490:514   */\n      tag_273\n        /* \"#utility.yul\":508:513   */\n      dup2\n        /* \"#utility.yul\":490:514   */\n      tag_226\n      jump\t// in\n    tag_273:\n        /* \"#utility.yul\":483:488   */\n      dup2\n        /* \"#utility.yul\":480:515   */\n      eq\n        /* \"#utility.yul\":470:533   */\n      tag_274\n      jumpi\n        /* \"#utility.yul\":529:530   */\n      0x00\n        /* \"#utility.yul\":526:527   */\n      dup1\n        /* \"#utility.yul\":519:531   */\n      revert\n        /* \"#utility.yul\":470:533   */\n    tag_274:\n        /* \"#utility.yul\":417:539   */\n      pop\n      jump\t// out\n        /* \"#utility.yul\":545:684   */\n    tag_228:\n        /* \"#utility.yul\":591:596   */\n      0x00\n        /* \"#utility.yul\":629:635   */\n      dup2\n        /* \"#utility.yul\":616:636   */\n      calldataload\n        /* \"#utility.yul\":607:636   */\n      swap1\n      pop\n        /* \"#utility.yul\":645:678   */\n      tag_276\n        /* \"#utility.yul\":672:677   */\n      dup2\n        /* \"#utility.yul\":645:678   */\n      tag_227\n      jump\t// in\n    tag_276:\n        /* \"#utility.yul\":545:684   */\n      swap3\n      swap2\n      pop\n      pop\n      jump\t// out\n        /* \"#utility.yul\":690:1019   */\n    tag_28:\n        /* \"#utility.yul\":749:755   */\n      0x00\n        /* \"#utility.yul\":798:800   */\n      0x20\n        /* \"#utility.yul\":786:795   */\n      dup3\n        /* \"#utility.yul\":777:784   */\n      dup5\n        /* \"#utility.yul\":773:796   */\n      sub\n        /* \"#utility.yul\":769:801   */\n      slt\n        /* \"#utility.yul\":766:885   */\n      iszero\n      tag_278\n      jumpi\n        /* \"#utility.yul\":804:883   */\n      tag_279\n      tag_224\n      jump\t// in\n    tag_279:\n        /* \"#utility.yul\":766:885   */\n    tag_278:\n        /* \"#utility.yul\":924:925   */\n      0x00\n        /* \"#utility.yul\":949:1002   */\n      tag_280\n        /* \"#utility.yul\":994:1001   */\n      dup5\n        /* \"#utility.yul\":985:991   */\n      dup3\n        /* \"#utility.yul\":974:983   */\n      dup6\n        /* \"#utility.yul\":970:992   */\n      add\n        /* \"#utility.yul\":949:1002   */\n      tag_228\n      jump\t// in\n    tag_280:\n        /* \"#utility.yul\":939:1002   */\n      swap2\n      pop\n        /* \"#utility.yul\":895:1012   */\n      pop\n        /* \"#utility.yul\":690:1019   */\n      swap3\n      swap2\n      pop\n      pop\n      jump\t// out\n        /* \"#utility.yul\":1025:1124   */\n    tag_229:\n        /* \"#utility.yul\":1077:1083   */\n      0x00\n        /* \"#utility.yul\":1111:1116   */\n      dup2\n        /* \"#utility.yul\":1105:1117   */\n      mload\n        /* \"#utility.yul\":1095:1117   */\n      swap1\n      pop\n        /* \"#utility.yul\":1025:1124   */\n      swap2\n      swap1\n      pop\n      jump\t// out\n        /* \"#utility.yul\":1130:1299   */\n    tag_230:\n        /* \"#utility.yul\":1214:1225   */\n      0x00\n        /* \"#utility.yul\":1248:1254   */\n      dup3\n        /* \"#utility.yul\":1243:1246   */\n      dup3\n        /* \"#utility.yul\":1236:1255   */\n      mstore\n        /* \"#utility.yul\":1288:1292   */\n      0x20\n        /* \"#utility.yul\":1283:1286   */\n      dup3\n        /* \"#utility.yul\":1279:1293   */\n      add\n        /* \"#utility.yul\":1264:1293   */\n      swap1\n      pop\n        /* \"#utility.yul\":1130:1299   */\n      swap3\n      swap2\n      pop\n      pop\n      jump\t// out\n        /* \"#utility.yul\":1305:1551   */\n    tag_231:\n        /* \"#utility.yul\":1386:1387   */\n      0x00\n        /* \"#utility.yul\":1396:1509   */\n    tag_284:\n        /* \"#utility.yul\":1410:1416   */\n      dup4\n        /* \"#utility.yul\":1407:1408   */\n      dup2\n        /* \"#utility.yul\":1404:1417   */\n      lt\n        /* \"#utility.yul\":1396:1509   */\n      iszero\n      tag_286\n      jumpi\n        /* \"#utility.yul\":1495:1496   */\n      dup1\n        /* \"#utility.yul\":1490:1493   */\n      dup3\n        /* \"#utility.yul\":1486:1497   */\n      add\n        /* \"#utility.yul\":1480:1498   */\n      mload\n        /* \"#utility.yul\":1476:1477   */\n      dup2\n        /* \"#utility.yul\":1471:1474   */\n      dup5\n        /* \"#utility.yul\":1467:1478   */\n      add\n        /* \"#utility.yul\":1460:1499   */\n      mstore\n        /* \"#utility.yul\":1432:1434   */\n      0x20\n        /* \"#utility.yul\":1429:1430   */\n      dup2\n        /* \"#utility.yul\":1425:1435   */\n      add\n        /* \"#utility.yul\":1420:1435   */\n      swap1\n      pop\n        /* \"#utility.yul\":1396:1509   */\n      jump(tag_284)\n    tag_286:\n        /* \"#utility.yul\":1543:1544   */\n      0x00\n        /* \"#utility.yul\":1534:1540   */\n      dup5\n        /* \"#utility.yul\":1529:1532   */\n      dup5\n        /* \"#utility.yul\":1525:1541   */\n      add\n        /* \"#utility.yul\":1518:1545   */\n      mstore\n        /* \"#utility.yul\":1367:1551   */\n      pop\n        /* \"#utility.yul\":1305:1551   */\n      pop\n      pop\n      pop\n      jump\t// out\n        /* \"#utility.yul\":1557:1659   */\n    tag_232:\n        /* \"#utility.yul\":1598:1604   */\n      0x00\n        /* \"#utility.yul\":1649:1651   */\n      0x1f\n        /* \"#utility.yul\":1645:1652   */\n      not\n        /* \"#utility.yul\":1640:1642   */\n      0x1f\n        /* \"#utility.yul\":1633:1638   */\n      dup4\n        /* \"#utility.yul\":1629:1643   */\n      add\n        /* \"#utility.yul\":1625:1653   */\n      and\n        /* \"#utility.yul\":1615:1653   */\n      swap1\n      pop\n        /* \"#utility.yul\":1557:1659   */\n      swap2\n      swap1\n      pop\n      jump\t// out\n        /* \"#utility.yul\":1665:2042   */\n    tag_233:\n        /* \"#utility.yul\":1753:1756   */\n      0x00\n        /* \"#utility.yul\":1781:1820   */\n      tag_289\n        /* \"#utility.yul\":1814:1819   */\n      dup3\n        /* \"#utility.yul\":1781:1820   */\n      tag_229\n      jump\t// in\n    tag_289:\n        /* \"#utility.yul\":1836:1907   */\n      tag_290\n        /* \"#utility.yul\":1900:1906   */\n      dup2\n        /* \"#utility.yul\":1895:1898   */\n      dup6\n        /* \"#utility.yul\":1836:1907   */\n      tag_230\n      jump\t// in\n    tag_290:\n        /* \"#utility.yul\":1829:1907   */\n      swap4\n      pop\n        /* \"#utility.yul\":1916:1981   */\n      tag_291\n        /* \"#utility.yul\":1974:1980   */\n      dup2\n        /* \"#utility.yul\":1969:1972   */\n      dup6\n        /* \"#utility.yul\":1962:1966   */\n      0x20\n        /* \"#utility.yul\":1955:1960   */\n      dup7\n        /* \"#utility.yul\":1951:1967   */\n      add\n        /* \"#utility.yul\":1916:1981   */\n      tag_231\n      jump\t// in\n    tag_291:\n        /* \"#utility.yul\":2006:2035   */\n      tag_292\n        /* \"#utility.yul\":2028:2034   */\n      dup2\n        /* \"#utility.yul\":2006:2035   */\n      tag_232\n      jump\t// in\n    tag_292:\n        /* \"#utility.yul\":2001:2004   */\n      dup5\n        /* \"#utility.yul\":1997:2036   */\n      add\n        /* \"#utility.yul\":1990:2036   */\n      swap2\n      pop\n        /* \"#utility.yul\":1757:2042   */\n      pop\n        /* \"#utility.yul\":1665:2042   */\n      swap3\n      swap2\n      pop\n      pop\n      jump\t// out\n        /* \"#utility.yul\":2048:2361   */\n    tag_31:\n        /* \"#utility.yul\":2161:2165   */\n      0x00\n        /* \"#utility.yul\":2199:2201   */\n      0x20\n        /* \"#utility.yul\":2188:2197   */\n      dup3\n        /* \"#utility.yul\":2184:2202   */\n      add\n        /* \"#utility.yul\":2176:2202   */\n      swap1\n      pop\n        /* \"#utility.yul\":2248:2257   */\n      dup2\n        /* \"#utility.yul\":2242:2246   */\n      dup2\n        /* \"#utility.yul\":2238:2258   */\n      sub\n        /* \"#utility.yul\":2234:2235   */\n      0x00\n        /* \"#utility.yul\":2223:2232   */\n      dup4\n        /* \"#utility.yul\":2219:2236   */\n      add\n        /* \"#utility.yul\":2212:2259   */\n      mstore\n        /* \"#utility.yul\":2276:2354   */\n      tag_294\n        /* \"#utility.yul\":2349:2353   */\n      dup2\n        /* \"#utility.yul\":2340:2346   */\n      dup5\n        /* \"#utility.yul\":2276:2354   */\n      tag_233\n      jump\t// in\n    tag_294:\n        /* \"#utility.yul\":2268:2354   */\n      swap1\n      pop\n        /* \"#utility.yul\":2048:2361   */\n      swap3\n      swap2\n      pop\n      pop\n      jump\t// out\n        /* \"#utility.yul\":2367:2493   */\n    tag_234:\n        /* \"#utility.yul\":2404:2411   */\n      0x00\n        /* \"#utility.yul\":2444:2486   */\n      0xffffffffffffffffffffffffffffffffffffffff\n        /* \"#utility.yul\":2437:2442   */\n      dup3\n        /* \"#utility.yul\":2433:2487   */\n      and\n        /* \"#utility.yul\":2422:2487   */\n      swap1\n      pop\n        /* \"#utility.yul\":2367:2493   */\n      swap2\n      swap1\n      pop\n      jump\t// out\n        /* \"#utility.yul\":2499:2595   */\n    tag_235:\n        /* \"#utility.yul\":2536:2543   */\n      0x00\n        /* \"#utility.yul\":2565:2589   */\n      tag_297\n        /* \"#utility.yul\":2583:2588   */\n      dup3\n        /* \"#utility.yul\":2565:2589   */\n      tag_234\n      jump\t// in\n    tag_297:\n        /* \"#utility.yul\":2554:2589   */\n      swap1\n      pop\n        /* \"#utility.yul\":2499:2595   */\n      swap2\n      swap1\n      pop\n      jump\t// out\n        /* \"#utility.yul\":2601:2723   */\n    tag_236:\n        /* \"#utility.yul\":2674:2698   */\n      tag_299\n        /* \"#utility.yul\":2692:2697   */\n      dup2\n        /* \"#utility.yul\":2674:2698   */\n      tag_235\n      jump\t// in\n    tag_299:\n        /* \"#utility.yul\":2667:2672   */\n      dup2\n        /* \"#utility.yul\":2664:2699   */\n      eq\n        /* \"#utility.yul\":2654:2717   */\n      tag_300\n      jumpi\n        /* \"#utility.yul\":2713:2714   */\n      0x00\n        /* \"#utility.yul\":2710:2711   */\n      dup1\n        /* \"#utility.yul\":2703:2715   */\n      revert\n        /* \"#utility.yul\":2654:2717   */\n    tag_300:\n        /* \"#utility.yul\":2601:2723   */\n      pop\n      jump\t// out\n        /* \"#utility.yul\":2729:2868   */\n    tag_237:\n        /* \"#utility.yul\":2775:2780   */\n      0x00\n        /* \"#utility.yul\":2813:2819   */\n      dup2\n        /* \"#utility.yul\":2800:2820   */\n      calldataload\n        /* \"#utility.yul\":2791:2820   */\n      swap1\n      pop\n        /* \"#utility.yul\":2829:2862   */\n      tag_302\n        /* \"#utility.yul\":2856:2861   */\n      dup2\n        /* \"#utility.yul\":2829:2862   */\n      tag_236\n      jump\t// in\n    tag_302:\n        /* \"#utility.yul\":2729:2868   */\n      swap3\n      swap2\n      pop\n      pop\n      jump\t// out\n        /* \"#utility.yul\":2874:3348   */\n    tag_37:\n        /* \"#utility.yul\":2942:2948   */\n      0x00\n        /* \"#utility.yul\":2950:2956   */\n      dup1\n        /* \"#utility.yul\":2999:3001   */\n      0x40\n        /* \"#utility.yul\":2987:2996   */\n      dup4\n        /* \"#utility.yul\":2978:2985   */\n      dup6\n        /* \"#utility.yul\":2974:2997   */\n      sub\n        /* \"#utility.yul\":2970:3002   */\n      slt\n        /* \"#utility.yul\":2967:3086   */\n      iszero\n      tag_304\n      jumpi\n        /* \"#utility.yul\":3005:3084   */\n      tag_305\n      tag_224\n      jump\t// in\n    tag_305:\n        /* \"#utility.yul\":2967:3086   */\n    tag_304:\n        /* \"#utility.yul\":3125:3126   */\n      0x00\n        /* \"#utility.yul\":3150:3203   */\n      tag_306\n        /* \"#utility.yul\":3195:3202   */\n      dup6\n        /* \"#utility.yul\":3186:3192   */\n      dup3\n        /* \"#utility.yul\":3175:3184   */\n      dup7\n        /* \"#utility.yul\":3171:3193   */\n      add\n        /* \"#utility.yul\":3150:3203   */\n      tag_237\n      jump\t// in\n    tag_306:\n        /* \"#utility.yul\":3140:3203   */\n      swap3\n      pop\n        /* \"#utility.yul\":3096:3213   */\n      pop\n        /* \"#utility.yul\":3252:3254   */\n      0x20\n        /* \"#utility.yul\":3278:3331   */\n      tag_307\n        /* \"#utility.yul\":3323:3330   */\n      dup6\n        /* \"#utility.yul\":3314:3320   */\n      dup3\n        /* \"#utility.yul\":3303:3312   */\n      dup7\n        /* \"#utility.yul\":3299:3321   */\n      add\n        /* \"#utility.yul\":3278:3331   */\n      tag_228\n      jump\t// in\n    tag_307:\n        /* \"#utility.yul\":3268:3331   */\n      swap2\n      pop\n        /* \"#utility.yul\":3223:3341   */\n      pop\n        /* \"#utility.yul\":2874:3348   */\n      swap3\n      pop\n      swap3\n      swap1\n      pop\n      jump\t// out\n        /* \"#utility.yul\":3354:3444   */\n    tag_238:\n        /* \"#utility.yul\":3388:3395   */\n      0x00\n        /* \"#utility.yul\":3431:3436   */\n      dup2\n        /* \"#utility.yul\":3424:3437   */\n      iszero\n        /* \"#utility.yul\":3417:3438   */\n      iszero\n        /* \"#utility.yul\":3406:3438   */\n      swap1\n      pop\n        /* \"#utility.yul\":3354:3444   */\n      swap2\n      swap1\n      pop\n      jump\t// out\n        /* \"#utility.yul\":3450:3559   */\n    tag_239:\n        /* \"#utility.yul\":3531:3552   */\n      tag_310\n        /* \"#utility.yul\":3546:3551   */\n      dup2\n        /* \"#utility.yul\":3531:3552   */\n      tag_238\n      jump\t// in\n    tag_310:\n        /* \"#utility.yul\":3526:3529   */\n      dup3\n        /* \"#utility.yul\":3519:3553   */\n      mstore\n        /* \"#utility.yul\":3450:3559   */\n      pop\n      pop\n      jump\t// out\n        /* \"#utility.yul\":3565:3775   */\n    tag_40:\n        /* \"#utility.yul\":3652:3656   */\n      0x00\n        /* \"#utility.yul\":3690:3692   */\n      0x20\n        /* \"#utility.yul\":3679:3688   */\n      dup3\n        /* \"#utility.yul\":3675:3693   */\n      add\n        /* \"#utility.yul\":3667:3693   */\n      swap1\n      pop\n        /* \"#utility.yul\":3703:3768   */\n      tag_312\n        /* \"#utility.yul\":3765:3766   */\n      0x00\n        /* \"#utility.yul\":3754:3763   */\n      dup4\n        /* \"#utility.yul\":3750:3767   */\n      add\n        /* \"#utility.yul\":3741:3747   */\n      dup5\n        /* \"#utility.yul\":3703:3768   */\n      tag_239\n      jump\t// in\n    tag_312:\n        /* \"#utility.yul\":3565:3775   */\n      swap3\n      swap2\n      pop\n      pop\n      jump\t// out\n        /* \"#utility.yul\":3781:3899   */\n    tag_240:\n        /* \"#utility.yul\":3868:3892   */\n      tag_314\n        /* \"#utility.yul\":3886:3891   */\n      dup2\n        /* \"#utility.yul\":3868:3892   */\n      tag_226\n      jump\t// in\n    tag_314:\n        /* \"#utility.yul\":3863:3866   */\n      dup3\n        /* \"#utility.yul\":3856:3893   */\n      mstore\n        /* \"#utility.yul\":3781:3899   */\n      pop\n      pop\n      jump\t// out\n        /* \"#utility.yul\":3905:4127   */\n    tag_44:\n        /* \"#utility.yul\":3998:4002   */\n      0x00\n        /* \"#utility.yul\":4036:4038   */\n      0x20\n        /* \"#utility.yul\":4025:4034   */\n      dup3\n        /* \"#utility.yul\":4021:4039   */\n      add\n        /* \"#utility.yul\":4013:4039   */\n      swap1\n      pop\n        /* \"#utility.yul\":4049:4120   */\n      tag_316\n        /* \"#utility.yul\":4117:4118   */\n      0x00\n        /* \"#utility.yul\":4106:4115   */\n      dup4\n        /* \"#utility.yul\":4102:4119   */\n      add\n        /* \"#utility.yul\":4093:4099   */\n      dup5\n        /* \"#utility.yul\":4049:4120   */\n      tag_240\n      jump\t// in\n    tag_316:\n        /* \"#utility.yul\":3905:4127   */\n      swap3\n      swap2\n      pop\n      pop\n      jump\t// out\n        /* \"#utility.yul\":4133:4752   */\n    tag_50:\n        /* \"#utility.yul\":4210:4216   */\n      0x00\n        /* \"#utility.yul\":4218:4224   */\n      dup1\n        /* \"#utility.yul\":4226:4232   */\n      0x00\n        /* \"#utility.yul\":4275:4277   */\n      0x60\n        /* \"#utility.yul\":4263:4272   */\n      dup5\n        /* \"#utility.yul\":4254:4261   */\n      dup7\n        /* \"#utility.yul\":4250:4273   */\n      sub\n        /* \"#utility.yul\":4246:4278   */\n      slt\n        /* \"#utility.yul\":4243:4362   */\n      iszero\n      tag_318\n      jumpi\n        /* \"#utility.yul\":4281:4360   */\n      tag_319\n      tag_224\n      jump\t// in\n    tag_319:\n        /* \"#utility.yul\":4243:4362   */\n    tag_318:\n        /* \"#utility.yul\":4401:4402   */\n      0x00\n        /* \"#utility.yul\":4426:4479   */\n      tag_320\n        /* \"#utility.yul\":4471:4478   */\n      dup7\n        /* \"#utility.yul\":4462:4468   */\n      dup3\n        /* \"#utility.yul\":4451:4460   */\n      dup8\n        /* \"#utility.yul\":4447:4469   */\n      add\n        /* \"#utility.yul\":4426:4479   */\n      tag_237\n      jump\t// in\n    tag_320:\n        /* \"#utility.yul\":4416:4479   */\n      swap4\n      pop\n        /* \"#utility.yul\":4372:4489   */\n      pop\n        /* \"#utility.yul\":4528:4530   */\n      0x20\n        /* \"#utility.yul\":4554:4607   */\n      tag_321\n        /* \"#utility.yul\":4599:4606   */\n      dup7\n        /* \"#utility.yul\":4590:4596   */\n      dup3\n        /* \"#utility.yul\":4579:4588   */\n      dup8\n        /* \"#utility.yul\":4575:4597   */\n      add\n        /* \"#utility.yul\":4554:4607   */\n      tag_237\n      jump\t// in\n    tag_321:\n        /* \"#utility.yul\":4544:4607   */\n      swap3\n      pop\n        /* \"#utility.yul\":4499:4617   */\n      pop\n        /* \"#utility.yul\":4656:4658   */\n      0x40\n        /* \"#utility.yul\":4682:4735   */\n      tag_322\n        /* \"#utility.yul\":4727:4734   */\n      dup7\n        /* \"#utility.yul\":4718:4724   */\n      dup3\n        /* \"#utility.yul\":4707:4716   */\n      dup8\n        /* \"#utility.yul\":4703:4725   */\n      add\n        /* \"#utility.yul\":4682:4735   */\n      tag_228\n      jump\t// in\n    tag_322:\n        /* \"#utility.yul\":4672:4735   */\n      swap2\n      pop\n        /* \"#utility.yul\":4627:4745   */\n      pop\n        /* \"#utility.yul\":4133:4752   */\n      swap3\n      pop\n      swap3\n      pop\n      swap3\n      jump\t// out\n        /* \"#utility.yul\":4758:4844   */\n    tag_241:\n        /* \"#utility.yul\":4793:4800   */\n      0x00\n        /* \"#utility.yul\":4833:4837   */\n      0xff\n        /* \"#utility.yul\":4826:4831   */\n      dup3\n        /* \"#utility.yul\":4822:4838   */\n      and\n        /* \"#utility.yul\":4811:4838   */\n      swap1\n      pop\n        /* \"#utility.yul\":4758:4844   */\n      swap2\n      swap1\n      pop\n      jump\t// out\n        /* \"#utility.yul\":4850:4962   */\n    tag_242:\n        /* \"#utility.yul\":4933:4955   */\n      tag_325\n        /* \"#utility.yul\":4949:4954   */\n      dup2\n        /* \"#utility.yul\":4933:4955   */\n      tag_241\n      jump\t// in\n    tag_325:\n        /* \"#utility.yul\":4928:4931   */\n      dup3\n        /* \"#utility.yul\":4921:4956   */\n      mstore\n        /* \"#utility.yul\":4850:4962   */\n      pop\n      pop\n      jump\t// out\n        /* \"#utility.yul\":4968:5182   */\n    tag_60:\n        /* \"#utility.yul\":5057:5061   */\n      0x00\n        /* \"#utility.yul\":5095:5097   */\n      0x20\n        /* \"#utility.yul\":5084:5093   */\n      dup3\n        /* \"#utility.yul\":5080:5098   */\n      add\n        /* \"#utility.yul\":5072:5098   */\n      swap1\n      pop\n        /* \"#utility.yul\":5108:5175   */\n      tag_327\n        /* \"#utility.yul\":5172:5173   */\n      0x00\n        /* \"#utility.yul\":5161:5170   */\n      dup4\n        /* \"#utility.yul\":5157:5174   */\n      add\n        /* \"#utility.yul\":5148:5154   */\n      dup5\n        /* \"#utility.yul\":5108:5175   */\n      tag_242\n      jump\t// in\n    tag_327:\n        /* \"#utility.yul\":4968:5182   */\n      swap3\n      swap2\n      pop\n      pop\n      jump\t// out\n        /* \"#utility.yul\":5188:5517   */\n    tag_67:\n        /* \"#utility.yul\":5247:5253   */\n      0x00\n        /* \"#utility.yul\":5296:5298   */\n      0x20\n        /* \"#utility.yul\":5284:5293   */\n      dup3\n        /* \"#utility.yul\":5275:5282   */\n      dup5\n        /* \"#utility.yul\":5271:5294   */\n      sub\n        /* \"#utility.yul\":5267:5299   */\n      slt\n        /* \"#utility.yul\":5264:5383   */\n      iszero\n      tag_329\n      jumpi\n        /* \"#utility.yul\":5302:5381   */\n      tag_330\n      tag_224\n      jump\t// in\n    tag_330:\n        /* \"#utility.yul\":5264:5383   */\n    tag_329:\n        /* \"#utility.yul\":5422:5423   */\n      0x00\n        /* \"#utility.yul\":5447:5500   */\n      tag_331\n        /* \"#utility.yul\":5492:5499   */\n      dup5\n        /* \"#utility.yul\":5483:5489   */\n      dup3\n        /* \"#utility.yul\":5472:5481   */\n      dup6\n        /* \"#utility.yul\":5468:5490   */\n      add\n        /* \"#utility.yul\":5447:5500   */\n      tag_237\n      jump\t// in\n    tag_331:\n        /* \"#utility.yul\":5437:5500   */\n      swap2\n      pop\n        /* \"#utility.yul\":5393:5510   */\n      pop\n        /* \"#utility.yul\":5188:5517   */\n      swap3\n      swap2\n      pop\n      pop\n      jump\t// out\n        /* \"#utility.yul\":5523:5997   */\n    tag_103:\n        /* \"#utility.yul\":5591:5597   */\n      0x00\n        /* \"#utility.yul\":5599:5605   */\n      dup1\n        /* \"#utility.yul\":5648:5650   */\n      0x40\n        /* \"#utility.yul\":5636:5645   */\n      dup4\n        /* \"#utility.yul\":5627:5634   */\n      dup6\n        /* \"#utility.yul\":5623:5646   */\n      sub\n        /* \"#utility.yul\":5619:5651   */\n      slt\n        /* \"#utility.yul\":5616:5735   */\n      iszero\n      tag_333\n      jumpi\n        /* \"#utility.yul\":5654:5733   */\n      tag_334\n      tag_224\n      jump\t// in\n    tag_334:\n        /* \"#utility.yul\":5616:5735   */\n    tag_333:\n        /* \"#utility.yul\":5774:5775   */\n      0x00\n        /* \"#utility.yul\":5799:5852   */\n      tag_335\n        /* \"#utility.yul\":5844:5851   */\n      dup6\n        /* \"#utility.yul\":5835:5841   */\n      dup3\n        /* \"#utility.yul\":5824:5833   */\n      dup7\n        /* \"#utility.yul\":5820:5842   */\n      add\n        /* \"#utility.yul\":5799:5852   */\n      tag_237\n      jump\t// in\n    tag_335:\n        /* \"#utility.yul\":5789:5852   */\n      swap3\n      pop\n        /* \"#utility.yul\":5745:5862   */\n      pop\n        /* \"#utility.yul\":5901:5903   */\n      0x20\n        /* \"#utility.yul\":5927:5980   */\n      tag_336\n        /* \"#utility.yul\":5972:5979   */\n      dup6\n        /* \"#utility.yul\":5963:5969   */\n      dup3\n        /* \"#utility.yul\":5952:5961   */\n      dup7\n        /* \"#utility.yul\":5948:5970   */\n      add\n        /* \"#utility.yul\":5927:5980   */\n      tag_237\n      jump\t// in\n    tag_336:\n        /* \"#utility.yul\":5917:5980   */\n      swap2\n      pop\n        /* \"#utility.yul\":5872:5990   */\n      pop\n        /* \"#utility.yul\":5523:5997   */\n      swap3\n      pop\n      swap3\n      swap1\n      pop\n      jump\t// out\n        /* \"#utility.yul\":6003:6183   */\n    tag_243:\n        /* \"#utility.yul\":6051:6128   */\n      0x4e487b7100000000000000000000000000000000000000000000000000000000\n        /* \"#utility.yul\":6048:6049   */\n      0x00\n        /* \"#utility.yul\":6041:6129   */\n      mstore\n        /* \"#utility.yul\":6148:6152   */\n      0x22\n        /* \"#utility.yul\":6145:6146   */\n      0x04\n        /* \"#utility.yul\":6138:6153   */\n      mstore\n        /* \"#utility.yul\":6172:6176   */\n      0x24\n        /* \"#utility.yul\":6169:6170   */\n      0x00\n        /* \"#utility.yul\":6162:6177   */\n      revert\n        /* \"#utility.yul\":6189:6509   */\n    tag_107:\n        /* \"#utility.yul\":6233:6239   */\n      0x00\n        /* \"#utility.yul\":6270:6271   */\n      0x02\n        /* \"#utility.yul\":6264:6268   */\n      dup3\n        /* \"#utility.yul\":6260:6272   */\n      div\n        /* \"#utility.yul\":6250:6272   */\n      swap1\n      pop\n        /* \"#utility.yul\":6317:6318   */\n      0x01\n        /* \"#utility.yul\":6311:6315   */\n      dup3\n        /* \"#utility.yul\":6307:6319   */\n      and\n        /* \"#utility.yul\":6338:6356   */\n      dup1\n        /* \"#utility.yul\":6328:6409   */\n      tag_339\n      jumpi\n        /* \"#utility.yul\":6394:6398   */\n      0x7f\n        /* \"#utility.yul\":6386:6392   */\n      dup3\n        /* \"#utility.yul\":6382:6399   */\n      and\n        /* \"#utility.yul\":6372:6399   */\n      swap2\n      pop\n        /* \"#utility.yul\":6328:6409   */\n    tag_339:\n        /* \"#utility.yul\":6456:6458   */\n      0x20\n        /* \"#utility.yul\":6448:6454   */\n      dup3\n        /* \"#utility.yul\":6445:6459   */\n      lt\n        /* \"#utility.yul\":6425:6443   */\n      dup2\n        /* \"#utility.yul\":6422:6460   */\n      sub\n        /* \"#utility.yul\":6419:6503   */\n      tag_340\n      jumpi\n        /* \"#utility.yul\":6475:6493   */\n      tag_341\n      tag_243\n      jump\t// in\n    tag_341:\n        /* \"#utility.yul\":6419:6503   */\n    tag_340:\n        /* \"#utility.yul\":6240:6509   */\n      pop\n        /* \"#utility.yul\":6189:6509   */\n      swap2\n      swap1\n      pop\n      jump\t// out\n        /* \"#utility.yul\":6515:6695   */\n    tag_244:\n        /* \"#utility.yul\":6563:6640   */\n      0x4e487b7100000000000000000000000000000000000000000000000000000000\n        /* \"#utility.yul\":6560:6561   */\n      0x00\n        /* \"#utility.yul\":6553:6641   */\n      mstore\n        /* \"#utility.yul\":6660:6664   */\n      0x11\n        /* \"#utility.yul\":6657:6658   */\n      0x04\n        /* \"#utility.yul\":6650:6665   */\n      mstore\n        /* \"#utility.yul\":6684:6688   */\n      0x24\n        /* \"#utility.yul\":6681:6682   */\n      0x00\n        /* \"#utility.yul\":6674:6689   */\n      revert\n        /* \"#utility.yul\":6701:6892   */\n    tag_143:\n        /* \"#utility.yul\":6741:6744   */\n      0x00\n        /* \"#utility.yul\":6760:6780   */\n      tag_344\n        /* \"#utility.yul\":6778:6779   */\n      dup3\n        /* \"#utility.yul\":6760:6780   */\n      tag_226\n      jump\t// in\n    tag_344:\n        /* \"#utility.yul\":6755:6780   */\n      swap2\n      pop\n        /* \"#utility.yul\":6794:6814   */\n      tag_345\n        /* \"#utility.yul\":6812:6813   */\n      dup4\n        /* \"#utility.yul\":6794:6814   */\n      tag_226\n      jump\t// in\n    tag_345:\n        /* \"#utility.yul\":6789:6814   */\n      swap3\n      pop\n        /* \"#utility.yul\":6837:6838   */\n      dup3\n        /* \"#utility.yul\":6834:6835   */\n      dup3\n        /* \"#utility.yul\":6830:6839   */\n      add\n        /* \"#utility.yul\":6823:6839   */\n      swap1\n      pop\n        /* \"#utility.yul\":6858:6861   */\n      dup1\n        /* \"#utility.yul\":6855:6856   */\n      dup3\n        /* \"#utility.yul\":6852:6862   */\n      gt\n        /* \"#utility.yul\":6849:6885   */\n      iszero\n      tag_346\n      jumpi\n        /* \"#utility.yul\":6865:6883   */\n      tag_347\n      tag_244\n      jump\t// in\n    tag_347:\n        /* \"#utility.yul\":6849:6885   */\n    tag_346:\n        /* \"#utility.yul\":6701:6892   */\n      swap3\n      swap2\n      pop\n      pop\n      jump\t// out\n        /* \"#utility.yul\":6898:7078   */\n    tag_245:\n        /* \"#utility.yul\":7038:7070   */\n      0x4163636f756e7420697320616c726561647920626c61636b6c69737465640000\n        /* \"#utility.yul\":7034:7035   */\n      0x00\n        /* \"#utility.yul\":7026:7032   */\n      dup3\n        /* \"#utility.yul\":7022:7036   */\n      add\n        /* \"#utility.yul\":7015:7071   */\n      mstore\n        /* \"#utility.yul\":6898:7078   */\n      pop\n      jump\t// out\n        /* \"#utility.yul\":7084:7450   */\n    tag_246:\n        /* \"#utility.yul\":7226:7229   */\n      0x00\n        /* \"#utility.yul\":7247:7314   */\n      tag_350\n        /* \"#utility.yul\":7311:7313   */\n      0x1e\n        /* \"#utility.yul\":7306:7309   */\n      dup4\n        /* \"#utility.yul\":7247:7314   */\n      tag_230\n      jump\t// in\n    tag_350:\n        /* \"#utility.yul\":7240:7314   */\n      swap2\n      pop\n        /* \"#utility.yul\":7323:7416   */\n      tag_351\n        /* \"#utility.yul\":7412:7415   */\n      dup3\n        /* \"#utility.yul\":7323:7416   */\n      tag_245\n      jump\t// in\n    tag_351:\n        /* \"#utility.yul\":7441:7443   */\n      0x20\n        /* \"#utility.yul\":7436:7439   */\n      dup3\n        /* \"#utility.yul\":7432:7444   */\n      add\n        /* \"#utility.yul\":7425:7444   */\n      swap1\n      pop\n        /* \"#utility.yul\":7084:7450   */\n      swap2\n      swap1\n      pop\n      jump\t// out\n        /* \"#utility.yul\":7456:7875   */\n    tag_147:\n        /* \"#utility.yul\":7622:7626   */\n      0x00\n        /* \"#utility.yul\":7660:7662   */\n      0x20\n        /* \"#utility.yul\":7649:7658   */\n      dup3\n        /* \"#utility.yul\":7645:7663   */\n      add\n        /* \"#utility.yul\":7637:7663   */\n      swap1\n      pop\n        /* \"#utility.yul\":7709:7718   */\n      dup2\n        /* \"#utility.yul\":7703:7707   */\n      dup2\n        /* \"#utility.yul\":7699:7719   */\n      sub\n        /* \"#utility.yul\":7695:7696   */\n      0x00\n        /* \"#utility.yul\":7684:7693   */\n      dup4\n        /* \"#utility.yul\":7680:7697   */\n      add\n        /* \"#utility.yul\":7673:7720   */\n      mstore\n        /* \"#utility.yul\":7737:7868   */\n      tag_353\n        /* \"#utility.yul\":7863:7867   */\n      dup2\n        /* \"#utility.yul\":7737:7868   */\n      tag_246\n      jump\t// in\n    tag_353:\n        /* \"#utility.yul\":7729:7868   */\n      swap1\n      pop\n        /* \"#utility.yul\":7456:7875   */\n      swap2\n      swap1\n      pop\n      jump\t// out\n        /* \"#utility.yul\":7881:8057   */\n    tag_247:\n        /* \"#utility.yul\":8021:8049   */\n      0x4163636f756e74206973206e6f7420626c61636b6c6973746564000000000000\n        /* \"#utility.yul\":8017:8018   */\n      0x00\n        /* \"#utility.yul\":8009:8015   */\n      dup3\n        /* \"#utility.yul\":8005:8019   */\n      add\n        /* \"#utility.yul\":7998:8050   */\n      mstore\n        /* \"#utility.yul\":7881:8057   */\n      pop\n      jump\t// out\n        /* \"#utility.yul\":8063:8429   */\n    tag_248:\n        /* \"#utility.yul\":8205:8208   */\n      0x00\n        /* \"#utility.yul\":8226:8293   */\n      tag_356\n        /* \"#utility.yul\":8290:8292   */\n      0x1a\n        /* \"#utility.yul\":8285:8288   */\n      dup4\n        /* \"#utility.yul\":8226:8293   */\n      tag_230\n      jump\t// in\n    tag_356:\n        /* \"#utility.yul\":8219:8293   */\n      swap2\n      pop\n        /* \"#utility.yul\":8302:8395   */\n      tag_357\n        /* \"#utility.yul\":8391:8394   */\n      dup3\n        /* \"#utility.yul\":8302:8395   */\n      tag_247\n      jump\t// in\n    tag_357:\n        /* \"#utility.yul\":8420:8422   */\n      0x20\n        /* \"#utility.yul\":8415:8418   */\n      dup3\n        /* \"#utility.yul\":8411:8423   */\n      add\n        /* \"#utility.yul\":8404:8423   */\n      swap1\n      pop\n        /* \"#utility.yul\":8063:8429   */\n      swap2\n      swap1\n      pop\n      jump\t// out\n        /* \"#utility.yul\":8435:8854   */\n    tag_151:\n        /* \"#utility.yul\":8601:8605   */\n      0x00\n        /* \"#utility.yul\":8639:8641   */\n      0x20\n        /* \"#utility.yul\":8628:8637   */\n      dup3\n        /* \"#utility.yul\":8624:8642   */\n      add\n        /* \"#utility.yul\":8616:8642   */\n      swap1\n      pop\n        /* \"#utility.yul\":8688:8697   */\n      dup2\n        /* \"#utility.yul\":8682:8686   */\n      dup2\n        /* \"#utility.yul\":8678:8698   */\n      sub\n        /* \"#utility.yul\":8674:8675   */\n      0x00\n        /* \"#utility.yul\":8663:8672   */\n      dup4\n        /* \"#utility.yul\":8659:8676   */\n      add\n        /* \"#utility.yul\":8652:8699   */\n      mstore\n        /* \"#utility.yul\":8716:8847   */\n      tag_359\n        /* \"#utility.yul\":8842:8846   */\n      dup2\n        /* \"#utility.yul\":8716:8847   */\n      tag_248\n      jump\t// in\n    tag_359:\n        /* \"#utility.yul\":8708:8847   */\n      swap1\n      pop\n        /* \"#utility.yul\":8435:8854   */\n      swap2\n      swap1\n      pop\n      jump\t// out\n        /* \"#utility.yul\":8860:9084   */\n    tag_249:\n        /* \"#utility.yul\":9000:9034   */\n      0x45524332303a2064656372656173656420616c6c6f77616e63652062656c6f77\n        /* \"#utility.yul\":8996:8997   */\n      0x00\n        /* \"#utility.yul\":8988:8994   */\n      dup3\n        /* \"#utility.yul\":8984:8998   */\n      add\n        /* \"#utility.yul\":8977:9035   */\n      mstore\n        /* \"#utility.yul\":9069:9076   */\n      0x207a65726f000000000000000000000000000000000000000000000000000000\n        /* \"#utility.yul\":9064:9066   */\n      0x20\n        /* \"#utility.yul\":9056:9062   */\n      dup3\n        /* \"#utility.yul\":9052:9067   */\n      add\n        /* \"#utility.yul\":9045:9077   */\n      mstore\n        /* \"#utility.yul\":8860:9084   */\n      pop\n      jump\t// out\n        /* \"#utility.yul\":9090:9456   */\n    tag_250:\n        /* \"#utility.yul\":9232:9235   */\n      0x00\n        /* \"#utility.yul\":9253:9320   */\n      tag_362\n        /* \"#utility.yul\":9317:9319   */\n      0x25\n        /* \"#utility.yul\":9312:9315   */\n      dup4\n        /* \"#utility.yul\":9253:9320   */\n      tag_230\n      jump\t// in\n    tag_362:\n        /* \"#utility.yul\":9246:9320   */\n      swap2\n      pop\n        /* \"#utility.yul\":9329:9422   */\n      tag_363\n        /* \"#utility.yul\":9418:9421   */\n      dup3\n        /* \"#utility.yul\":9329:9422   */\n      tag_249\n      jump\t// in\n    tag_363:\n        /* \"#utility.yul\":9447:9449   */\n      0x40\n        /* \"#utility.yul\":9442:9445   */\n      dup3\n        /* \"#utility.yul\":9438:9450   */\n      add\n        /* \"#utility.yul\":9431:9450   */\n      swap1\n      pop\n        /* \"#utility.yul\":9090:9456   */\n      swap2\n      swap1\n      pop\n      jump\t// out\n        /* \"#utility.yul\":9462:9881   */\n    tag_170:\n        /* \"#utility.yul\":9628:9632   */\n      0x00\n        /* \"#utility.yul\":9666:9668   */\n      0x20\n        /* \"#utility.yul\":9655:9664   */\n      dup3\n        /* \"#utility.yul\":9651:9669   */\n      add\n        /* \"#utility.yul\":9643:9669   */\n      swap1\n      pop\n        /* \"#utility.yul\":9715:9724   */\n      dup2\n        /* \"#utility.yul\":9709:9713   */\n      dup2\n        /* \"#utility.yul\":9705:9725   */\n      sub\n        /* \"#utility.yul\":9701:9702   */\n      0x00\n        /* \"#utility.yul\":9690:9699   */\n      dup4\n        /* \"#utility.yul\":9686:9703   */\n      add\n        /* \"#utility.yul\":9679:9726   */\n      mstore\n        /* \"#utility.yul\":9743:9874   */\n      tag_365\n        /* \"#utility.yul\":9869:9873   */\n      dup2\n        /* \"#utility.yul\":9743:9874   */\n      tag_250\n      jump\t// in\n    tag_365:\n        /* \"#utility.yul\":9735:9874   */\n      swap1\n      pop\n        /* \"#utility.yul\":9462:9881   */\n      swap2\n      swap1\n      pop\n      jump\t// out\n        /* \"#utility.yul\":9887:10058   */\n    tag_251:\n        /* \"#utility.yul\":10027:10050   */\n      0x53656e64657220697320626c61636b6c69737465640000000000000000000000\n        /* \"#utility.yul\":10023:10024   */\n      0x00\n        /* \"#utility.yul\":10015:10021   */\n      dup3\n        /* \"#utility.yul\":10011:10025   */\n      add\n        /* \"#utility.yul\":10004:10051   */\n      mstore\n        /* \"#utility.yul\":9887:10058   */\n      pop\n      jump\t// out\n        /* \"#utility.yul\":10064:10430   */\n    tag_252:\n        /* \"#utility.yul\":10206:10209   */\n      0x00\n        /* \"#utility.yul\":10227:10294   */\n      tag_368\n        /* \"#utility.yul\":10291:10293   */\n      0x15\n        /* \"#utility.yul\":10286:10289   */\n      dup4\n        /* \"#utility.yul\":10227:10294   */\n      tag_230\n      jump\t// in\n    tag_368:\n        /* \"#utility.yul\":10220:10294   */\n      swap2\n      pop\n        /* \"#utility.yul\":10303:10396   */\n      tag_369\n        /* \"#utility.yul\":10392:10395   */\n      dup3\n        /* \"#utility.yul\":10303:10396   */\n      tag_251\n      jump\t// in\n    tag_369:\n        /* \"#utility.yul\":10421:10423   */\n      0x20\n        /* \"#utility.yul\":10416:10419   */\n      dup3\n        /* \"#utility.yul\":10412:10424   */\n      add\n        /* \"#utility.yul\":10405:10424   */\n      swap1\n      pop\n        /* \"#utility.yul\":10064:10430   */\n      swap2\n      swap1\n      pop\n      jump\t// out\n        /* \"#utility.yul\":10436:10855   */\n    tag_178:\n        /* \"#utility.yul\":10602:10606   */\n      0x00\n        /* \"#utility.yul\":10640:10642   */\n      0x20\n        /* \"#utility.yul\":10629:10638   */\n      dup3\n        /* \"#utility.yul\":10625:10643   */\n      add\n        /* \"#utility.yul\":10617:10643   */\n      swap1\n      pop\n        /* \"#utility.yul\":10689:10698   */\n      dup2\n        /* \"#utility.yul\":10683:10687   */\n      dup2\n        /* \"#utility.yul\":10679:10699   */\n      sub\n        /* \"#utility.yul\":10675:10676   */\n      0x00\n        /* \"#utility.yul\":10664:10673   */\n      dup4\n        /* \"#utility.yul\":10660:10677   */\n      add\n        /* \"#utility.yul\":10653:10700   */\n      mstore\n        /* \"#utility.yul\":10717:10848   */\n      tag_371\n        /* \"#utility.yul\":10843:10847   */\n      dup2\n        /* \"#utility.yul\":10717:10848   */\n      tag_252\n      jump\t// in\n    tag_371:\n        /* \"#utility.yul\":10709:10848   */\n      swap1\n      pop\n        /* \"#utility.yul\":10436:10855   */\n      swap2\n      swap1\n      pop\n      jump\t// out\n        /* \"#utility.yul\":10861:11035   */\n    tag_253:\n        /* \"#utility.yul\":11001:11027   */\n      0x526563697069656e7420697320626c61636b6c69737465640000000000000000\n        /* \"#utility.yul\":10997:10998   */\n      0x00\n        /* \"#utility.yul\":10989:10995   */\n      dup3\n        /* \"#utility.yul\":10985:10999   */\n      add\n        /* \"#utility.yul\":10978:11028   */\n      mstore\n        /* \"#utility.yul\":10861:11035   */\n      pop\n      jump\t// out\n        /* \"#utility.yul\":11041:11407   */\n    tag_254:\n        /* \"#utility.yul\":11183:11186   */\n      0x00\n        /* \"#utility.yul\":11204:11271   */\n      tag_374\n        /* \"#utility.yul\":11268:11270   */\n      0x18\n        /* \"#utility.yul\":11263:11266   */\n      dup4\n        /* \"#utility.yul\":11204:11271   */\n      tag_230\n      jump\t// in\n    tag_374:\n        /* \"#utility.yul\":11197:11271   */\n      swap2\n      pop\n        /* \"#utility.yul\":11280:11373   */\n      tag_375\n        /* \"#utility.yul\":11369:11372   */\n      dup3\n        /* \"#utility.yul\":11280:11373   */\n      tag_253\n      jump\t// in\n    tag_375:\n        /* \"#utility.yul\":11398:11400   */\n      0x20\n        /* \"#utility.yul\":11393:11396   */\n      dup3\n        /* \"#utility.yul\":11389:11401   */\n      add\n        /* \"#utility.yul\":11382:11401   */\n      swap1\n      pop\n        /* \"#utility.yul\":11041:11407   */\n      swap2\n      swap1\n      pop\n      jump\t// out\n        /* \"#utility.yul\":11413:11832   */\n    tag_181:\n        /* \"#utility.yul\":11579:11583   */\n      0x00\n        /* \"#utility.yul\":11617:11619   */\n      0x20\n        /* \"#utility.yul\":11606:11615   */\n      dup3\n        /* \"#utility.yul\":11602:11620   */\n      add\n        /* \"#utility.yul\":11594:11620   */\n      swap1\n      pop\n        /* \"#utility.yul\":11666:11675   */\n      dup2\n        /* \"#utility.yul\":11660:11664   */\n      dup2\n        /* \"#utility.yul\":11656:11676   */\n      sub\n        /* \"#utility.yul\":11652:11653   */\n      0x00\n        /* \"#utility.yul\":11641:11650   */\n      dup4\n        /* \"#utility.yul\":11637:11654   */\n      add\n        /* \"#utility.yul\":11630:11677   */\n      mstore\n        /* \"#utility.yul\":11694:11825   */\n      tag_377\n        /* \"#utility.yul\":11820:11824   */\n      dup2\n        /* \"#utility.yul\":11694:11825   */\n      tag_254\n      jump\t// in\n    tag_377:\n        /* \"#utility.yul\":11686:11825   */\n      swap1\n      pop\n        /* \"#utility.yul\":11413:11832   */\n      swap2\n      swap1\n      pop\n      jump\t// out\n        /* \"#utility.yul\":11838:12061   */\n    tag_255:\n        /* \"#utility.yul\":11978:12012   */\n      0x45524332303a20617070726f76652066726f6d20746865207a65726f20616464\n        /* \"#utility.yul\":11974:11975   */\n      0x00\n        /* \"#utility.yul\":11966:11972   */\n      dup3\n        /* \"#utility.yul\":11962:11976   */\n      add\n        /* \"#utility.yul\":11955:12013   */\n      mstore\n        /* \"#utility.yul\":12047:12053   */\n      0x7265737300000000000000000000000000000000000000000000000000000000\n        /* \"#utility.yul\":12042:12044   */\n      0x20\n        /* \"#utility.yul\":12034:12040   */\n      dup3\n        /* \"#utility.yul\":12030:12045   */\n      add\n        /* \"#utility.yul\":12023:12054   */\n      mstore\n        /* \"#utility.yul\":11838:12061   */\n      pop\n      jump\t// out\n        /* \"#utility.yul\":12067:12433   */\n    tag_256:\n        /* \"#utility.yul\":12209:12212   */\n      0x00\n        /* \"#utility.yul\":12230:12297   */\n      tag_380\n        /* \"#utility.yul\":12294:12296   */\n      0x24\n        /* \"#utility.yul\":12289:12292   */\n      dup4\n        /* \"#utility.yul\":12230:12297   */\n      tag_230\n      jump\t// in\n    tag_380:\n        /* \"#utility.yul\":12223:12297   */\n      swap2\n      pop\n        /* \"#utility.yul\":12306:12399   */\n      tag_381\n        /* \"#utility.yul\":12395:12398   */\n      dup3\n        /* \"#utility.yul\":12306:12399   */\n      tag_255\n      jump\t// in\n    tag_381:\n        /* \"#utility.yul\":12424:12426   */\n      0x40\n        /* \"#utility.yul\":12419:12422   */\n      dup3\n        /* \"#utility.yul\":12415:12427   */\n      add\n        /* \"#utility.yul\":12408:12427   */\n      swap1\n      pop\n        /* \"#utility.yul\":12067:12433   */\n      swap2\n      swap1\n      pop\n      jump\t// out\n        /* \"#utility.yul\":12439:12858   */\n    tag_194:\n        /* \"#utility.yul\":12605:12609   */\n      0x00\n        /* \"#utility.yul\":12643:12645   */\n      0x20\n        /* \"#utility.yul\":12632:12641   */\n      dup3\n        /* \"#utility.yul\":12628:12646   */\n      add\n        /* \"#utility.yul\":12620:12646   */\n      swap1\n      pop\n        /* \"#utility.yul\":12692:12701   */\n      dup2\n        /* \"#utility.yul\":12686:12690   */\n      dup2\n        /* \"#utility.yul\":12682:12702   */\n      sub\n        /* \"#utility.yul\":12678:12679   */\n      0x00\n        /* \"#utility.yul\":12667:12676   */\n      dup4\n        /* \"#utility.yul\":12663:12680   */\n      add\n        /* \"#utility.yul\":12656:12703   */\n      mstore\n        /* \"#utility.yul\":12720:12851   */\n      tag_383\n        /* \"#utility.yul\":12846:12850   */\n      dup2\n        /* \"#utility.yul\":12720:12851   */\n      tag_256\n      jump\t// in\n    tag_383:\n        /* \"#utility.yul\":12712:12851   */\n      swap1\n      pop\n        /* \"#utility.yul\":12439:12858   */\n      swap2\n      swap1\n      pop\n      jump\t// out\n        /* \"#utility.yul\":12864:13085   */\n    tag_257:\n        /* \"#utility.yul\":13004:13038   */\n      0x45524332303a20617070726f766520746f20746865207a65726f206164647265\n        /* \"#utility.yul\":13000:13001   */\n      0x00\n        /* \"#utility.yul\":12992:12998   */\n      dup3\n        /* \"#utility.yul\":12988:13002   */\n      add\n        /* \"#utility.yul\":12981:13039   */\n      mstore\n        /* \"#utility.yul\":13073:13077   */\n      0x7373000000000000000000000000000000000000000000000000000000000000\n        /* \"#utility.yul\":13068:13070   */\n      0x20\n        /* \"#utility.yul\":13060:13066   */\n      dup3\n        /* \"#utility.yul\":13056:13071   */\n      add\n        /* \"#utility.yul\":13049:13078   */\n      mstore\n        /* \"#utility.yul\":12864:13085   */\n      pop\n      jump\t// out\n        /* \"#utility.yul\":13091:13457   */\n    tag_258:\n        /* \"#utility.yul\":13233:13236   */\n      0x00\n        /* \"#utility.yul\":13254:13321   */\n      tag_386\n        /* \"#utility.yul\":13318:13320   */\n      0x22\n        /* \"#utility.yul\":13313:13316   */\n      dup4\n        /* \"#utility.yul\":13254:13321   */\n      tag_230\n      jump\t// in\n    tag_386:\n        /* \"#utility.yul\":13247:13321   */\n      swap2\n      pop\n        /* \"#utility.yul\":13330:13423   */\n      tag_387\n        /* \"#utility.yul\":13419:13422   */\n      dup3\n        /* \"#utility.yul\":13330:13423   */\n      tag_257\n      jump\t// in\n    tag_387:\n        /* \"#utility.yul\":13448:13450   */\n      0x40\n        /* \"#utility.yul\":13443:13446   */\n      dup3\n        /* \"#utility.yul\":13439:13451   */\n      add\n        /* \"#utility.yul\":13432:13451   */\n      swap1\n      pop\n        /* \"#utility.yul\":13091:13457   */\n      swap2\n      swap1\n      pop\n      jump\t// out\n        /* \"#utility.yul\":13463:13882   */\n    tag_197:\n        /* \"#utility.yul\":13629:13633   */\n      0x00\n        /* \"#utility.yul\":13667:13669   */\n      0x20\n        /* \"#utility.yul\":13656:13665   */\n      dup3\n        /* \"#utility.yul\":13652:13670   */\n      add\n        /* \"#utility.yul\":13644:13670   */\n      swap1\n      pop\n        /* \"#utility.yul\":13716:13725   */\n      dup2\n        /* \"#utility.yul\":13710:13714   */\n      dup2\n        /* \"#utility.yul\":13706:13726   */\n      sub\n        /* \"#utility.yul\":13702:13703   */\n      0x00\n        /* \"#utility.yul\":13691:13700   */\n      dup4\n        /* \"#utility.yul\":13687:13704   */\n      add\n        /* \"#utility.yul\":13680:13727   */\n      mstore\n        /* \"#utility.yul\":13744:13875   */\n      tag_389\n        /* \"#utility.yul\":13870:13874   */\n      dup2\n        /* \"#utility.yul\":13744:13875   */\n      tag_258\n      jump\t// in\n    tag_389:\n        /* \"#utility.yul\":13736:13875   */\n      swap1\n      pop\n        /* \"#utility.yul\":13463:13882   */\n      swap2\n      swap1\n      pop\n      jump\t// out\n        /* \"#utility.yul\":13888:14067   */\n    tag_259:\n        /* \"#utility.yul\":14028:14059   */\n      0x45524332303a20696e73756666696369656e7420616c6c6f77616e6365000000\n        /* \"#utility.yul\":14024:14025   */\n      0x00\n        /* \"#utility.yul\":14016:14022   */\n      dup3\n        /* \"#utility.yul\":14012:14026   */\n      add\n        /* \"#utility.yul\":14005:14060   */\n      mstore\n        /* \"#utility.yul\":13888:14067   */\n      pop\n      jump\t// out\n        /* \"#utility.yul\":14073:14439   */\n    tag_260:\n        /* \"#utility.yul\":14215:14218   */\n      0x00\n        /* \"#utility.yul\":14236:14303   */\n      tag_392\n        /* \"#utility.yul\":14300:14302   */\n      0x1d\n        /* \"#utility.yul\":14295:14298   */\n      dup4\n        /* \"#utility.yul\":14236:14303   */\n      tag_230\n      jump\t// in\n    tag_392:\n        /* \"#utility.yul\":14229:14303   */\n      swap2\n      pop\n        /* \"#utility.yul\":14312:14405   */\n      tag_393\n        /* \"#utility.yul\":14401:14404   */\n      dup3\n        /* \"#utility.yul\":14312:14405   */\n      tag_259\n      jump\t// in\n    tag_393:\n        /* \"#utility.yul\":14430:14432   */\n      0x20\n        /* \"#utility.yul\":14425:14428   */\n      dup3\n        /* \"#utility.yul\":14421:14433   */\n      add\n        /* \"#utility.yul\":14414:14433   */\n      swap1\n      pop\n        /* \"#utility.yul\":14073:14439   */\n      swap2\n      swap1\n      pop\n      jump\t// out\n        /* \"#utility.yul\":14445:14864   */\n    tag_204:\n        /* \"#utility.yul\":14611:14615   */\n      0x00\n        /* \"#utility.yul\":14649:14651   */\n      0x20\n        /* \"#utility.yul\":14638:14647   */\n      dup3\n        /* \"#utility.yul\":14634:14652   */\n      add\n        /* \"#utility.yul\":14626:14652   */\n      swap1\n      pop\n        /* \"#utility.yul\":14698:14707   */\n      dup2\n        /* \"#utility.yul\":14692:14696   */\n      dup2\n        /* \"#utility.yul\":14688:14708   */\n      sub\n        /* \"#utility.yul\":14684:14685   */\n      0x00\n        /* \"#utility.yul\":14673:14682   */\n      dup4\n        /* \"#utility.yul\":14669:14686   */\n      add\n        /* \"#utility.yul\":14662:14709   */\n      mstore\n        /* \"#utility.yul\":14726:14857   */\n      tag_395\n        /* \"#utility.yul\":14852:14856   */\n      dup2\n        /* \"#utility.yul\":14726:14857   */\n      tag_260\n      jump\t// in\n    tag_395:\n        /* \"#utility.yul\":14718:14857   */\n      swap1\n      pop\n        /* \"#utility.yul\":14445:14864   */\n      swap2\n      swap1\n      pop\n      jump\t// out\n        /* \"#utility.yul\":14870:15094   */\n    tag_261:\n        /* \"#utility.yul\":15010:15044   */\n      0x45524332303a207472616e736665722066726f6d20746865207a65726f206164\n        /* \"#utility.yul\":15006:15007   */\n      0x00\n        /* \"#utility.yul\":14998:15004   */\n      dup3\n        /* \"#utility.yul\":14994:15008   */\n      add\n        /* \"#utility.yul\":14987:15045   */\n      mstore\n        /* \"#utility.yul\":15079:15086   */\n      0x6472657373000000000000000000000000000000000000000000000000000000\n        /* \"#utility.yul\":15074:15076   */\n      0x20\n        /* \"#utility.yul\":15066:15072   */\n      dup3\n        /* \"#utility.yul\":15062:15077   */\n      add\n        /* \"#utility.yul\":15055:15087   */\n      mstore\n        /* \"#utility.yul\":14870:15094   */\n      pop\n      jump\t// out\n        /* \"#utility.yul\":15100:15466   */\n    tag_262:\n        /* \"#utility.yul\":15242:15245   */\n      0x00\n        /* \"#utility.yul\":15263:15330   */\n      tag_398\n        /* \"#utility.yul\":15327:15329   */\n      0x25\n        /* \"#utility.yul\":15322:15325   */\n      dup4\n        /* \"#utility.yul\":15263:15330   */\n      tag_230\n      jump\t// in\n    tag_398:\n        /* \"#utility.yul\":15256:15330   */\n      swap2\n      pop\n        /* \"#utility.yul\":15339:15432   */\n      tag_399\n        /* \"#utility.yul\":15428:15431   */\n      dup3\n        /* \"#utility.yul\":15339:15432   */\n      tag_261\n      jump\t// in\n    tag_399:\n        /* \"#utility.yul\":15457:15459   */\n      0x40\n        /* \"#utility.yul\":15452:15455   */\n      dup3\n        /* \"#utility.yul\":15448:15460   */\n      add\n        /* \"#utility.yul\":15441:15460   */\n      swap1\n      pop\n        /* \"#utility.yul\":15100:15466   */\n      swap2\n      swap1\n      pop\n      jump\t// out\n        /* \"#utility.yul\":15472:15891   */\n    tag_209:\n        /* \"#utility.yul\":15638:15642   */\n      0x00\n        /* \"#utility.yul\":15676:15678   */\n      0x20\n        /* \"#utility.yul\":15665:15674   */\n      dup3\n        /* \"#utility.yul\":15661:15679   */\n      add\n        /* \"#utility.yul\":15653:15679   */\n      swap1\n      pop\n        /* \"#utility.yul\":15725:15734   */\n      dup2\n        /* \"#utility.yul\":15719:15723   */\n      dup2\n        /* \"#utility.yul\":15715:15735   */\n      sub\n        /* \"#utility.yul\":15711:15712   */\n      0x00\n        /* \"#utility.yul\":15700:15709   */\n      dup4\n        /* \"#utility.yul\":15696:15713   */\n      add\n        /* \"#utility.yul\":15689:15736   */\n      mstore\n        /* \"#utility.yul\":15753:15884   */\n      tag_401\n        /* \"#utility.yul\":15879:15883   */\n      dup2\n        /* \"#utility.yul\":15753:15884   */\n      tag_262\n      jump\t// in\n    tag_401:\n        /* \"#utility.yul\":15745:15884   */\n      swap1\n      pop\n        /* \"#utility.yul\":15472:15891   */\n      swap2\n      swap1\n      pop\n      jump\t// out\n        /* \"#utility.yul\":15897:16119   */\n    tag_263:\n        /* \"#utility.yul\":16037:16071   */\n      0x45524332303a207472616e7366657220746f20746865207a65726f2061646472\n        /* \"#utility.yul\":16033:16034   */\n      0x00\n        /* \"#utility.yul\":16025:16031   */\n      dup3\n        /* \"#utility.yul\":16021:16035   */\n      add\n        /* \"#utility.yul\":16014:16072   */\n      mstore\n        /* \"#utility.yul\":16106:16111   */\n      0x6573730000000000000000000000000000000000000000000000000000000000\n        /* \"#utility.yul\":16101:16103   */\n      0x20\n        /* \"#utility.yul\":16093:16099   */\n      dup3\n        /* \"#utility.yul\":16089:16104   */\n      add\n        /* \"#utility.yul\":16082:16112   */\n      mstore\n        /* \"#utility.yul\":15897:16119   */\n      pop\n      jump\t// out\n        /* \"#utility.yul\":16125:16491   */\n    tag_264:\n        /* \"#utility.yul\":16267:16270   */\n      0x00\n        /* \"#utility.yul\":16288:16355   */\n      tag_404\n        /* \"#utility.yul\":16352:16354   */\n      0x23\n        /* \"#utility.yul\":16347:16350   */\n      dup4\n        /* \"#utility.yul\":16288:16355   */\n      tag_230\n      jump\t// in\n    tag_404:\n        /* \"#utility.yul\":16281:16355   */\n      swap2\n      pop\n        /* \"#utility.yul\":16364:16457   */\n      tag_405\n        /* \"#utility.yul\":16453:16456   */\n      dup3\n        /* \"#utility.yul\":16364:16457   */\n      tag_263\n      jump\t// in\n    tag_405:\n        /* \"#utility.yul\":16482:16484   */\n      0x40\n        /* \"#utility.yul\":16477:16480   */\n      dup3\n        /* \"#utility.yul\":16473:16485   */\n      add\n        /* \"#utility.yul\":16466:16485   */\n      swap1\n      pop\n        /* \"#utility.yul\":16125:16491   */\n      swap2\n      swap1\n      pop\n      jump\t// out\n        /* \"#utility.yul\":16497:16916   */\n    tag_212:\n        /* \"#utility.yul\":16663:16667   */\n      0x00\n        /* \"#utility.yul\":16701:16703   */\n      0x20\n        /* \"#utility.yul\":16690:16699   */\n      dup3\n        /* \"#utility.yul\":16686:16704   */\n      add\n        /* \"#utility.yul\":16678:16704   */\n      swap1\n      pop\n        /* \"#utility.yul\":16750:16759   */\n      dup2\n        /* \"#utility.yul\":16744:16748   */\n      dup2\n        /* \"#utility.yul\":16740:16760   */\n      sub\n        /* \"#utility.yul\":16736:16737   */\n      0x00\n        /* \"#utility.yul\":16725:16734   */\n      dup4\n        /* \"#utility.yul\":16721:16738   */\n      add\n        /* \"#utility.yul\":16714:16761   */\n      mstore\n        /* \"#utility.yul\":16778:16909   */\n      tag_407\n        /* \"#utility.yul\":16904:16908   */\n      dup2\n        /* \"#utility.yul\":16778:16909   */\n      tag_264\n      jump\t// in\n    tag_407:\n        /* \"#utility.yul\":16770:16909   */\n      swap1\n      pop\n        /* \"#utility.yul\":16497:16916   */\n      swap2\n      swap1\n      pop\n      jump\t// out\n        /* \"#utility.yul\":16922:17147   */\n    tag_265:\n        /* \"#utility.yul\":17062:17096   */\n      0x45524332303a207472616e7366657220616d6f756e7420657863656564732062\n        /* \"#utility.yul\":17058:17059   */\n      0x00\n        /* \"#utility.yul\":17050:17056   */\n      dup3\n        /* \"#utility.yul\":17046:17060   */\n      add\n        /* \"#utility.yul\":17039:17097   */\n      mstore\n        /* \"#utility.yul\":17131:17139   */\n      0x616c616e63650000000000000000000000000000000000000000000000000000\n        /* \"#utility.yul\":17126:17128   */\n      0x20\n        /* \"#utility.yul\":17118:17124   */\n      dup3\n        /* \"#utility.yul\":17114:17129   */\n      add\n        /* \"#utility.yul\":17107:17140   */\n      mstore\n        /* \"#utility.yul\":16922:17147   */\n      pop\n      jump\t// out\n        /* \"#utility.yul\":17153:17519   */\n    tag_266:\n        /* \"#utility.yul\":17295:17298   */\n      0x00\n        /* \"#utility.yul\":17316:17383   */\n      tag_410\n        /* \"#utility.yul\":17380:17382   */\n      0x26\n        /* \"#utility.yul\":17375:17378   */\n      dup4\n        /* \"#utility.yul\":17316:17383   */\n      tag_230\n      jump\t// in\n    tag_410:\n        /* \"#utility.yul\":17309:17383   */\n      swap2\n      pop\n        /* \"#utility.yul\":17392:17485   */\n      tag_411\n        /* \"#utility.yul\":17481:17484   */\n      dup3\n        /* \"#utility.yul\":17392:17485   */\n      tag_265\n      jump\t// in\n    tag_411:\n        /* \"#utility.yul\":17510:17512   */\n      0x40\n        /* \"#utility.yul\":17505:17508   */\n      dup3\n        /* \"#utility.yul\":17501:17513   */\n      add\n        /* \"#utility.yul\":17494:17513   */\n      swap1\n      pop\n        /* \"#utility.yul\":17153:17519   */\n      swap2\n      swap1\n      pop\n      jump\t// out\n        /* \"#utility.yul\":17525:17944   */\n    tag_217:\n        /* \"#utility.yul\":17691:17695   */\n      0x00\n        /* \"#utility.yul\":17729:17731   */\n      0x20\n        /* \"#utility.yul\":17718:17727   */\n      dup3\n        /* \"#utility.yul\":17714:17732   */\n      add\n        /* \"#utility.yul\":17706:17732   */\n      swap1\n      pop\n        /* \"#utility.yul\":17778:17787   */\n      dup2\n        /* \"#utility.yul\":17772:17776   */\n      dup2\n        /* \"#utility.yul\":17768:17788   */\n      sub\n        /* \"#utility.yul\":17764:17765   */\n      0x00\n        /* \"#utility.yul\":17753:17762   */\n      dup4\n        /* \"#utility.yul\":17749:17766   */\n      add\n        /* \"#utility.yul\":17742:17789   */\n      mstore\n        /* \"#utility.yul\":17806:17937   */\n      tag_413\n        /* \"#utility.yul\":17932:17936   */\n      dup2\n        /* \"#utility.yul\":17806:17937   */\n      tag_266\n      jump\t// in\n    tag_413:\n        /* \"#utility.yul\":17798:17937   */\n      swap1\n      pop\n        /* \"#utility.yul\":17525:17944   */\n      swap2\n      swap1\n      pop\n      jump\t// out\n\n    auxdata: 0xa26469706673582212205ea38879293569cd0e8d0243c787f5946fe92a0172fa5bd6a104fa404ce3d5d564736f6c63430008120033\n}\n",
				"bytecode": {
					"linkReferences": {},
					"object": "60806040523480156200001157600080fd5b506040518060400160405280600881526020017f4d7920546f6b656e0000000000000000000000000000000000000000000000008152506040518060400160405280600481526020017f526944540000000000000000000000000000000000000000000000000000000081525081600390816200008f91906200090b565b508060049081620000a191906200090b565b505050600a6008819055506000620000be6200018160201b60201c565b600a620000cc919062000b82565b90506000600190505b600854811162000179576000620000f2826200018a60201b60201c565b9050600062000107836200035260201b60201c565b9050816005600085815260200190815260200160002090816200012b91906200090b565b50806006600085815260200190815260200160002090816200014e91906200090b565b506200016133856200051a60201b60201c565b50508080620001709062000bd3565b915050620000d5565b505062000d0c565b60006012905090565b606060018203620001b7576040518060800160405280604b815260200162002a71604b913990506200034d565b60028203620001e2576040518060800160405280604b815260200162002b90604b913990506200034d565b600382036200020d576040518060800160405280604b815260200162002abc604b913990506200034d565b6004820362000238576040518060800160405280604b815260200162002d79604b913990506200034d565b6005820362000263576040518060800160405280604b815260200162002b07604b913990506200034d565b600682036200028e576040518060800160405280604b8152602001620029a3604b913990506200034d565b60078203620002b9576040518060600160405280603881526020016200296b6038913990506200034d565b60088203620002e457604051806080016040528060488152602001620029ee6048913990506200034d565b600982036200030f576040518060a00160405280607c815260200162002cbf607c913990506200034d565b600a82036200033a5760405180606001604052806038815260200162002dc46038913990506200034d565b6040518060200160405280600081525090505b919050565b6060600182036200037f576040518060600160405280603e815260200162002c19603e9139905062000515565b60028203620003aa576040518060600160405280603e815260200162002c81603e9139905062000515565b60038203620003d5576040518060600160405280603e815260200162002902603e9139905062000515565b6004820362000400576040518060600160405280603e815260200162002b52603e9139905062000515565b600582036200042b576040518060600160405280603e815260200162002d3b603e9139905062000515565b6006820362000456576040518060600160405280603e815260200162002bdb603e9139905062000515565b6007820362000481576040518060600160405280602b815260200162002940602b9139905062000515565b60088203620004ac576040518060600160405280603b815260200162002a36603b9139905062000515565b60098203620004d7576040518060a00160405280606f815260200162002893606f9139905062000515565b600a820362000502576040518060600160405280602a815260200162002c57602a9139905062000515565b6040518060200160405280600081525090505b919050565b600073ffffffffffffffffffffffffffffffffffffffff168273ffffffffffffffffffffffffffffffffffffffff16036200058c576040517f08c379a0000000000000000000000000000000000000000000000000000000008152600401620005839062000c81565b60405180910390fd5b620005a0600083836200068760201b60201c565b8060026000828254620005b4919062000ca3565b92505081905550806000808473ffffffffffffffffffffffffffffffffffffffff1673ffffffffffffffffffffffffffffffffffffffff168152602001908152602001600020600082825401925050819055508173ffffffffffffffffffffffffffffffffffffffff16600073ffffffffffffffffffffffffffffffffffffffff167fddf252ad1be2c89b69c2b068fc378daa952ba7f163c4a11628f55a4df523b3ef8360405162000667919062000cef565b60405180910390a362000683600083836200068c60201b60201c565b5050565b505050565b505050565b600081519050919050565b7f4e487b7100000000000000000000000000000000000000000000000000000000600052604160045260246000fd5b7f4e487b7100000000000000000000000000000000000000000000000000000000600052602260045260246000fd5b600060028204905060018216806200071357607f821691505b602082108103620007295762000728620006cb565b5b50919050565b60008190508160005260206000209050919050565b60006020601f8301049050919050565b600082821b905092915050565b600060088302620007937fffffffffffffffffffffffffffffffffffffffffffffffffffffffffffffffff8262000754565b6200079f868362000754565b95508019841693508086168417925050509392505050565b6000819050919050565b6000819050919050565b6000620007ec620007e6620007e084620007b7565b620007c1565b620007b7565b9050919050565b6000819050919050565b6200080883620007cb565b620008206200081782620007f3565b84845462000761565b825550505050565b600090565b6200083762000828565b62000844818484620007fd565b505050565b5b818110156200086c57620008606000826200082d565b6001810190506200084a565b5050565b601f821115620008bb5762000885816200072f565b620008908462000744565b81016020851015620008a0578190505b620008b8620008af8562000744565b83018262000849565b50505b505050565b600082821c905092915050565b6000620008e060001984600802620008c0565b1980831691505092915050565b6000620008fb8383620008cd565b9150826002028217905092915050565b620009168262000691565b67ffffffffffffffff8111156200093257620009316200069c565b5b6200093e8254620006fa565b6200094b82828562000870565b600060209050601f8311600181146200098357600084156200096e578287015190505b6200097a8582620008ed565b865550620009ea565b601f19841662000993866200072f565b60005b82811015620009bd5784890151825560018201915060208501945060208101905062000996565b86831015620009dd5784890151620009d9601f891682620008cd565b8355505b6001600288020188555050505b505050505050565b7f4e487b7100000000000000000000000000000000000000000000000000000000600052601160045260246000fd5b60008160011c9050919050565b6000808291508390505b600185111562000a805780860481111562000a585762000a57620009f2565b5b600185161562000a685780820291505b808102905062000a788562000a21565b945062000a38565b94509492505050565b60008262000a9b576001905062000b6e565b8162000aab576000905062000b6e565b816001811462000ac4576002811462000acf5762000b05565b600191505062000b6e565b60ff84111562000ae45762000ae3620009f2565b5b8360020a91508482111562000afe5762000afd620009f2565b5b5062000b6e565b5060208310610133831016604e8410600b841016171562000b3f5782820a90508381111562000b395762000b38620009f2565b5b62000b6e565b62000b4e848484600162000a2e565b9250905081840481111562000b685762000b67620009f2565b5b81810290505b9392505050565b600060ff82169050919050565b600062000b8f82620007b7565b915062000b9c8362000b75565b925062000bcb7fffffffffffffffffffffffffffffffffffffffffffffffffffffffffffffffff848462000a89565b905092915050565b600062000be082620007b7565b91507fffffffffffffffffffffffffffffffffffffffffffffffffffffffffffffffff820362000c155762000c14620009f2565b5b600182019050919050565b600082825260208201905092915050565b7f45524332303a206d696e7420746f20746865207a65726f206164647265737300600082015250565b600062000c69601f8362000c20565b915062000c768262000c31565b602082019050919050565b6000602082019050818103600083015262000c9c8162000c5a565b9050919050565b600062000cb082620007b7565b915062000cbd83620007b7565b925082820190508082111562000cd85762000cd7620009f2565b5b92915050565b62000ce981620007b7565b82525050565b600060208201905062000d06600083018462000cde565b92915050565b611b778062000d1c6000396000f3fe608060405234801561001057600080fd5b506004361061012c5760003560e01c8063537df3b6116100ad578063a457c2d711610071578063a457c2d71461036d578063a9059cbb1461039d578063bec3fa17146103cd578063c4f576c7146103e9578063dd62ed3e146104195761012c565b8063537df3b6146102b557806370a08231146102d15780637e1c0c091461030157806385d4755b1461031f57806395d89b411461034f5761012c565b806323b872dd116100f457806323b872dd146101eb5780632431b6d51461021b578063313ce5671461024b578063395093511461026957806344337ea1146102995761012c565b8063047c08891461013157806306fdde0314610161578063095ea7b31461017f57806312065fe0146101af57806318160ddd146101cd575b600080fd5b61014b60048036038101906101469190611222565b610449565b60405161015891906112df565b60405180910390f35b6101696104e9565b60405161017691906112df565b60405180910390f35b6101996004803603810190610194919061135f565b61057b565b6040516101a691906113ba565b60405180910390f35b6101b761059e565b6040516101c491906113e4565b60405180910390f35b6101d56105ae565b6040516101e291906113e4565b60405180910390f35b610205600480360381019061020091906113ff565b6105b8565b60405161021291906113ba565b60405180910390f35b61023560048036038101906102309190611222565b6105e7565b60405161024291906112df565b60405180910390f35b610253610687565b604051610260919061146e565b60405180910390f35b610283600480360381019061027e919061135f565b610690565b60405161029091906113ba565b60405180910390f35b6102b360048036038101906102ae9190611489565b6106c7565b005b6102cf60048036038101906102ca9190611489565b6107af565b005b6102eb60048036038101906102e69190611489565b610896565b6040516102f891906113e4565b60405180910390f35b6103096108de565b60405161031691906113e4565b60405180910390f35b61033960048036038101906103349190611222565b6108e4565b60405161034691906112df565b60405180910390f35b610357610989565b60405161036491906112df565b60405180910390f35b6103876004803603810190610382919061135f565b610a1b565b60405161039491906113ba565b60405180910390f35b6103b760048036038101906103b2919061135f565b610a92565b6040516103c491906113ba565b60405180910390f35b6103e760048036038101906103e2919061135f565b610ab5565b005b61040360048036038101906103fe9190611222565b610bde565b60405161041091906112df565b60405180910390f35b610433600480360381019061042e91906114b6565b610c83565b60405161044091906113e4565b60405180910390f35b6006602052806000526040600020600091509050805461046890611525565b80601f016020809104026020016040519081016040528092919081815260200182805461049490611525565b80156104e15780601f106104b6576101008083540402835291602001916104e1565b820191906000526020600020905b8154815290600101906020018083116104c457829003601f168201915b505050505081565b6060600380546104f890611525565b80601f016020809104026020016040519081016040528092919081815260200182805461052490611525565b80156105715780601f1061054657610100808354040283529160200191610571565b820191906000526020600020905b81548152906001019060200180831161055457829003601f168201915b5050505050905090565b600080610586610d0a565b9050610593818585610d12565b600191505092915050565b60006105a933610896565b905090565b6000600254905090565b6000806105c3610d0a565b90506105d0858285610edb565b6105db858585610f67565b60019150509392505050565b6005602052806000526040600020600091509050805461060690611525565b80601f016020809104026020016040519081016040528092919081815260200182805461063290611525565b801561067f5780601f106106545761010080835404028352916020019161067f565b820191906000526020600020905b81548152906001019060200180831161066257829003601f168201915b505050505081565b60006012905090565b60008061069b610d0a565b90506106bc8185856106ad8589610c83565b6106b79190611585565b610d12565b600191505092915050565b600760008273ffffffffffffffffffffffffffffffffffffffff1673ffffffffffffffffffffffffffffffffffffffff16815260200190815260200160002060009054906101000a900460ff1615610754576040517f08c379a000000000000000000000000000000000000000000000000000000000815260040161074b90611605565b60405180910390fd5b6001600760008373ffffffffffffffffffffffffffffffffffffffff1673ffffffffffffffffffffffffffffffffffffffff16815260200190815260200160002060006101000a81548160ff02191690831515021790555050565b600760008273ffffffffffffffffffffffffffffffffffffffff1673ffffffffffffffffffffffffffffffffffffffff16815260200190815260200160002060009054906101000a900460ff1661083b576040517f08c379a000000000000000000000000000000000000000000000000000000000815260040161083290611671565b60405180910390fd5b6000600760008373ffffffffffffffffffffffffffffffffffffffff1673ffffffffffffffffffffffffffffffffffffffff16815260200190815260200160002060006101000a81548160ff02191690831515021790555050565b60008060008373ffffffffffffffffffffffffffffffffffffffff1673ffffffffffffffffffffffffffffffffffffffff168152602001908152602001600020549050919050565b60085481565b606060066000838152602001908152602001600020805461090490611525565b80601f016020809104026020016040519081016040528092919081815260200182805461093090611525565b801561097d5780601f106109525761010080835404028352916020019161097d565b820191906000526020600020905b81548152906001019060200180831161096057829003601f168201915b50505050509050919050565b60606004805461099890611525565b80601f01602080910402602001604051908101604052809291908181526020018280546109c490611525565b8015610a115780601f106109e657610100808354040283529160200191610a11565b820191906000526020600020905b8154815290600101906020018083116109f457829003601f168201915b5050505050905090565b600080610a26610d0a565b90506000610a348286610c83565b905083811015610a79576040517f08c379a0000000000000000000000000000000000000000000000000000000008152600401610a7090611703565b60405180910390fd5b610a868286868403610d12565b60019250505092915050565b600080610a9d610d0a565b9050610aaa818585610f67565b600191505092915050565b600760003373ffffffffffffffffffffffffffffffffffffffff1673ffffffffffffffffffffffffffffffffffffffff16815260200190815260200160002060009054906101000a900460ff1615610b42576040517f08c379a0000000000000000000000000000000000000000000000000000000008152600401610b399061176f565b60405180910390fd5b600760008373ffffffffffffffffffffffffffffffffffffffff1673ffffffffffffffffffffffffffffffffffffffff16815260200190815260200160002060009054906101000a900460ff1615610bcf576040517f08c379a0000000000000000000000000000000000000000000000000000000008152600401610bc6906117db565b60405180910390fd5b610bda338383610f67565b5050565b6060600560008381526020019081526020016000208054610bfe90611525565b80601f0160208091040260200160405190810160405280929190818152602001828054610c2a90611525565b8015610c775780601f10610c4c57610100808354040283529160200191610c77565b820191906000526020600020905b815481529060010190602001808311610c5a57829003601f168201915b50505050509050919050565b6000600160008473ffffffffffffffffffffffffffffffffffffffff1673ffffffffffffffffffffffffffffffffffffffff16815260200190815260200160002060008373ffffffffffffffffffffffffffffffffffffffff1673ffffffffffffffffffffffffffffffffffffffff16815260200190815260200160002054905092915050565b600033905090565b600073ffffffffffffffffffffffffffffffffffffffff168373ffffffffffffffffffffffffffffffffffffffff1603610d81576040517f08c379a0000000000000000000000000000000000000000000000000000000008152600401610d789061186d565b60405180910390fd5b600073ffffffffffffffffffffffffffffffffffffffff168273ffffffffffffffffffffffffffffffffffffffff1603610df0576040517f08c379a0000000000000000000000000000000000000000000000000000000008152600401610de7906118ff565b60405180910390fd5b80600160008573ffffffffffffffffffffffffffffffffffffffff1673ffffffffffffffffffffffffffffffffffffffff16815260200190815260200160002060008473ffffffffffffffffffffffffffffffffffffffff1673ffffffffffffffffffffffffffffffffffffffff168152602001908152602001600020819055508173ffffffffffffffffffffffffffffffffffffffff168373ffffffffffffffffffffffffffffffffffffffff167f8c5be1e5ebec7d5bd14f71427d1e84f3dd0314c0f7b2291e5b200ac8c7c3b92583604051610ece91906113e4565b60405180910390a3505050565b6000610ee78484610c83565b90507fffffffffffffffffffffffffffffffffffffffffffffffffffffffffffffffff8114610f615781811015610f53576040517f08c379a0000000000000000000000000000000000000000000000000000000008152600401610f4a9061196b565b60405180910390fd5b610f608484848403610d12565b5b50505050565b600073ffffffffffffffffffffffffffffffffffffffff168373ffffffffffffffffffffffffffffffffffffffff1603610fd6576040517f08c379a0000000000000000000000000000000000000000000000000000000008152600401610fcd906119fd565b60405180910390fd5b600073ffffffffffffffffffffffffffffffffffffffff168273ffffffffffffffffffffffffffffffffffffffff1603611045576040517f08c379a000000000000000000000000000000000000000000000000000000000815260040161103c90611a8f565b60405180910390fd5b6110508383836111dd565b60008060008573ffffffffffffffffffffffffffffffffffffffff1673ffffffffffffffffffffffffffffffffffffffff168152602001908152602001600020549050818110156110d6576040517f08c379a00000000000000000000000000000000000000000000000000000000081526004016110cd90611b21565b60405180910390fd5b8181036000808673ffffffffffffffffffffffffffffffffffffffff1673ffffffffffffffffffffffffffffffffffffffff16815260200190815260200160002081905550816000808573ffffffffffffffffffffffffffffffffffffffff1673ffffffffffffffffffffffffffffffffffffffff168152602001908152602001600020600082825401925050819055508273ffffffffffffffffffffffffffffffffffffffff168473ffffffffffffffffffffffffffffffffffffffff167fddf252ad1be2c89b69c2b068fc378daa952ba7f163c4a11628f55a4df523b3ef846040516111c491906113e4565b60405180910390a36111d78484846111e2565b50505050565b505050565b505050565b600080fd5b6000819050919050565b6111ff816111ec565b811461120a57600080fd5b50565b60008135905061121c816111f6565b92915050565b600060208284031215611238576112376111e7565b5b60006112468482850161120d565b91505092915050565b600081519050919050565b600082825260208201905092915050565b60005b8381101561128957808201518184015260208101905061126e565b60008484015250505050565b6000601f19601f8301169050919050565b60006112b18261124f565b6112bb818561125a565b93506112cb81856020860161126b565b6112d481611295565b840191505092915050565b600060208201905081810360008301526112f981846112a6565b905092915050565b600073ffffffffffffffffffffffffffffffffffffffff82169050919050565b600061132c82611301565b9050919050565b61133c81611321565b811461134757600080fd5b50565b60008135905061135981611333565b92915050565b60008060408385031215611376576113756111e7565b5b60006113848582860161134a565b92505060206113958582860161120d565b9150509250929050565b60008115159050919050565b6113b48161139f565b82525050565b60006020820190506113cf60008301846113ab565b92915050565b6113de816111ec565b82525050565b60006020820190506113f960008301846113d5565b92915050565b600080600060608486031215611418576114176111e7565b5b60006114268682870161134a565b93505060206114378682870161134a565b92505060406114488682870161120d565b9150509250925092565b600060ff82169050919050565b61146881611452565b82525050565b6000602082019050611483600083018461145f565b92915050565b60006020828403121561149f5761149e6111e7565b5b60006114ad8482850161134a565b91505092915050565b600080604083850312156114cd576114cc6111e7565b5b60006114db8582860161134a565b92505060206114ec8582860161134a565b9150509250929050565b7f4e487b7100000000000000000000000000000000000000000000000000000000600052602260045260246000fd5b6000600282049050600182168061153d57607f821691505b6020821081036115505761154f6114f6565b5b50919050565b7f4e487b7100000000000000000000000000000000000000000000000000000000600052601160045260246000fd5b6000611590826111ec565b915061159b836111ec565b92508282019050808211156115b3576115b2611556565b5b92915050565b7f4163636f756e7420697320616c726561647920626c61636b6c69737465640000600082015250565b60006115ef601e8361125a565b91506115fa826115b9565b602082019050919050565b6000602082019050818103600083015261161e816115e2565b9050919050565b7f4163636f756e74206973206e6f7420626c61636b6c6973746564000000000000600082015250565b600061165b601a8361125a565b915061166682611625565b602082019050919050565b6000602082019050818103600083015261168a8161164e565b9050919050565b7f45524332303a2064656372656173656420616c6c6f77616e63652062656c6f7760008201527f207a65726f000000000000000000000000000000000000000000000000000000602082015250565b60006116ed60258361125a565b91506116f882611691565b604082019050919050565b6000602082019050818103600083015261171c816116e0565b9050919050565b7f53656e64657220697320626c61636b6c69737465640000000000000000000000600082015250565b600061175960158361125a565b915061176482611723565b602082019050919050565b600060208201905081810360008301526117888161174c565b9050919050565b7f526563697069656e7420697320626c61636b6c69737465640000000000000000600082015250565b60006117c560188361125a565b91506117d08261178f565b602082019050919050565b600060208201905081810360008301526117f4816117b8565b9050919050565b7f45524332303a20617070726f76652066726f6d20746865207a65726f2061646460008201527f7265737300000000000000000000000000000000000000000000000000000000602082015250565b600061185760248361125a565b9150611862826117fb565b604082019050919050565b600060208201905081810360008301526118868161184a565b9050919050565b7f45524332303a20617070726f766520746f20746865207a65726f20616464726560008201527f7373000000000000000000000000000000000000000000000000000000000000602082015250565b60006118e960228361125a565b91506118f48261188d565b604082019050919050565b60006020820190508181036000830152611918816118dc565b9050919050565b7f45524332303a20696e73756666696369656e7420616c6c6f77616e6365000000600082015250565b6000611955601d8361125a565b91506119608261191f565b602082019050919050565b6000602082019050818103600083015261198481611948565b9050919050565b7f45524332303a207472616e736665722066726f6d20746865207a65726f20616460008201527f6472657373000000000000000000000000000000000000000000000000000000602082015250565b60006119e760258361125a565b91506119f28261198b565b604082019050919050565b60006020820190508181036000830152611a16816119da565b9050919050565b7f45524332303a207472616e7366657220746f20746865207a65726f206164647260008201527f6573730000000000000000000000000000000000000000000000000000000000602082015250565b6000611a7960238361125a565b9150611a8482611a1d565b604082019050919050565b60006020820190508181036000830152611aa881611a6c565b9050919050565b7f45524332303a207472616e7366657220616d6f756e742065786365656473206260008201527f616c616e63650000000000000000000000000000000000000000000000000000602082015250565b6000611b0b60268361125a565b9150611b1682611aaf565b604082019050919050565b60006020820190508181036000830152611b3a81611afe565b905091905056fea26469706673582212205ea38879293569cd0e8d0243c787f5946fe92a0172fa5bd6a104fa404ce3d5d564736f6c6343000812003368747470733a2f2f7777772e74686574696d65732e636f2e756b2f61727469636c652f6368616e63656c6c6f722d616c6973746169722d6461726c696e672d6f6e2d6272696e6b2d6f662d7365636f6e642d6261696c6f75742d666f722d62616e6b732d6e396c3338326d6e36326868747470733a2f2f61692e636174656e616361702e78797a2f77702d636f6e74656e742f75706c6f6164732f696e736372697074696f6e2f332e6176696668747470733a2f2f7777772e796f75747562652e636f6d2f77617463683f763d56684131645a5865616f30546f6b656e5f375f524944545f68747470733a2f2f7777772e796f75747562652e636f6d2f77617463683f763d56684131645a5865616f30546f6b656e5f365f524944545f68747470733a2f2f61692e636174656e616361702e78797a2f77702d636f6e74656e742f75706c6f6164732f696e736372697074696f6e2f362e61766966546f6b656e5f385f524944545f68747470733a2f2f7777772e6663612e6f72672e756b2f6e6577732f73706565636865732f7269736b732d746f6b656e2d726567756c6174696f6e68747470733a2f2f7777772e6663612e6f72672e756b2f6e6577732f73706565636865732f7269736b732d746f6b656e2d726567756c6174696f6e546f6b656e5f315f524944545f68747470733a2f2f61692e636174656e616361702e78797a2f77702d636f6e74656e742f75706c6f6164732f696e736372697074696f6e2f312e61766966546f6b656e5f335f524944545f68747470733a2f2f61692e636174656e616361702e78797a2f77702d636f6e74656e742f75706c6f6164732f696e736372697074696f6e2f332e61766966546f6b656e5f355f524944545f68747470733a2f2f61692e636174656e616361702e78797a2f77702d636f6e74656e742f75706c6f6164732f696e736372697074696f6e2f352e6176696668747470733a2f2f61692e636174656e616361702e78797a2f77702d636f6e74656e742f75706c6f6164732f696e736372697074696f6e2f342e61766966546f6b656e5f325f524944545f68747470733a2f2f61692e636174656e616361702e78797a2f77702d636f6e74656e742f75706c6f6164732f696e736372697074696f6e2f322e6176696668747470733a2f2f61692e636174656e616361702e78797a2f77702d636f6e74656e742f75706c6f6164732f696e736372697074696f6e2f362e6176696668747470733a2f2f61692e636174656e616361702e78797a2f77702d636f6e74656e742f75706c6f6164732f696e736372697074696f6e2f312e6176696668747470733a2f2f7777772e796f75747562652e636f6d2f73686f7274732f496163684f7238324f714568747470733a2f2f61692e636174656e616361702e78797a2f77702d636f6e74656e742f75706c6f6164732f696e736372697074696f6e2f322e61766966546f6b656e5f395f524944545f68747470733a2f2f7777772e74686574696d65732e636f2e756b2f61727469636c652f6368616e63656c6c6f722d616c6973746169722d6461726c696e672d6f6e2d6272696e6b2d6f662d7365636f6e642d6261696c6f75742d666f722d62616e6b732d6e396c3338326d6e36326868747470733a2f2f61692e636174656e616361702e78797a2f77702d636f6e74656e742f75706c6f6164732f696e736372697074696f6e2f352e61766966546f6b656e5f345f524944545f68747470733a2f2f61692e636174656e616361702e78797a2f77702d636f6e74656e742f75706c6f6164732f696e736372697074696f6e2f342e61766966546f6b656e5f31305f524944545f68747470733a2f2f7777772e796f75747562652e636f6d2f73686f7274732f496163684f7238324f7145",
					"opcodes": "PUSH1 0x80 PUSH1 0x40 MSTORE CALLVALUE DUP1 ISZERO PUSH3 0x11 JUMPI PUSH1 0x0 DUP1 REVERT JUMPDEST POP PUSH1 0x40 MLOAD DUP1 PUSH1 0x40 ADD PUSH1 0x40 MSTORE DUP1 PUSH1 0x8 DUP2 MSTORE PUSH1 0x20 ADD PUSH32 0x4D7920546F6B656E000000000000000000000000000000000000000000000000 DUP2 MSTORE POP PUSH1 0x40 MLOAD DUP1 PUSH1 0x40 ADD PUSH1 0x40 MSTORE DUP1 PUSH1 0x4 DUP2 MSTORE PUSH1 0x20 ADD PUSH32 0x5269445400000000000000000000000000000000000000000000000000000000 DUP2 MSTORE POP DUP2 PUSH1 0x3 SWAP1 DUP2 PUSH3 0x8F SWAP2 SWAP1 PUSH3 0x90B JUMP JUMPDEST POP DUP1 PUSH1 0x4 SWAP1 DUP2 PUSH3 0xA1 SWAP2 SWAP1 PUSH3 0x90B JUMP JUMPDEST POP POP POP PUSH1 0xA PUSH1 0x8 DUP2 SWAP1 SSTORE POP PUSH1 0x0 PUSH3 0xBE PUSH3 0x181 PUSH1 0x20 SHL PUSH1 0x20 SHR JUMP JUMPDEST PUSH1 0xA PUSH3 0xCC SWAP2 SWAP1 PUSH3 0xB82 JUMP JUMPDEST SWAP1 POP PUSH1 0x0 PUSH1 0x1 SWAP1 POP JUMPDEST PUSH1 0x8 SLOAD DUP2 GT PUSH3 0x179 JUMPI PUSH1 0x0 PUSH3 0xF2 DUP3 PUSH3 0x18A PUSH1 0x20 SHL PUSH1 0x20 SHR JUMP JUMPDEST SWAP1 POP PUSH1 0x0 PUSH3 0x107 DUP4 PUSH3 0x352 PUSH1 0x20 SHL PUSH1 0x20 SHR JUMP JUMPDEST SWAP1 POP DUP2 PUSH1 0x5 PUSH1 0x0 DUP6 DUP2 MSTORE PUSH1 0x20 ADD SWAP1 DUP2 MSTORE PUSH1 0x20 ADD PUSH1 0x0 KECCAK256 SWAP1 DUP2 PUSH3 0x12B SWAP2 SWAP1 PUSH3 0x90B JUMP JUMPDEST POP DUP1 PUSH1 0x6 PUSH1 0x0 DUP6 DUP2 MSTORE PUSH1 0x20 ADD SWAP1 DUP2 MSTORE PUSH1 0x20 ADD PUSH1 0x0 KECCAK256 SWAP1 DUP2 PUSH3 0x14E SWAP2 SWAP1 PUSH3 0x90B JUMP JUMPDEST POP PUSH3 0x161 CALLER DUP6 PUSH3 0x51A PUSH1 0x20 SHL PUSH1 0x20 SHR JUMP JUMPDEST POP POP DUP1 DUP1 PUSH3 0x170 SWAP1 PUSH3 0xBD3 JUMP JUMPDEST SWAP2 POP POP PUSH3 0xD5 JUMP JUMPDEST POP POP PUSH3 0xD0C JUMP JUMPDEST PUSH1 0x0 PUSH1 0x12 SWAP1 POP SWAP1 JUMP JUMPDEST PUSH1 0x60 PUSH1 0x1 DUP3 SUB PUSH3 0x1B7 JUMPI PUSH1 0x40 MLOAD DUP1 PUSH1 0x80 ADD PUSH1 0x40 MSTORE DUP1 PUSH1 0x4B DUP2 MSTORE PUSH1 0x20 ADD PUSH3 0x2A71 PUSH1 0x4B SWAP2 CODECOPY SWAP1 POP PUSH3 0x34D JUMP JUMPDEST PUSH1 0x2 DUP3 SUB PUSH3 0x1E2 JUMPI PUSH1 0x40 MLOAD DUP1 PUSH1 0x80 ADD PUSH1 0x40 MSTORE DUP1 PUSH1 0x4B DUP2 MSTORE PUSH1 0x20 ADD PUSH3 0x2B90 PUSH1 0x4B SWAP2 CODECOPY SWAP1 POP PUSH3 0x34D JUMP JUMPDEST PUSH1 0x3 DUP3 SUB PUSH3 0x20D JUMPI PUSH1 0x40 MLOAD DUP1 PUSH1 0x80 ADD PUSH1 0x40 MSTORE DUP1 PUSH1 0x4B DUP2 MSTORE PUSH1 0x20 ADD PUSH3 0x2ABC PUSH1 0x4B SWAP2 CODECOPY SWAP1 POP PUSH3 0x34D JUMP JUMPDEST PUSH1 0x4 DUP3 SUB PUSH3 0x238 JUMPI PUSH1 0x40 MLOAD DUP1 PUSH1 0x80 ADD PUSH1 0x40 MSTORE DUP1 PUSH1 0x4B DUP2 MSTORE PUSH1 0x20 ADD PUSH3 0x2D79 PUSH1 0x4B SWAP2 CODECOPY SWAP1 POP PUSH3 0x34D JUMP JUMPDEST PUSH1 0x5 DUP3 SUB PUSH3 0x263 JUMPI PUSH1 0x40 MLOAD DUP1 PUSH1 0x80 ADD PUSH1 0x40 MSTORE DUP1 PUSH1 0x4B DUP2 MSTORE PUSH1 0x20 ADD PUSH3 0x2B07 PUSH1 0x4B SWAP2 CODECOPY SWAP1 POP PUSH3 0x34D JUMP JUMPDEST PUSH1 0x6 DUP3 SUB PUSH3 0x28E JUMPI PUSH1 0x40 MLOAD DUP1 PUSH1 0x80 ADD PUSH1 0x40 MSTORE DUP1 PUSH1 0x4B DUP2 MSTORE PUSH1 0x20 ADD PUSH3 0x29A3 PUSH1 0x4B SWAP2 CODECOPY SWAP1 POP PUSH3 0x34D JUMP JUMPDEST PUSH1 0x7 DUP3 SUB PUSH3 0x2B9 JUMPI PUSH1 0x40 MLOAD DUP1 PUSH1 0x60 ADD PUSH1 0x40 MSTORE DUP1 PUSH1 0x38 DUP2 MSTORE PUSH1 0x20 ADD PUSH3 0x296B PUSH1 0x38 SWAP2 CODECOPY SWAP1 POP PUSH3 0x34D JUMP JUMPDEST PUSH1 0x8 DUP3 SUB PUSH3 0x2E4 JUMPI PUSH1 0x40 MLOAD DUP1 PUSH1 0x80 ADD PUSH1 0x40 MSTORE DUP1 PUSH1 0x48 DUP2 MSTORE PUSH1 0x20 ADD PUSH3 0x29EE PUSH1 0x48 SWAP2 CODECOPY SWAP1 POP PUSH3 0x34D JUMP JUMPDEST PUSH1 0x9 DUP3 SUB PUSH3 0x30F JUMPI PUSH1 0x40 MLOAD DUP1 PUSH1 0xA0 ADD PUSH1 0x40 MSTORE DUP1 PUSH1 0x7C DUP2 MSTORE PUSH1 0x20 ADD PUSH3 0x2CBF PUSH1 0x7C SWAP2 CODECOPY SWAP1 POP PUSH3 0x34D JUMP JUMPDEST PUSH1 0xA DUP3 SUB PUSH3 0x33A JUMPI PUSH1 0x40 MLOAD DUP1 PUSH1 0x60 ADD PUSH1 0x40 MSTORE DUP1 PUSH1 0x38 DUP2 MSTORE PUSH1 0x20 ADD PUSH3 0x2DC4 PUSH1 0x38 SWAP2 CODECOPY SWAP1 POP PUSH3 0x34D JUMP JUMPDEST PUSH1 0x40 MLOAD DUP1 PUSH1 0x20 ADD PUSH1 0x40 MSTORE DUP1 PUSH1 0x0 DUP2 MSTORE POP SWAP1 POP JUMPDEST SWAP2 SWAP1 POP JUMP JUMPDEST PUSH1 0x60 PUSH1 0x1 DUP3 SUB PUSH3 0x37F JUMPI PUSH1 0x40 MLOAD DUP1 PUSH1 0x60 ADD PUSH1 0x40 MSTORE DUP1 PUSH1 0x3E DUP2 MSTORE PUSH1 0x20 ADD PUSH3 0x2C19 PUSH1 0x3E SWAP2 CODECOPY SWAP1 POP PUSH3 0x515 JUMP JUMPDEST PUSH1 0x2 DUP3 SUB PUSH3 0x3AA JUMPI PUSH1 0x40 MLOAD DUP1 PUSH1 0x60 ADD PUSH1 0x40 MSTORE DUP1 PUSH1 0x3E DUP2 MSTORE PUSH1 0x20 ADD PUSH3 0x2C81 PUSH1 0x3E SWAP2 CODECOPY SWAP1 POP PUSH3 0x515 JUMP JUMPDEST PUSH1 0x3 DUP3 SUB PUSH3 0x3D5 JUMPI PUSH1 0x40 MLOAD DUP1 PUSH1 0x60 ADD PUSH1 0x40 MSTORE DUP1 PUSH1 0x3E DUP2 MSTORE PUSH1 0x20 ADD PUSH3 0x2902 PUSH1 0x3E SWAP2 CODECOPY SWAP1 POP PUSH3 0x515 JUMP JUMPDEST PUSH1 0x4 DUP3 SUB PUSH3 0x400 JUMPI PUSH1 0x40 MLOAD DUP1 PUSH1 0x60 ADD PUSH1 0x40 MSTORE DUP1 PUSH1 0x3E DUP2 MSTORE PUSH1 0x20 ADD PUSH3 0x2B52 PUSH1 0x3E SWAP2 CODECOPY SWAP1 POP PUSH3 0x515 JUMP JUMPDEST PUSH1 0x5 DUP3 SUB PUSH3 0x42B JUMPI PUSH1 0x40 MLOAD DUP1 PUSH1 0x60 ADD PUSH1 0x40 MSTORE DUP1 PUSH1 0x3E DUP2 MSTORE PUSH1 0x20 ADD PUSH3 0x2D3B PUSH1 0x3E SWAP2 CODECOPY SWAP1 POP PUSH3 0x515 JUMP JUMPDEST PUSH1 0x6 DUP3 SUB PUSH3 0x456 JUMPI PUSH1 0x40 MLOAD DUP1 PUSH1 0x60 ADD PUSH1 0x40 MSTORE DUP1 PUSH1 0x3E DUP2 MSTORE PUSH1 0x20 ADD PUSH3 0x2BDB PUSH1 0x3E SWAP2 CODECOPY SWAP1 POP PUSH3 0x515 JUMP JUMPDEST PUSH1 0x7 DUP3 SUB PUSH3 0x481 JUMPI PUSH1 0x40 MLOAD DUP1 PUSH1 0x60 ADD PUSH1 0x40 MSTORE DUP1 PUSH1 0x2B DUP2 MSTORE PUSH1 0x20 ADD PUSH3 0x2940 PUSH1 0x2B SWAP2 CODECOPY SWAP1 POP PUSH3 0x515 JUMP JUMPDEST PUSH1 0x8 DUP3 SUB PUSH3 0x4AC JUMPI PUSH1 0x40 MLOAD DUP1 PUSH1 0x60 ADD PUSH1 0x40 MSTORE DUP1 PUSH1 0x3B DUP2 MSTORE PUSH1 0x20 ADD PUSH3 0x2A36 PUSH1 0x3B SWAP2 CODECOPY SWAP1 POP PUSH3 0x515 JUMP JUMPDEST PUSH1 0x9 DUP3 SUB PUSH3 0x4D7 JUMPI PUSH1 0x40 MLOAD DUP1 PUSH1 0xA0 ADD PUSH1 0x40 MSTORE DUP1 PUSH1 0x6F DUP2 MSTORE PUSH1 0x20 ADD PUSH3 0x2893 PUSH1 0x6F SWAP2 CODECOPY SWAP1 POP PUSH3 0x515 JUMP JUMPDEST PUSH1 0xA DUP3 SUB PUSH3 0x502 JUMPI PUSH1 0x40 MLOAD DUP1 PUSH1 0x60 ADD PUSH1 0x40 MSTORE DUP1 PUSH1 0x2A DUP2 MSTORE PUSH1 0x20 ADD PUSH3 0x2C57 PUSH1 0x2A SWAP2 CODECOPY SWAP1 POP PUSH3 0x515 JUMP JUMPDEST PUSH1 0x40 MLOAD DUP1 PUSH1 0x20 ADD PUSH1 0x40 MSTORE DUP1 PUSH1 0x0 DUP2 MSTORE POP SWAP1 POP JUMPDEST SWAP2 SWAP1 POP JUMP JUMPDEST PUSH1 0x0 PUSH20 0xFFFFFFFFFFFFFFFFFFFFFFFFFFFFFFFFFFFFFFFF AND DUP3 PUSH20 0xFFFFFFFFFFFFFFFFFFFFFFFFFFFFFFFFFFFFFFFF AND SUB PUSH3 0x58C JUMPI PUSH1 0x40 MLOAD PUSH32 0x8C379A000000000000000000000000000000000000000000000000000000000 DUP2 MSTORE PUSH1 0x4 ADD PUSH3 0x583 SWAP1 PUSH3 0xC81 JUMP JUMPDEST PUSH1 0x40 MLOAD DUP1 SWAP2 SUB SWAP1 REVERT JUMPDEST PUSH3 0x5A0 PUSH1 0x0 DUP4 DUP4 PUSH3 0x687 PUSH1 0x20 SHL PUSH1 0x20 SHR JUMP JUMPDEST DUP1 PUSH1 0x2 PUSH1 0x0 DUP3 DUP3 SLOAD PUSH3 0x5B4 SWAP2 SWAP1 PUSH3 0xCA3 JUMP JUMPDEST SWAP3 POP POP DUP2 SWAP1 SSTORE POP DUP1 PUSH1 0x0 DUP1 DUP5 PUSH20 0xFFFFFFFFFFFFFFFFFFFFFFFFFFFFFFFFFFFFFFFF AND PUSH20 0xFFFFFFFFFFFFFFFFFFFFFFFFFFFFFFFFFFFFFFFF AND DUP2 MSTORE PUSH1 0x20 ADD SWAP1 DUP2 MSTORE PUSH1 0x20 ADD PUSH1 0x0 KECCAK256 PUSH1 0x0 DUP3 DUP3 SLOAD ADD SWAP3 POP POP DUP2 SWAP1 SSTORE POP DUP2 PUSH20 0xFFFFFFFFFFFFFFFFFFFFFFFFFFFFFFFFFFFFFFFF AND PUSH1 0x0 PUSH20 0xFFFFFFFFFFFFFFFFFFFFFFFFFFFFFFFFFFFFFFFF AND PUSH32 0xDDF252AD1BE2C89B69C2B068FC378DAA952BA7F163C4A11628F55A4DF523B3EF DUP4 PUSH1 0x40 MLOAD PUSH3 0x667 SWAP2 SWAP1 PUSH3 0xCEF JUMP JUMPDEST PUSH1 0x40 MLOAD DUP1 SWAP2 SUB SWAP1 LOG3 PUSH3 0x683 PUSH1 0x0 DUP4 DUP4 PUSH3 0x68C PUSH1 0x20 SHL PUSH1 0x20 SHR JUMP JUMPDEST POP POP JUMP JUMPDEST POP POP POP JUMP JUMPDEST POP POP POP JUMP JUMPDEST PUSH1 0x0 DUP2 MLOAD SWAP1 POP SWAP2 SWAP1 POP JUMP JUMPDEST PUSH32 0x4E487B7100000000000000000000000000000000000000000000000000000000 PUSH1 0x0 MSTORE PUSH1 0x41 PUSH1 0x4 MSTORE PUSH1 0x24 PUSH1 0x0 REVERT JUMPDEST PUSH32 0x4E487B7100000000000000000000000000000000000000000000000000000000 PUSH1 0x0 MSTORE PUSH1 0x22 PUSH1 0x4 MSTORE PUSH1 0x24 PUSH1 0x0 REVERT JUMPDEST PUSH1 0x0 PUSH1 0x2 DUP3 DIV SWAP1 POP PUSH1 0x1 DUP3 AND DUP1 PUSH3 0x713 JUMPI PUSH1 0x7F DUP3 AND SWAP2 POP JUMPDEST PUSH1 0x20 DUP3 LT DUP2 SUB PUSH3 0x729 JUMPI PUSH3 0x728 PUSH3 0x6CB JUMP JUMPDEST JUMPDEST POP SWAP2 SWAP1 POP JUMP JUMPDEST PUSH1 0x0 DUP2 SWAP1 POP DUP2 PUSH1 0x0 MSTORE PUSH1 0x20 PUSH1 0x0 KECCAK256 SWAP1 POP SWAP2 SWAP1 POP JUMP JUMPDEST PUSH1 0x0 PUSH1 0x20 PUSH1 0x1F DUP4 ADD DIV SWAP1 POP SWAP2 SWAP1 POP JUMP JUMPDEST PUSH1 0x0 DUP3 DUP3 SHL SWAP1 POP SWAP3 SWAP2 POP POP JUMP JUMPDEST PUSH1 0x0 PUSH1 0x8 DUP4 MUL PUSH3 0x793 PUSH32 0xFFFFFFFFFFFFFFFFFFFFFFFFFFFFFFFFFFFFFFFFFFFFFFFFFFFFFFFFFFFFFFFF DUP3 PUSH3 0x754 JUMP JUMPDEST PUSH3 0x79F DUP7 DUP4 PUSH3 0x754 JUMP JUMPDEST SWAP6 POP DUP1 NOT DUP5 AND SWAP4 POP DUP1 DUP7 AND DUP5 OR SWAP3 POP POP POP SWAP4 SWAP3 POP POP POP JUMP JUMPDEST PUSH1 0x0 DUP2 SWAP1 POP SWAP2 SWAP1 POP JUMP JUMPDEST PUSH1 0x0 DUP2 SWAP1 POP SWAP2 SWAP1 POP JUMP JUMPDEST PUSH1 0x0 PUSH3 0x7EC PUSH3 0x7E6 PUSH3 0x7E0 DUP5 PUSH3 0x7B7 JUMP JUMPDEST PUSH3 0x7C1 JUMP JUMPDEST PUSH3 0x7B7 JUMP JUMPDEST SWAP1 POP SWAP2 SWAP1 POP JUMP JUMPDEST PUSH1 0x0 DUP2 SWAP1 POP SWAP2 SWAP1 POP JUMP JUMPDEST PUSH3 0x808 DUP4 PUSH3 0x7CB JUMP JUMPDEST PUSH3 0x820 PUSH3 0x817 DUP3 PUSH3 0x7F3 JUMP JUMPDEST DUP5 DUP5 SLOAD PUSH3 0x761 JUMP JUMPDEST DUP3 SSTORE POP POP POP POP JUMP JUMPDEST PUSH1 0x0 SWAP1 JUMP JUMPDEST PUSH3 0x837 PUSH3 0x828 JUMP JUMPDEST PUSH3 0x844 DUP2 DUP5 DUP5 PUSH3 0x7FD JUMP JUMPDEST POP POP POP JUMP JUMPDEST JUMPDEST DUP2 DUP2 LT ISZERO PUSH3 0x86C JUMPI PUSH3 0x860 PUSH1 0x0 DUP3 PUSH3 0x82D JUMP JUMPDEST PUSH1 0x1 DUP2 ADD SWAP1 POP PUSH3 0x84A JUMP JUMPDEST POP POP JUMP JUMPDEST PUSH1 0x1F DUP3 GT ISZERO PUSH3 0x8BB JUMPI PUSH3 0x885 DUP2 PUSH3 0x72F JUMP JUMPDEST PUSH3 0x890 DUP5 PUSH3 0x744 JUMP JUMPDEST DUP2 ADD PUSH1 0x20 DUP6 LT ISZERO PUSH3 0x8A0 JUMPI DUP2 SWAP1 POP JUMPDEST PUSH3 0x8B8 PUSH3 0x8AF DUP6 PUSH3 0x744 JUMP JUMPDEST DUP4 ADD DUP3 PUSH3 0x849 JUMP JUMPDEST POP POP JUMPDEST POP POP POP JUMP JUMPDEST PUSH1 0x0 DUP3 DUP3 SHR SWAP1 POP SWAP3 SWAP2 POP POP JUMP JUMPDEST PUSH1 0x0 PUSH3 0x8E0 PUSH1 0x0 NOT DUP5 PUSH1 0x8 MUL PUSH3 0x8C0 JUMP JUMPDEST NOT DUP1 DUP4 AND SWAP2 POP POP SWAP3 SWAP2 POP POP JUMP JUMPDEST PUSH1 0x0 PUSH3 0x8FB DUP4 DUP4 PUSH3 0x8CD JUMP JUMPDEST SWAP2 POP DUP3 PUSH1 0x2 MUL DUP3 OR SWAP1 POP SWAP3 SWAP2 POP POP JUMP JUMPDEST PUSH3 0x916 DUP3 PUSH3 0x691 JUMP JUMPDEST PUSH8 0xFFFFFFFFFFFFFFFF DUP2 GT ISZERO PUSH3 0x932 JUMPI PUSH3 0x931 PUSH3 0x69C JUMP JUMPDEST JUMPDEST PUSH3 0x93E DUP3 SLOAD PUSH3 0x6FA JUMP JUMPDEST PUSH3 0x94B DUP3 DUP3 DUP6 PUSH3 0x870 JUMP JUMPDEST PUSH1 0x0 PUSH1 0x20 SWAP1 POP PUSH1 0x1F DUP4 GT PUSH1 0x1 DUP2 EQ PUSH3 0x983 JUMPI PUSH1 0x0 DUP5 ISZERO PUSH3 0x96E JUMPI DUP3 DUP8 ADD MLOAD SWAP1 POP JUMPDEST PUSH3 0x97A DUP6 DUP3 PUSH3 0x8ED JUMP JUMPDEST DUP7 SSTORE POP PUSH3 0x9EA JUMP JUMPDEST PUSH1 0x1F NOT DUP5 AND PUSH3 0x993 DUP7 PUSH3 0x72F JUMP JUMPDEST PUSH1 0x0 JUMPDEST DUP3 DUP2 LT ISZERO PUSH3 0x9BD JUMPI DUP5 DUP10 ADD MLOAD DUP3 SSTORE PUSH1 0x1 DUP3 ADD SWAP2 POP PUSH1 0x20 DUP6 ADD SWAP5 POP PUSH1 0x20 DUP2 ADD SWAP1 POP PUSH3 0x996 JUMP JUMPDEST DUP7 DUP4 LT ISZERO PUSH3 0x9DD JUMPI DUP5 DUP10 ADD MLOAD PUSH3 0x9D9 PUSH1 0x1F DUP10 AND DUP3 PUSH3 0x8CD JUMP JUMPDEST DUP4 SSTORE POP JUMPDEST PUSH1 0x1 PUSH1 0x2 DUP9 MUL ADD DUP9 SSTORE POP POP POP JUMPDEST POP POP POP POP POP POP JUMP JUMPDEST PUSH32 0x4E487B7100000000000000000000000000000000000000000000000000000000 PUSH1 0x0 MSTORE PUSH1 0x11 PUSH1 0x4 MSTORE PUSH1 0x24 PUSH1 0x0 REVERT JUMPDEST PUSH1 0x0 DUP2 PUSH1 0x1 SHR SWAP1 POP SWAP2 SWAP1 POP JUMP JUMPDEST PUSH1 0x0 DUP1 DUP3 SWAP2 POP DUP4 SWAP1 POP JUMPDEST PUSH1 0x1 DUP6 GT ISZERO PUSH3 0xA80 JUMPI DUP1 DUP7 DIV DUP2 GT ISZERO PUSH3 0xA58 JUMPI PUSH3 0xA57 PUSH3 0x9F2 JUMP JUMPDEST JUMPDEST PUSH1 0x1 DUP6 AND ISZERO PUSH3 0xA68 JUMPI DUP1 DUP3 MUL SWAP2 POP JUMPDEST DUP1 DUP2 MUL SWAP1 POP PUSH3 0xA78 DUP6 PUSH3 0xA21 JUMP JUMPDEST SWAP5 POP PUSH3 0xA38 JUMP JUMPDEST SWAP5 POP SWAP5 SWAP3 POP POP POP JUMP JUMPDEST PUSH1 0x0 DUP3 PUSH3 0xA9B JUMPI PUSH1 0x1 SWAP1 POP PUSH3 0xB6E JUMP JUMPDEST DUP2 PUSH3 0xAAB JUMPI PUSH1 0x0 SWAP1 POP PUSH3 0xB6E JUMP JUMPDEST DUP2 PUSH1 0x1 DUP2 EQ PUSH3 0xAC4 JUMPI PUSH1 0x2 DUP2 EQ PUSH3 0xACF JUMPI PUSH3 0xB05 JUMP JUMPDEST PUSH1 0x1 SWAP2 POP POP PUSH3 0xB6E JUMP JUMPDEST PUSH1 0xFF DUP5 GT ISZERO PUSH3 0xAE4 JUMPI PUSH3 0xAE3 PUSH3 0x9F2 JUMP JUMPDEST JUMPDEST DUP4 PUSH1 0x2 EXP SWAP2 POP DUP5 DUP3 GT ISZERO PUSH3 0xAFE JUMPI PUSH3 0xAFD PUSH3 0x9F2 JUMP JUMPDEST JUMPDEST POP PUSH3 0xB6E JUMP JUMPDEST POP PUSH1 0x20 DUP4 LT PUSH2 0x133 DUP4 LT AND PUSH1 0x4E DUP5 LT PUSH1 0xB DUP5 LT AND OR ISZERO PUSH3 0xB3F JUMPI DUP3 DUP3 EXP SWAP1 POP DUP4 DUP2 GT ISZERO PUSH3 0xB39 JUMPI PUSH3 0xB38 PUSH3 0x9F2 JUMP JUMPDEST JUMPDEST PUSH3 0xB6E JUMP JUMPDEST PUSH3 0xB4E DUP5 DUP5 DUP5 PUSH1 0x1 PUSH3 0xA2E JUMP JUMPDEST SWAP3 POP SWAP1 POP DUP2 DUP5 DIV DUP2 GT ISZERO PUSH3 0xB68 JUMPI PUSH3 0xB67 PUSH3 0x9F2 JUMP JUMPDEST JUMPDEST DUP2 DUP2 MUL SWAP1 POP JUMPDEST SWAP4 SWAP3 POP POP POP JUMP JUMPDEST PUSH1 0x0 PUSH1 0xFF DUP3 AND SWAP1 POP SWAP2 SWAP1 POP JUMP JUMPDEST PUSH1 0x0 PUSH3 0xB8F DUP3 PUSH3 0x7B7 JUMP JUMPDEST SWAP2 POP PUSH3 0xB9C DUP4 PUSH3 0xB75 JUMP JUMPDEST SWAP3 POP PUSH3 0xBCB PUSH32 0xFFFFFFFFFFFFFFFFFFFFFFFFFFFFFFFFFFFFFFFFFFFFFFFFFFFFFFFFFFFFFFFF DUP5 DUP5 PUSH3 0xA89 JUMP JUMPDEST SWAP1 POP SWAP3 SWAP2 POP POP JUMP JUMPDEST PUSH1 0x0 PUSH3 0xBE0 DUP3 PUSH3 0x7B7 JUMP JUMPDEST SWAP2 POP PUSH32 0xFFFFFFFFFFFFFFFFFFFFFFFFFFFFFFFFFFFFFFFFFFFFFFFFFFFFFFFFFFFFFFFF DUP3 SUB PUSH3 0xC15 JUMPI PUSH3 0xC14 PUSH3 0x9F2 JUMP JUMPDEST JUMPDEST PUSH1 0x1 DUP3 ADD SWAP1 POP SWAP2 SWAP1 POP JUMP JUMPDEST PUSH1 0x0 DUP3 DUP3 MSTORE PUSH1 0x20 DUP3 ADD SWAP1 POP SWAP3 SWAP2 POP POP JUMP JUMPDEST PUSH32 0x45524332303A206D696E7420746F20746865207A65726F206164647265737300 PUSH1 0x0 DUP3 ADD MSTORE POP JUMP JUMPDEST PUSH1 0x0 PUSH3 0xC69 PUSH1 0x1F DUP4 PUSH3 0xC20 JUMP JUMPDEST SWAP2 POP PUSH3 0xC76 DUP3 PUSH3 0xC31 JUMP JUMPDEST PUSH1 0x20 DUP3 ADD SWAP1 POP SWAP2 SWAP1 POP JUMP JUMPDEST PUSH1 0x0 PUSH1 0x20 DUP3 ADD SWAP1 POP DUP2 DUP2 SUB PUSH1 0x0 DUP4 ADD MSTORE PUSH3 0xC9C DUP2 PUSH3 0xC5A JUMP JUMPDEST SWAP1 POP SWAP2 SWAP1 POP JUMP JUMPDEST PUSH1 0x0 PUSH3 0xCB0 DUP3 PUSH3 0x7B7 JUMP JUMPDEST SWAP2 POP PUSH3 0xCBD DUP4 PUSH3 0x7B7 JUMP JUMPDEST SWAP3 POP DUP3 DUP3 ADD SWAP1 POP DUP1 DUP3 GT ISZERO PUSH3 0xCD8 JUMPI PUSH3 0xCD7 PUSH3 0x9F2 JUMP JUMPDEST JUMPDEST SWAP3 SWAP2 POP POP JUMP JUMPDEST PUSH3 0xCE9 DUP2 PUSH3 0x7B7 JUMP JUMPDEST DUP3 MSTORE POP POP JUMP JUMPDEST PUSH1 0x0 PUSH1 0x20 DUP3 ADD SWAP1 POP PUSH3 0xD06 PUSH1 0x0 DUP4 ADD DUP5 PUSH3 0xCDE JUMP JUMPDEST SWAP3 SWAP2 POP POP JUMP JUMPDEST PUSH2 0x1B77 DUP1 PUSH3 0xD1C PUSH1 0x0 CODECOPY PUSH1 0x0 RETURN INVALID PUSH1 0x80 PUSH1 0x40 MSTORE CALLVALUE DUP1 ISZERO PUSH2 0x10 JUMPI PUSH1 0x0 DUP1 REVERT JUMPDEST POP PUSH1 0x4 CALLDATASIZE LT PUSH2 0x12C JUMPI PUSH1 0x0 CALLDATALOAD PUSH1 0xE0 SHR DUP1 PUSH4 0x537DF3B6 GT PUSH2 0xAD JUMPI DUP1 PUSH4 0xA457C2D7 GT PUSH2 0x71 JUMPI DUP1 PUSH4 0xA457C2D7 EQ PUSH2 0x36D JUMPI DUP1 PUSH4 0xA9059CBB EQ PUSH2 0x39D JUMPI DUP1 PUSH4 0xBEC3FA17 EQ PUSH2 0x3CD JUMPI DUP1 PUSH4 0xC4F576C7 EQ PUSH2 0x3E9 JUMPI DUP1 PUSH4 0xDD62ED3E EQ PUSH2 0x419 JUMPI PUSH2 0x12C JUMP JUMPDEST DUP1 PUSH4 0x537DF3B6 EQ PUSH2 0x2B5 JUMPI DUP1 PUSH4 0x70A08231 EQ PUSH2 0x2D1 JUMPI DUP1 PUSH4 0x7E1C0C09 EQ PUSH2 0x301 JUMPI DUP1 PUSH4 0x85D4755B EQ PUSH2 0x31F JUMPI DUP1 PUSH4 0x95D89B41 EQ PUSH2 0x34F JUMPI PUSH2 0x12C JUMP JUMPDEST DUP1 PUSH4 0x23B872DD GT PUSH2 0xF4 JUMPI DUP1 PUSH4 0x23B872DD EQ PUSH2 0x1EB JUMPI DUP1 PUSH4 0x2431B6D5 EQ PUSH2 0x21B JUMPI DUP1 PUSH4 0x313CE567 EQ PUSH2 0x24B JUMPI DUP1 PUSH4 0x39509351 EQ PUSH2 0x269 JUMPI DUP1 PUSH4 0x44337EA1 EQ PUSH2 0x299 JUMPI PUSH2 0x12C JUMP JUMPDEST DUP1 PUSH4 0x47C0889 EQ PUSH2 0x131 JUMPI DUP1 PUSH4 0x6FDDE03 EQ PUSH2 0x161 JUMPI DUP1 PUSH4 0x95EA7B3 EQ PUSH2 0x17F JUMPI DUP1 PUSH4 0x12065FE0 EQ PUSH2 0x1AF JUMPI DUP1 PUSH4 0x18160DDD EQ PUSH2 0x1CD JUMPI JUMPDEST PUSH1 0x0 DUP1 REVERT JUMPDEST PUSH2 0x14B PUSH1 0x4 DUP1 CALLDATASIZE SUB DUP2 ADD SWAP1 PUSH2 0x146 SWAP2 SWAP1 PUSH2 0x1222 JUMP JUMPDEST PUSH2 0x449 JUMP JUMPDEST PUSH1 0x40 MLOAD PUSH2 0x158 SWAP2 SWAP1 PUSH2 0x12DF JUMP JUMPDEST PUSH1 0x40 MLOAD DUP1 SWAP2 SUB SWAP1 RETURN JUMPDEST PUSH2 0x169 PUSH2 0x4E9 JUMP JUMPDEST PUSH1 0x40 MLOAD PUSH2 0x176 SWAP2 SWAP1 PUSH2 0x12DF JUMP JUMPDEST PUSH1 0x40 MLOAD DUP1 SWAP2 SUB SWAP1 RETURN JUMPDEST PUSH2 0x199 PUSH1 0x4 DUP1 CALLDATASIZE SUB DUP2 ADD SWAP1 PUSH2 0x194 SWAP2 SWAP1 PUSH2 0x135F JUMP JUMPDEST PUSH2 0x57B JUMP JUMPDEST PUSH1 0x40 MLOAD PUSH2 0x1A6 SWAP2 SWAP1 PUSH2 0x13BA JUMP JUMPDEST PUSH1 0x40 MLOAD DUP1 SWAP2 SUB SWAP1 RETURN JUMPDEST PUSH2 0x1B7 PUSH2 0x59E JUMP JUMPDEST PUSH1 0x40 MLOAD PUSH2 0x1C4 SWAP2 SWAP1 PUSH2 0x13E4 JUMP JUMPDEST PUSH1 0x40 MLOAD DUP1 SWAP2 SUB SWAP1 RETURN JUMPDEST PUSH2 0x1D5 PUSH2 0x5AE JUMP JUMPDEST PUSH1 0x40 MLOAD PUSH2 0x1E2 SWAP2 SWAP1 PUSH2 0x13E4 JUMP JUMPDEST PUSH1 0x40 MLOAD DUP1 SWAP2 SUB SWAP1 RETURN JUMPDEST PUSH2 0x205 PUSH1 0x4 DUP1 CALLDATASIZE SUB DUP2 ADD SWAP1 PUSH2 0x200 SWAP2 SWAP1 PUSH2 0x13FF JUMP JUMPDEST PUSH2 0x5B8 JUMP JUMPDEST PUSH1 0x40 MLOAD PUSH2 0x212 SWAP2 SWAP1 PUSH2 0x13BA JUMP JUMPDEST PUSH1 0x40 MLOAD DUP1 SWAP2 SUB SWAP1 RETURN JUMPDEST PUSH2 0x235 PUSH1 0x4 DUP1 CALLDATASIZE SUB DUP2 ADD SWAP1 PUSH2 0x230 SWAP2 SWAP1 PUSH2 0x1222 JUMP JUMPDEST PUSH2 0x5E7 JUMP JUMPDEST PUSH1 0x40 MLOAD PUSH2 0x242 SWAP2 SWAP1 PUSH2 0x12DF JUMP JUMPDEST PUSH1 0x40 MLOAD DUP1 SWAP2 SUB SWAP1 RETURN JUMPDEST PUSH2 0x253 PUSH2 0x687 JUMP JUMPDEST PUSH1 0x40 MLOAD PUSH2 0x260 SWAP2 SWAP1 PUSH2 0x146E JUMP JUMPDEST PUSH1 0x40 MLOAD DUP1 SWAP2 SUB SWAP1 RETURN JUMPDEST PUSH2 0x283 PUSH1 0x4 DUP1 CALLDATASIZE SUB DUP2 ADD SWAP1 PUSH2 0x27E SWAP2 SWAP1 PUSH2 0x135F JUMP JUMPDEST PUSH2 0x690 JUMP JUMPDEST PUSH1 0x40 MLOAD PUSH2 0x290 SWAP2 SWAP1 PUSH2 0x13BA JUMP JUMPDEST PUSH1 0x40 MLOAD DUP1 SWAP2 SUB SWAP1 RETURN JUMPDEST PUSH2 0x2B3 PUSH1 0x4 DUP1 CALLDATASIZE SUB DUP2 ADD SWAP1 PUSH2 0x2AE SWAP2 SWAP1 PUSH2 0x1489 JUMP JUMPDEST PUSH2 0x6C7 JUMP JUMPDEST STOP JUMPDEST PUSH2 0x2CF PUSH1 0x4 DUP1 CALLDATASIZE SUB DUP2 ADD SWAP1 PUSH2 0x2CA SWAP2 SWAP1 PUSH2 0x1489 JUMP JUMPDEST PUSH2 0x7AF JUMP JUMPDEST STOP JUMPDEST PUSH2 0x2EB PUSH1 0x4 DUP1 CALLDATASIZE SUB DUP2 ADD SWAP1 PUSH2 0x2E6 SWAP2 SWAP1 PUSH2 0x1489 JUMP JUMPDEST PUSH2 0x896 JUMP JUMPDEST PUSH1 0x40 MLOAD PUSH2 0x2F8 SWAP2 SWAP1 PUSH2 0x13E4 JUMP JUMPDEST PUSH1 0x40 MLOAD DUP1 SWAP2 SUB SWAP1 RETURN JUMPDEST PUSH2 0x309 PUSH2 0x8DE JUMP JUMPDEST PUSH1 0x40 MLOAD PUSH2 0x316 SWAP2 SWAP1 PUSH2 0x13E4 JUMP JUMPDEST PUSH1 0x40 MLOAD DUP1 SWAP2 SUB SWAP1 RETURN JUMPDEST PUSH2 0x339 PUSH1 0x4 DUP1 CALLDATASIZE SUB DUP2 ADD SWAP1 PUSH2 0x334 SWAP2 SWAP1 PUSH2 0x1222 JUMP JUMPDEST PUSH2 0x8E4 JUMP JUMPDEST PUSH1 0x40 MLOAD PUSH2 0x346 SWAP2 SWAP1 PUSH2 0x12DF JUMP JUMPDEST PUSH1 0x40 MLOAD DUP1 SWAP2 SUB SWAP1 RETURN JUMPDEST PUSH2 0x357 PUSH2 0x989 JUMP JUMPDEST PUSH1 0x40 MLOAD PUSH2 0x364 SWAP2 SWAP1 PUSH2 0x12DF JUMP JUMPDEST PUSH1 0x40 MLOAD DUP1 SWAP2 SUB SWAP1 RETURN JUMPDEST PUSH2 0x387 PUSH1 0x4 DUP1 CALLDATASIZE SUB DUP2 ADD SWAP1 PUSH2 0x382 SWAP2 SWAP1 PUSH2 0x135F JUMP JUMPDEST PUSH2 0xA1B JUMP JUMPDEST PUSH1 0x40 MLOAD PUSH2 0x394 SWAP2 SWAP1 PUSH2 0x13BA JUMP JUMPDEST PUSH1 0x40 MLOAD DUP1 SWAP2 SUB SWAP1 RETURN JUMPDEST PUSH2 0x3B7 PUSH1 0x4 DUP1 CALLDATASIZE SUB DUP2 ADD SWAP1 PUSH2 0x3B2 SWAP2 SWAP1 PUSH2 0x135F JUMP JUMPDEST PUSH2 0xA92 JUMP JUMPDEST PUSH1 0x40 MLOAD PUSH2 0x3C4 SWAP2 SWAP1 PUSH2 0x13BA JUMP JUMPDEST PUSH1 0x40 MLOAD DUP1 SWAP2 SUB SWAP1 RETURN JUMPDEST PUSH2 0x3E7 PUSH1 0x4 DUP1 CALLDATASIZE SUB DUP2 ADD SWAP1 PUSH2 0x3E2 SWAP2 SWAP1 PUSH2 0x135F JUMP JUMPDEST PUSH2 0xAB5 JUMP JUMPDEST STOP JUMPDEST PUSH2 0x403 PUSH1 0x4 DUP1 CALLDATASIZE SUB DUP2 ADD SWAP1 PUSH2 0x3FE SWAP2 SWAP1 PUSH2 0x1222 JUMP JUMPDEST PUSH2 0xBDE JUMP JUMPDEST PUSH1 0x40 MLOAD PUSH2 0x410 SWAP2 SWAP1 PUSH2 0x12DF JUMP JUMPDEST PUSH1 0x40 MLOAD DUP1 SWAP2 SUB SWAP1 RETURN JUMPDEST PUSH2 0x433 PUSH1 0x4 DUP1 CALLDATASIZE SUB DUP2 ADD SWAP1 PUSH2 0x42E SWAP2 SWAP1 PUSH2 0x14B6 JUMP JUMPDEST PUSH2 0xC83 JUMP JUMPDEST PUSH1 0x40 MLOAD PUSH2 0x440 SWAP2 SWAP1 PUSH2 0x13E4 JUMP JUMPDEST PUSH1 0x40 MLOAD DUP1 SWAP2 SUB SWAP1 RETURN JUMPDEST PUSH1 0x6 PUSH1 0x20 MSTORE DUP1 PUSH1 0x0 MSTORE PUSH1 0x40 PUSH1 0x0 KECCAK256 PUSH1 0x0 SWAP2 POP SWAP1 POP DUP1 SLOAD PUSH2 0x468 SWAP1 PUSH2 0x1525 JUMP JUMPDEST DUP1 PUSH1 0x1F ADD PUSH1 0x20 DUP1 SWAP2 DIV MUL PUSH1 0x20 ADD PUSH1 0x40 MLOAD SWAP1 DUP2 ADD PUSH1 0x40 MSTORE DUP1 SWAP3 SWAP2 SWAP1 DUP2 DUP2 MSTORE PUSH1 0x20 ADD DUP3 DUP1 SLOAD PUSH2 0x494 SWAP1 PUSH2 0x1525 JUMP JUMPDEST DUP1 ISZERO PUSH2 0x4E1 JUMPI DUP1 PUSH1 0x1F LT PUSH2 0x4B6 JUMPI PUSH2 0x100 DUP1 DUP4 SLOAD DIV MUL DUP4 MSTORE SWAP2 PUSH1 0x20 ADD SWAP2 PUSH2 0x4E1 JUMP JUMPDEST DUP3 ADD SWAP2 SWAP1 PUSH1 0x0 MSTORE PUSH1 0x20 PUSH1 0x0 KECCAK256 SWAP1 JUMPDEST DUP2 SLOAD DUP2 MSTORE SWAP1 PUSH1 0x1 ADD SWAP1 PUSH1 0x20 ADD DUP1 DUP4 GT PUSH2 0x4C4 JUMPI DUP3 SWAP1 SUB PUSH1 0x1F AND DUP3 ADD SWAP2 JUMPDEST POP POP POP POP POP DUP2 JUMP JUMPDEST PUSH1 0x60 PUSH1 0x3 DUP1 SLOAD PUSH2 0x4F8 SWAP1 PUSH2 0x1525 JUMP JUMPDEST DUP1 PUSH1 0x1F ADD PUSH1 0x20 DUP1 SWAP2 DIV MUL PUSH1 0x20 ADD PUSH1 0x40 MLOAD SWAP1 DUP2 ADD PUSH1 0x40 MSTORE DUP1 SWAP3 SWAP2 SWAP1 DUP2 DUP2 MSTORE PUSH1 0x20 ADD DUP3 DUP1 SLOAD PUSH2 0x524 SWAP1 PUSH2 0x1525 JUMP JUMPDEST DUP1 ISZERO PUSH2 0x571 JUMPI DUP1 PUSH1 0x1F LT PUSH2 0x546 JUMPI PUSH2 0x100 DUP1 DUP4 SLOAD DIV MUL DUP4 MSTORE SWAP2 PUSH1 0x20 ADD SWAP2 PUSH2 0x571 JUMP JUMPDEST DUP3 ADD SWAP2 SWAP1 PUSH1 0x0 MSTORE PUSH1 0x20 PUSH1 0x0 KECCAK256 SWAP1 JUMPDEST DUP2 SLOAD DUP2 MSTORE SWAP1 PUSH1 0x1 ADD SWAP1 PUSH1 0x20 ADD DUP1 DUP4 GT PUSH2 0x554 JUMPI DUP3 SWAP1 SUB PUSH1 0x1F AND DUP3 ADD SWAP2 JUMPDEST POP POP POP POP POP SWAP1 POP SWAP1 JUMP JUMPDEST PUSH1 0x0 DUP1 PUSH2 0x586 PUSH2 0xD0A JUMP JUMPDEST SWAP1 POP PUSH2 0x593 DUP2 DUP6 DUP6 PUSH2 0xD12 JUMP JUMPDEST PUSH1 0x1 SWAP2 POP POP SWAP3 SWAP2 POP POP JUMP JUMPDEST PUSH1 0x0 PUSH2 0x5A9 CALLER PUSH2 0x896 JUMP JUMPDEST SWAP1 POP SWAP1 JUMP JUMPDEST PUSH1 0x0 PUSH1 0x2 SLOAD SWAP1 POP SWAP1 JUMP JUMPDEST PUSH1 0x0 DUP1 PUSH2 0x5C3 PUSH2 0xD0A JUMP JUMPDEST SWAP1 POP PUSH2 0x5D0 DUP6 DUP3 DUP6 PUSH2 0xEDB JUMP JUMPDEST PUSH2 0x5DB DUP6 DUP6 DUP6 PUSH2 0xF67 JUMP JUMPDEST PUSH1 0x1 SWAP2 POP POP SWAP4 SWAP3 POP POP POP JUMP JUMPDEST PUSH1 0x5 PUSH1 0x20 MSTORE DUP1 PUSH1 0x0 MSTORE PUSH1 0x40 PUSH1 0x0 KECCAK256 PUSH1 0x0 SWAP2 POP SWAP1 POP DUP1 SLOAD PUSH2 0x606 SWAP1 PUSH2 0x1525 JUMP JUMPDEST DUP1 PUSH1 0x1F ADD PUSH1 0x20 DUP1 SWAP2 DIV MUL PUSH1 0x20 ADD PUSH1 0x40 MLOAD SWAP1 DUP2 ADD PUSH1 0x40 MSTORE DUP1 SWAP3 SWAP2 SWAP1 DUP2 DUP2 MSTORE PUSH1 0x20 ADD DUP3 DUP1 SLOAD PUSH2 0x632 SWAP1 PUSH2 0x1525 JUMP JUMPDEST DUP1 ISZERO PUSH2 0x67F JUMPI DUP1 PUSH1 0x1F LT PUSH2 0x654 JUMPI PUSH2 0x100 DUP1 DUP4 SLOAD DIV MUL DUP4 MSTORE SWAP2 PUSH1 0x20 ADD SWAP2 PUSH2 0x67F JUMP JUMPDEST DUP3 ADD SWAP2 SWAP1 PUSH1 0x0 MSTORE PUSH1 0x20 PUSH1 0x0 KECCAK256 SWAP1 JUMPDEST DUP2 SLOAD DUP2 MSTORE SWAP1 PUSH1 0x1 ADD SWAP1 PUSH1 0x20 ADD DUP1 DUP4 GT PUSH2 0x662 JUMPI DUP3 SWAP1 SUB PUSH1 0x1F AND DUP3 ADD SWAP2 JUMPDEST POP POP POP POP POP DUP2 JUMP JUMPDEST PUSH1 0x0 PUSH1 0x12 SWAP1 POP SWAP1 JUMP JUMPDEST PUSH1 0x0 DUP1 PUSH2 0x69B PUSH2 0xD0A JUMP JUMPDEST SWAP1 POP PUSH2 0x6BC DUP2 DUP6 DUP6 PUSH2 0x6AD DUP6 DUP10 PUSH2 0xC83 JUMP JUMPDEST PUSH2 0x6B7 SWAP2 SWAP1 PUSH2 0x1585 JUMP JUMPDEST PUSH2 0xD12 JUMP JUMPDEST PUSH1 0x1 SWAP2 POP POP SWAP3 SWAP2 POP POP JUMP JUMPDEST PUSH1 0x7 PUSH1 0x0 DUP3 PUSH20 0xFFFFFFFFFFFFFFFFFFFFFFFFFFFFFFFFFFFFFFFF AND PUSH20 0xFFFFFFFFFFFFFFFFFFFFFFFFFFFFFFFFFFFFFFFF AND DUP2 MSTORE PUSH1 0x20 ADD SWAP1 DUP2 MSTORE PUSH1 0x20 ADD PUSH1 0x0 KECCAK256 PUSH1 0x0 SWAP1 SLOAD SWAP1 PUSH2 0x100 EXP SWAP1 DIV PUSH1 0xFF AND ISZERO PUSH2 0x754 JUMPI PUSH1 0x40 MLOAD PUSH32 0x8C379A000000000000000000000000000000000000000000000000000000000 DUP2 MSTORE PUSH1 0x4 ADD PUSH2 0x74B SWAP1 PUSH2 0x1605 JUMP JUMPDEST PUSH1 0x40 MLOAD DUP1 SWAP2 SUB SWAP1 REVERT JUMPDEST PUSH1 0x1 PUSH1 0x7 PUSH1 0x0 DUP4 PUSH20 0xFFFFFFFFFFFFFFFFFFFFFFFFFFFFFFFFFFFFFFFF AND PUSH20 0xFFFFFFFFFFFFFFFFFFFFFFFFFFFFFFFFFFFFFFFF AND DUP2 MSTORE PUSH1 0x20 ADD SWAP1 DUP2 MSTORE PUSH1 0x20 ADD PUSH1 0x0 KECCAK256 PUSH1 0x0 PUSH2 0x100 EXP DUP2 SLOAD DUP2 PUSH1 0xFF MUL NOT AND SWAP1 DUP4 ISZERO ISZERO MUL OR SWAP1 SSTORE POP POP JUMP JUMPDEST PUSH1 0x7 PUSH1 0x0 DUP3 PUSH20 0xFFFFFFFFFFFFFFFFFFFFFFFFFFFFFFFFFFFFFFFF AND PUSH20 0xFFFFFFFFFFFFFFFFFFFFFFFFFFFFFFFFFFFFFFFF AND DUP2 MSTORE PUSH1 0x20 ADD SWAP1 DUP2 MSTORE PUSH1 0x20 ADD PUSH1 0x0 KECCAK256 PUSH1 0x0 SWAP1 SLOAD SWAP1 PUSH2 0x100 EXP SWAP1 DIV PUSH1 0xFF AND PUSH2 0x83B JUMPI PUSH1 0x40 MLOAD PUSH32 0x8C379A000000000000000000000000000000000000000000000000000000000 DUP2 MSTORE PUSH1 0x4 ADD PUSH2 0x832 SWAP1 PUSH2 0x1671 JUMP JUMPDEST PUSH1 0x40 MLOAD DUP1 SWAP2 SUB SWAP1 REVERT JUMPDEST PUSH1 0x0 PUSH1 0x7 PUSH1 0x0 DUP4 PUSH20 0xFFFFFFFFFFFFFFFFFFFFFFFFFFFFFFFFFFFFFFFF AND PUSH20 0xFFFFFFFFFFFFFFFFFFFFFFFFFFFFFFFFFFFFFFFF AND DUP2 MSTORE PUSH1 0x20 ADD SWAP1 DUP2 MSTORE PUSH1 0x20 ADD PUSH1 0x0 KECCAK256 PUSH1 0x0 PUSH2 0x100 EXP DUP2 SLOAD DUP2 PUSH1 0xFF MUL NOT AND SWAP1 DUP4 ISZERO ISZERO MUL OR SWAP1 SSTORE POP POP JUMP JUMPDEST PUSH1 0x0 DUP1 PUSH1 0x0 DUP4 PUSH20 0xFFFFFFFFFFFFFFFFFFFFFFFFFFFFFFFFFFFFFFFF AND PUSH20 0xFFFFFFFFFFFFFFFFFFFFFFFFFFFFFFFFFFFFFFFF AND DUP2 MSTORE PUSH1 0x20 ADD SWAP1 DUP2 MSTORE PUSH1 0x20 ADD PUSH1 0x0 KECCAK256 SLOAD SWAP1 POP SWAP2 SWAP1 POP JUMP JUMPDEST PUSH1 0x8 SLOAD DUP2 JUMP JUMPDEST PUSH1 0x60 PUSH1 0x6 PUSH1 0x0 DUP4 DUP2 MSTORE PUSH1 0x20 ADD SWAP1 DUP2 MSTORE PUSH1 0x20 ADD PUSH1 0x0 KECCAK256 DUP1 SLOAD PUSH2 0x904 SWAP1 PUSH2 0x1525 JUMP JUMPDEST DUP1 PUSH1 0x1F ADD PUSH1 0x20 DUP1 SWAP2 DIV MUL PUSH1 0x20 ADD PUSH1 0x40 MLOAD SWAP1 DUP2 ADD PUSH1 0x40 MSTORE DUP1 SWAP3 SWAP2 SWAP1 DUP2 DUP2 MSTORE PUSH1 0x20 ADD DUP3 DUP1 SLOAD PUSH2 0x930 SWAP1 PUSH2 0x1525 JUMP JUMPDEST DUP1 ISZERO PUSH2 0x97D JUMPI DUP1 PUSH1 0x1F LT PUSH2 0x952 JUMPI PUSH2 0x100 DUP1 DUP4 SLOAD DIV MUL DUP4 MSTORE SWAP2 PUSH1 0x20 ADD SWAP2 PUSH2 0x97D JUMP JUMPDEST DUP3 ADD SWAP2 SWAP1 PUSH1 0x0 MSTORE PUSH1 0x20 PUSH1 0x0 KECCAK256 SWAP1 JUMPDEST DUP2 SLOAD DUP2 MSTORE SWAP1 PUSH1 0x1 ADD SWAP1 PUSH1 0x20 ADD DUP1 DUP4 GT PUSH2 0x960 JUMPI DUP3 SWAP1 SUB PUSH1 0x1F AND DUP3 ADD SWAP2 JUMPDEST POP POP POP POP POP SWAP1 POP SWAP2 SWAP1 POP JUMP JUMPDEST PUSH1 0x60 PUSH1 0x4 DUP1 SLOAD PUSH2 0x998 SWAP1 PUSH2 0x1525 JUMP JUMPDEST DUP1 PUSH1 0x1F ADD PUSH1 0x20 DUP1 SWAP2 DIV MUL PUSH1 0x20 ADD PUSH1 0x40 MLOAD SWAP1 DUP2 ADD PUSH1 0x40 MSTORE DUP1 SWAP3 SWAP2 SWAP1 DUP2 DUP2 MSTORE PUSH1 0x20 ADD DUP3 DUP1 SLOAD PUSH2 0x9C4 SWAP1 PUSH2 0x1525 JUMP JUMPDEST DUP1 ISZERO PUSH2 0xA11 JUMPI DUP1 PUSH1 0x1F LT PUSH2 0x9E6 JUMPI PUSH2 0x100 DUP1 DUP4 SLOAD DIV MUL DUP4 MSTORE SWAP2 PUSH1 0x20 ADD SWAP2 PUSH2 0xA11 JUMP JUMPDEST DUP3 ADD SWAP2 SWAP1 PUSH1 0x0 MSTORE PUSH1 0x20 PUSH1 0x0 KECCAK256 SWAP1 JUMPDEST DUP2 SLOAD DUP2 MSTORE SWAP1 PUSH1 0x1 ADD SWAP1 PUSH1 0x20 ADD DUP1 DUP4 GT PUSH2 0x9F4 JUMPI DUP3 SWAP1 SUB PUSH1 0x1F AND DUP3 ADD SWAP2 JUMPDEST POP POP POP POP POP SWAP1 POP SWAP1 JUMP JUMPDEST PUSH1 0x0 DUP1 PUSH2 0xA26 PUSH2 0xD0A JUMP JUMPDEST SWAP1 POP PUSH1 0x0 PUSH2 0xA34 DUP3 DUP7 PUSH2 0xC83 JUMP JUMPDEST SWAP1 POP DUP4 DUP2 LT ISZERO PUSH2 0xA79 JUMPI PUSH1 0x40 MLOAD PUSH32 0x8C379A000000000000000000000000000000000000000000000000000000000 DUP2 MSTORE PUSH1 0x4 ADD PUSH2 0xA70 SWAP1 PUSH2 0x1703 JUMP JUMPDEST PUSH1 0x40 MLOAD DUP1 SWAP2 SUB SWAP1 REVERT JUMPDEST PUSH2 0xA86 DUP3 DUP7 DUP7 DUP5 SUB PUSH2 0xD12 JUMP JUMPDEST PUSH1 0x1 SWAP3 POP POP POP SWAP3 SWAP2 POP POP JUMP JUMPDEST PUSH1 0x0 DUP1 PUSH2 0xA9D PUSH2 0xD0A JUMP JUMPDEST SWAP1 POP PUSH2 0xAAA DUP2 DUP6 DUP6 PUSH2 0xF67 JUMP JUMPDEST PUSH1 0x1 SWAP2 POP POP SWAP3 SWAP2 POP POP JUMP JUMPDEST PUSH1 0x7 PUSH1 0x0 CALLER PUSH20 0xFFFFFFFFFFFFFFFFFFFFFFFFFFFFFFFFFFFFFFFF AND PUSH20 0xFFFFFFFFFFFFFFFFFFFFFFFFFFFFFFFFFFFFFFFF AND DUP2 MSTORE PUSH1 0x20 ADD SWAP1 DUP2 MSTORE PUSH1 0x20 ADD PUSH1 0x0 KECCAK256 PUSH1 0x0 SWAP1 SLOAD SWAP1 PUSH2 0x100 EXP SWAP1 DIV PUSH1 0xFF AND ISZERO PUSH2 0xB42 JUMPI PUSH1 0x40 MLOAD PUSH32 0x8C379A000000000000000000000000000000000000000000000000000000000 DUP2 MSTORE PUSH1 0x4 ADD PUSH2 0xB39 SWAP1 PUSH2 0x176F JUMP JUMPDEST PUSH1 0x40 MLOAD DUP1 SWAP2 SUB SWAP1 REVERT JUMPDEST PUSH1 0x7 PUSH1 0x0 DUP4 PUSH20 0xFFFFFFFFFFFFFFFFFFFFFFFFFFFFFFFFFFFFFFFF AND PUSH20 0xFFFFFFFFFFFFFFFFFFFFFFFFFFFFFFFFFFFFFFFF AND DUP2 MSTORE PUSH1 0x20 ADD SWAP1 DUP2 MSTORE PUSH1 0x20 ADD PUSH1 0x0 KECCAK256 PUSH1 0x0 SWAP1 SLOAD SWAP1 PUSH2 0x100 EXP SWAP1 DIV PUSH1 0xFF AND ISZERO PUSH2 0xBCF JUMPI PUSH1 0x40 MLOAD PUSH32 0x8C379A000000000000000000000000000000000000000000000000000000000 DUP2 MSTORE PUSH1 0x4 ADD PUSH2 0xBC6 SWAP1 PUSH2 0x17DB JUMP JUMPDEST PUSH1 0x40 MLOAD DUP1 SWAP2 SUB SWAP1 REVERT JUMPDEST PUSH2 0xBDA CALLER DUP4 DUP4 PUSH2 0xF67 JUMP JUMPDEST POP POP JUMP JUMPDEST PUSH1 0x60 PUSH1 0x5 PUSH1 0x0 DUP4 DUP2 MSTORE PUSH1 0x20 ADD SWAP1 DUP2 MSTORE PUSH1 0x20 ADD PUSH1 0x0 KECCAK256 DUP1 SLOAD PUSH2 0xBFE SWAP1 PUSH2 0x1525 JUMP JUMPDEST DUP1 PUSH1 0x1F ADD PUSH1 0x20 DUP1 SWAP2 DIV MUL PUSH1 0x20 ADD PUSH1 0x40 MLOAD SWAP1 DUP2 ADD PUSH1 0x40 MSTORE DUP1 SWAP3 SWAP2 SWAP1 DUP2 DUP2 MSTORE PUSH1 0x20 ADD DUP3 DUP1 SLOAD PUSH2 0xC2A SWAP1 PUSH2 0x1525 JUMP JUMPDEST DUP1 ISZERO PUSH2 0xC77 JUMPI DUP1 PUSH1 0x1F LT PUSH2 0xC4C JUMPI PUSH2 0x100 DUP1 DUP4 SLOAD DIV MUL DUP4 MSTORE SWAP2 PUSH1 0x20 ADD SWAP2 PUSH2 0xC77 JUMP JUMPDEST DUP3 ADD SWAP2 SWAP1 PUSH1 0x0 MSTORE PUSH1 0x20 PUSH1 0x0 KECCAK256 SWAP1 JUMPDEST DUP2 SLOAD DUP2 MSTORE SWAP1 PUSH1 0x1 ADD SWAP1 PUSH1 0x20 ADD DUP1 DUP4 GT PUSH2 0xC5A JUMPI DUP3 SWAP1 SUB PUSH1 0x1F AND DUP3 ADD SWAP2 JUMPDEST POP POP POP POP POP SWAP1 POP SWAP2 SWAP1 POP JUMP JUMPDEST PUSH1 0x0 PUSH1 0x1 PUSH1 0x0 DUP5 PUSH20 0xFFFFFFFFFFFFFFFFFFFFFFFFFFFFFFFFFFFFFFFF AND PUSH20 0xFFFFFFFFFFFFFFFFFFFFFFFFFFFFFFFFFFFFFFFF AND DUP2 MSTORE PUSH1 0x20 ADD SWAP1 DUP2 MSTORE PUSH1 0x20 ADD PUSH1 0x0 KECCAK256 PUSH1 0x0 DUP4 PUSH20 0xFFFFFFFFFFFFFFFFFFFFFFFFFFFFFFFFFFFFFFFF AND PUSH20 0xFFFFFFFFFFFFFFFFFFFFFFFFFFFFFFFFFFFFFFFF AND DUP2 MSTORE PUSH1 0x20 ADD SWAP1 DUP2 MSTORE PUSH1 0x20 ADD PUSH1 0x0 KECCAK256 SLOAD SWAP1 POP SWAP3 SWAP2 POP POP JUMP JUMPDEST PUSH1 0x0 CALLER SWAP1 POP SWAP1 JUMP JUMPDEST PUSH1 0x0 PUSH20 0xFFFFFFFFFFFFFFFFFFFFFFFFFFFFFFFFFFFFFFFF AND DUP4 PUSH20 0xFFFFFFFFFFFFFFFFFFFFFFFFFFFFFFFFFFFFFFFF AND SUB PUSH2 0xD81 JUMPI PUSH1 0x40 MLOAD PUSH32 0x8C379A000000000000000000000000000000000000000000000000000000000 DUP2 MSTORE PUSH1 0x4 ADD PUSH2 0xD78 SWAP1 PUSH2 0x186D JUMP JUMPDEST PUSH1 0x40 MLOAD DUP1 SWAP2 SUB SWAP1 REVERT JUMPDEST PUSH1 0x0 PUSH20 0xFFFFFFFFFFFFFFFFFFFFFFFFFFFFFFFFFFFFFFFF AND DUP3 PUSH20 0xFFFFFFFFFFFFFFFFFFFFFFFFFFFFFFFFFFFFFFFF AND SUB PUSH2 0xDF0 JUMPI PUSH1 0x40 MLOAD PUSH32 0x8C379A000000000000000000000000000000000000000000000000000000000 DUP2 MSTORE PUSH1 0x4 ADD PUSH2 0xDE7 SWAP1 PUSH2 0x18FF JUMP JUMPDEST PUSH1 0x40 MLOAD DUP1 SWAP2 SUB SWAP1 REVERT JUMPDEST DUP1 PUSH1 0x1 PUSH1 0x0 DUP6 PUSH20 0xFFFFFFFFFFFFFFFFFFFFFFFFFFFFFFFFFFFFFFFF AND PUSH20 0xFFFFFFFFFFFFFFFFFFFFFFFFFFFFFFFFFFFFFFFF AND DUP2 MSTORE PUSH1 0x20 ADD SWAP1 DUP2 MSTORE PUSH1 0x20 ADD PUSH1 0x0 KECCAK256 PUSH1 0x0 DUP5 PUSH20 0xFFFFFFFFFFFFFFFFFFFFFFFFFFFFFFFFFFFFFFFF AND PUSH20 0xFFFFFFFFFFFFFFFFFFFFFFFFFFFFFFFFFFFFFFFF AND DUP2 MSTORE PUSH1 0x20 ADD SWAP1 DUP2 MSTORE PUSH1 0x20 ADD PUSH1 0x0 KECCAK256 DUP2 SWAP1 SSTORE POP DUP2 PUSH20 0xFFFFFFFFFFFFFFFFFFFFFFFFFFFFFFFFFFFFFFFF AND DUP4 PUSH20 0xFFFFFFFFFFFFFFFFFFFFFFFFFFFFFFFFFFFFFFFF AND PUSH32 0x8C5BE1E5EBEC7D5BD14F71427D1E84F3DD0314C0F7B2291E5B200AC8C7C3B925 DUP4 PUSH1 0x40 MLOAD PUSH2 0xECE SWAP2 SWAP1 PUSH2 0x13E4 JUMP JUMPDEST PUSH1 0x40 MLOAD DUP1 SWAP2 SUB SWAP1 LOG3 POP POP POP JUMP JUMPDEST PUSH1 0x0 PUSH2 0xEE7 DUP5 DUP5 PUSH2 0xC83 JUMP JUMPDEST SWAP1 POP PUSH32 0xFFFFFFFFFFFFFFFFFFFFFFFFFFFFFFFFFFFFFFFFFFFFFFFFFFFFFFFFFFFFFFFF DUP2 EQ PUSH2 0xF61 JUMPI DUP2 DUP2 LT ISZERO PUSH2 0xF53 JUMPI PUSH1 0x40 MLOAD PUSH32 0x8C379A000000000000000000000000000000000000000000000000000000000 DUP2 MSTORE PUSH1 0x4 ADD PUSH2 0xF4A SWAP1 PUSH2 0x196B JUMP JUMPDEST PUSH1 0x40 MLOAD DUP1 SWAP2 SUB SWAP1 REVERT JUMPDEST PUSH2 0xF60 DUP5 DUP5 DUP5 DUP5 SUB PUSH2 0xD12 JUMP JUMPDEST JUMPDEST POP POP POP POP JUMP JUMPDEST PUSH1 0x0 PUSH20 0xFFFFFFFFFFFFFFFFFFFFFFFFFFFFFFFFFFFFFFFF AND DUP4 PUSH20 0xFFFFFFFFFFFFFFFFFFFFFFFFFFFFFFFFFFFFFFFF AND SUB PUSH2 0xFD6 JUMPI PUSH1 0x40 MLOAD PUSH32 0x8C379A000000000000000000000000000000000000000000000000000000000 DUP2 MSTORE PUSH1 0x4 ADD PUSH2 0xFCD SWAP1 PUSH2 0x19FD JUMP JUMPDEST PUSH1 0x40 MLOAD DUP1 SWAP2 SUB SWAP1 REVERT JUMPDEST PUSH1 0x0 PUSH20 0xFFFFFFFFFFFFFFFFFFFFFFFFFFFFFFFFFFFFFFFF AND DUP3 PUSH20 0xFFFFFFFFFFFFFFFFFFFFFFFFFFFFFFFFFFFFFFFF AND SUB PUSH2 0x1045 JUMPI PUSH1 0x40 MLOAD PUSH32 0x8C379A000000000000000000000000000000000000000000000000000000000 DUP2 MSTORE PUSH1 0x4 ADD PUSH2 0x103C SWAP1 PUSH2 0x1A8F JUMP JUMPDEST PUSH1 0x40 MLOAD DUP1 SWAP2 SUB SWAP1 REVERT JUMPDEST PUSH2 0x1050 DUP4 DUP4 DUP4 PUSH2 0x11DD JUMP JUMPDEST PUSH1 0x0 DUP1 PUSH1 0x0 DUP6 PUSH20 0xFFFFFFFFFFFFFFFFFFFFFFFFFFFFFFFFFFFFFFFF AND PUSH20 0xFFFFFFFFFFFFFFFFFFFFFFFFFFFFFFFFFFFFFFFF AND DUP2 MSTORE PUSH1 0x20 ADD SWAP1 DUP2 MSTORE PUSH1 0x20 ADD PUSH1 0x0 KECCAK256 SLOAD SWAP1 POP DUP2 DUP2 LT ISZERO PUSH2 0x10D6 JUMPI PUSH1 0x40 MLOAD PUSH32 0x8C379A000000000000000000000000000000000000000000000000000000000 DUP2 MSTORE PUSH1 0x4 ADD PUSH2 0x10CD SWAP1 PUSH2 0x1B21 JUMP JUMPDEST PUSH1 0x40 MLOAD DUP1 SWAP2 SUB SWAP1 REVERT JUMPDEST DUP2 DUP2 SUB PUSH1 0x0 DUP1 DUP7 PUSH20 0xFFFFFFFFFFFFFFFFFFFFFFFFFFFFFFFFFFFFFFFF AND PUSH20 0xFFFFFFFFFFFFFFFFFFFFFFFFFFFFFFFFFFFFFFFF AND DUP2 MSTORE PUSH1 0x20 ADD SWAP1 DUP2 MSTORE PUSH1 0x20 ADD PUSH1 0x0 KECCAK256 DUP2 SWAP1 SSTORE POP DUP2 PUSH1 0x0 DUP1 DUP6 PUSH20 0xFFFFFFFFFFFFFFFFFFFFFFFFFFFFFFFFFFFFFFFF AND PUSH20 0xFFFFFFFFFFFFFFFFFFFFFFFFFFFFFFFFFFFFFFFF AND DUP2 MSTORE PUSH1 0x20 ADD SWAP1 DUP2 MSTORE PUSH1 0x20 ADD PUSH1 0x0 KECCAK256 PUSH1 0x0 DUP3 DUP3 SLOAD ADD SWAP3 POP POP DUP2 SWAP1 SSTORE POP DUP3 PUSH20 0xFFFFFFFFFFFFFFFFFFFFFFFFFFFFFFFFFFFFFFFF AND DUP5 PUSH20 0xFFFFFFFFFFFFFFFFFFFFFFFFFFFFFFFFFFFFFFFF AND PUSH32 0xDDF252AD1BE2C89B69C2B068FC378DAA952BA7F163C4A11628F55A4DF523B3EF DUP5 PUSH1 0x40 MLOAD PUSH2 0x11C4 SWAP2 SWAP1 PUSH2 0x13E4 JUMP JUMPDEST PUSH1 0x40 MLOAD DUP1 SWAP2 SUB SWAP1 LOG3 PUSH2 0x11D7 DUP5 DUP5 DUP5 PUSH2 0x11E2 JUMP JUMPDEST POP POP POP POP JUMP JUMPDEST POP POP POP JUMP JUMPDEST POP POP POP JUMP JUMPDEST PUSH1 0x0 DUP1 REVERT JUMPDEST PUSH1 0x0 DUP2 SWAP1 POP SWAP2 SWAP1 POP JUMP JUMPDEST PUSH2 0x11FF DUP2 PUSH2 0x11EC JUMP JUMPDEST DUP2 EQ PUSH2 0x120A JUMPI PUSH1 0x0 DUP1 REVERT JUMPDEST POP JUMP JUMPDEST PUSH1 0x0 DUP2 CALLDATALOAD SWAP1 POP PUSH2 0x121C DUP2 PUSH2 0x11F6 JUMP JUMPDEST SWAP3 SWAP2 POP POP JUMP JUMPDEST PUSH1 0x0 PUSH1 0x20 DUP3 DUP5 SUB SLT ISZERO PUSH2 0x1238 JUMPI PUSH2 0x1237 PUSH2 0x11E7 JUMP JUMPDEST JUMPDEST PUSH1 0x0 PUSH2 0x1246 DUP5 DUP3 DUP6 ADD PUSH2 0x120D JUMP JUMPDEST SWAP2 POP POP SWAP3 SWAP2 POP POP JUMP JUMPDEST PUSH1 0x0 DUP2 MLOAD SWAP1 POP SWAP2 SWAP1 POP JUMP JUMPDEST PUSH1 0x0 DUP3 DUP3 MSTORE PUSH1 0x20 DUP3 ADD SWAP1 POP SWAP3 SWAP2 POP POP JUMP JUMPDEST PUSH1 0x0 JUMPDEST DUP4 DUP2 LT ISZERO PUSH2 0x1289 JUMPI DUP1 DUP3 ADD MLOAD DUP2 DUP5 ADD MSTORE PUSH1 0x20 DUP2 ADD SWAP1 POP PUSH2 0x126E JUMP JUMPDEST PUSH1 0x0 DUP5 DUP5 ADD MSTORE POP POP POP POP JUMP JUMPDEST PUSH1 0x0 PUSH1 0x1F NOT PUSH1 0x1F DUP4 ADD AND SWAP1 POP SWAP2 SWAP1 POP JUMP JUMPDEST PUSH1 0x0 PUSH2 0x12B1 DUP3 PUSH2 0x124F JUMP JUMPDEST PUSH2 0x12BB DUP2 DUP6 PUSH2 0x125A JUMP JUMPDEST SWAP4 POP PUSH2 0x12CB DUP2 DUP6 PUSH1 0x20 DUP7 ADD PUSH2 0x126B JUMP JUMPDEST PUSH2 0x12D4 DUP2 PUSH2 0x1295 JUMP JUMPDEST DUP5 ADD SWAP2 POP POP SWAP3 SWAP2 POP POP JUMP JUMPDEST PUSH1 0x0 PUSH1 0x20 DUP3 ADD SWAP1 POP DUP2 DUP2 SUB PUSH1 0x0 DUP4 ADD MSTORE PUSH2 0x12F9 DUP2 DUP5 PUSH2 0x12A6 JUMP JUMPDEST SWAP1 POP SWAP3 SWAP2 POP POP JUMP JUMPDEST PUSH1 0x0 PUSH20 0xFFFFFFFFFFFFFFFFFFFFFFFFFFFFFFFFFFFFFFFF DUP3 AND SWAP1 POP SWAP2 SWAP1 POP JUMP JUMPDEST PUSH1 0x0 PUSH2 0x132C DUP3 PUSH2 0x1301 JUMP JUMPDEST SWAP1 POP SWAP2 SWAP1 POP JUMP JUMPDEST PUSH2 0x133C DUP2 PUSH2 0x1321 JUMP JUMPDEST DUP2 EQ PUSH2 0x1347 JUMPI PUSH1 0x0 DUP1 REVERT JUMPDEST POP JUMP JUMPDEST PUSH1 0x0 DUP2 CALLDATALOAD SWAP1 POP PUSH2 0x1359 DUP2 PUSH2 0x1333 JUMP JUMPDEST SWAP3 SWAP2 POP POP JUMP JUMPDEST PUSH1 0x0 DUP1 PUSH1 0x40 DUP4 DUP6 SUB SLT ISZERO PUSH2 0x1376 JUMPI PUSH2 0x1375 PUSH2 0x11E7 JUMP JUMPDEST JUMPDEST PUSH1 0x0 PUSH2 0x1384 DUP6 DUP3 DUP7 ADD PUSH2 0x134A JUMP JUMPDEST SWAP3 POP POP PUSH1 0x20 PUSH2 0x1395 DUP6 DUP3 DUP7 ADD PUSH2 0x120D JUMP JUMPDEST SWAP2 POP POP SWAP3 POP SWAP3 SWAP1 POP JUMP JUMPDEST PUSH1 0x0 DUP2 ISZERO ISZERO SWAP1 POP SWAP2 SWAP1 POP JUMP JUMPDEST PUSH2 0x13B4 DUP2 PUSH2 0x139F JUMP JUMPDEST DUP3 MSTORE POP POP JUMP JUMPDEST PUSH1 0x0 PUSH1 0x20 DUP3 ADD SWAP1 POP PUSH2 0x13CF PUSH1 0x0 DUP4 ADD DUP5 PUSH2 0x13AB JUMP JUMPDEST SWAP3 SWAP2 POP POP JUMP JUMPDEST PUSH2 0x13DE DUP2 PUSH2 0x11EC JUMP JUMPDEST DUP3 MSTORE POP POP JUMP JUMPDEST PUSH1 0x0 PUSH1 0x20 DUP3 ADD SWAP1 POP PUSH2 0x13F9 PUSH1 0x0 DUP4 ADD DUP5 PUSH2 0x13D5 JUMP JUMPDEST SWAP3 SWAP2 POP POP JUMP JUMPDEST PUSH1 0x0 DUP1 PUSH1 0x0 PUSH1 0x60 DUP5 DUP7 SUB SLT ISZERO PUSH2 0x1418 JUMPI PUSH2 0x1417 PUSH2 0x11E7 JUMP JUMPDEST JUMPDEST PUSH1 0x0 PUSH2 0x1426 DUP7 DUP3 DUP8 ADD PUSH2 0x134A JUMP JUMPDEST SWAP4 POP POP PUSH1 0x20 PUSH2 0x1437 DUP7 DUP3 DUP8 ADD PUSH2 0x134A JUMP JUMPDEST SWAP3 POP POP PUSH1 0x40 PUSH2 0x1448 DUP7 DUP3 DUP8 ADD PUSH2 0x120D JUMP JUMPDEST SWAP2 POP POP SWAP3 POP SWAP3 POP SWAP3 JUMP JUMPDEST PUSH1 0x0 PUSH1 0xFF DUP3 AND SWAP1 POP SWAP2 SWAP1 POP JUMP JUMPDEST PUSH2 0x1468 DUP2 PUSH2 0x1452 JUMP JUMPDEST DUP3 MSTORE POP POP JUMP JUMPDEST PUSH1 0x0 PUSH1 0x20 DUP3 ADD SWAP1 POP PUSH2 0x1483 PUSH1 0x0 DUP4 ADD DUP5 PUSH2 0x145F JUMP JUMPDEST SWAP3 SWAP2 POP POP JUMP JUMPDEST PUSH1 0x0 PUSH1 0x20 DUP3 DUP5 SUB SLT ISZERO PUSH2 0x149F JUMPI PUSH2 0x149E PUSH2 0x11E7 JUMP JUMPDEST JUMPDEST PUSH1 0x0 PUSH2 0x14AD DUP5 DUP3 DUP6 ADD PUSH2 0x134A JUMP JUMPDEST SWAP2 POP POP SWAP3 SWAP2 POP POP JUMP JUMPDEST PUSH1 0x0 DUP1 PUSH1 0x40 DUP4 DUP6 SUB SLT ISZERO PUSH2 0x14CD JUMPI PUSH2 0x14CC PUSH2 0x11E7 JUMP JUMPDEST JUMPDEST PUSH1 0x0 PUSH2 0x14DB DUP6 DUP3 DUP7 ADD PUSH2 0x134A JUMP JUMPDEST SWAP3 POP POP PUSH1 0x20 PUSH2 0x14EC DUP6 DUP3 DUP7 ADD PUSH2 0x134A JUMP JUMPDEST SWAP2 POP POP SWAP3 POP SWAP3 SWAP1 POP JUMP JUMPDEST PUSH32 0x4E487B7100000000000000000000000000000000000000000000000000000000 PUSH1 0x0 MSTORE PUSH1 0x22 PUSH1 0x4 MSTORE PUSH1 0x24 PUSH1 0x0 REVERT JUMPDEST PUSH1 0x0 PUSH1 0x2 DUP3 DIV SWAP1 POP PUSH1 0x1 DUP3 AND DUP1 PUSH2 0x153D JUMPI PUSH1 0x7F DUP3 AND SWAP2 POP JUMPDEST PUSH1 0x20 DUP3 LT DUP2 SUB PUSH2 0x1550 JUMPI PUSH2 0x154F PUSH2 0x14F6 JUMP JUMPDEST JUMPDEST POP SWAP2 SWAP1 POP JUMP JUMPDEST PUSH32 0x4E487B7100000000000000000000000000000000000000000000000000000000 PUSH1 0x0 MSTORE PUSH1 0x11 PUSH1 0x4 MSTORE PUSH1 0x24 PUSH1 0x0 REVERT JUMPDEST PUSH1 0x0 PUSH2 0x1590 DUP3 PUSH2 0x11EC JUMP JUMPDEST SWAP2 POP PUSH2 0x159B DUP4 PUSH2 0x11EC JUMP JUMPDEST SWAP3 POP DUP3 DUP3 ADD SWAP1 POP DUP1 DUP3 GT ISZERO PUSH2 0x15B3 JUMPI PUSH2 0x15B2 PUSH2 0x1556 JUMP JUMPDEST JUMPDEST SWAP3 SWAP2 POP POP JUMP JUMPDEST PUSH32 0x4163636F756E7420697320616C726561647920626C61636B6C69737465640000 PUSH1 0x0 DUP3 ADD MSTORE POP JUMP JUMPDEST PUSH1 0x0 PUSH2 0x15EF PUSH1 0x1E DUP4 PUSH2 0x125A JUMP JUMPDEST SWAP2 POP PUSH2 0x15FA DUP3 PUSH2 0x15B9 JUMP JUMPDEST PUSH1 0x20 DUP3 ADD SWAP1 POP SWAP2 SWAP1 POP JUMP JUMPDEST PUSH1 0x0 PUSH1 0x20 DUP3 ADD SWAP1 POP DUP2 DUP2 SUB PUSH1 0x0 DUP4 ADD MSTORE PUSH2 0x161E DUP2 PUSH2 0x15E2 JUMP JUMPDEST SWAP1 POP SWAP2 SWAP1 POP JUMP JUMPDEST PUSH32 0x4163636F756E74206973206E6F7420626C61636B6C6973746564000000000000 PUSH1 0x0 DUP3 ADD MSTORE POP JUMP JUMPDEST PUSH1 0x0 PUSH2 0x165B PUSH1 0x1A DUP4 PUSH2 0x125A JUMP JUMPDEST SWAP2 POP PUSH2 0x1666 DUP3 PUSH2 0x1625 JUMP JUMPDEST PUSH1 0x20 DUP3 ADD SWAP1 POP SWAP2 SWAP1 POP JUMP JUMPDEST PUSH1 0x0 PUSH1 0x20 DUP3 ADD SWAP1 POP DUP2 DUP2 SUB PUSH1 0x0 DUP4 ADD MSTORE PUSH2 0x168A DUP2 PUSH2 0x164E JUMP JUMPDEST SWAP1 POP SWAP2 SWAP1 POP JUMP JUMPDEST PUSH32 0x45524332303A2064656372656173656420616C6C6F77616E63652062656C6F77 PUSH1 0x0 DUP3 ADD MSTORE PUSH32 0x207A65726F000000000000000000000000000000000000000000000000000000 PUSH1 0x20 DUP3 ADD MSTORE POP JUMP JUMPDEST PUSH1 0x0 PUSH2 0x16ED PUSH1 0x25 DUP4 PUSH2 0x125A JUMP JUMPDEST SWAP2 POP PUSH2 0x16F8 DUP3 PUSH2 0x1691 JUMP JUMPDEST PUSH1 0x40 DUP3 ADD SWAP1 POP SWAP2 SWAP1 POP JUMP JUMPDEST PUSH1 0x0 PUSH1 0x20 DUP3 ADD SWAP1 POP DUP2 DUP2 SUB PUSH1 0x0 DUP4 ADD MSTORE PUSH2 0x171C DUP2 PUSH2 0x16E0 JUMP JUMPDEST SWAP1 POP SWAP2 SWAP1 POP JUMP JUMPDEST PUSH32 0x53656E64657220697320626C61636B6C69737465640000000000000000000000 PUSH1 0x0 DUP3 ADD MSTORE POP JUMP JUMPDEST PUSH1 0x0 PUSH2 0x1759 PUSH1 0x15 DUP4 PUSH2 0x125A JUMP JUMPDEST SWAP2 POP PUSH2 0x1764 DUP3 PUSH2 0x1723 JUMP JUMPDEST PUSH1 0x20 DUP3 ADD SWAP1 POP SWAP2 SWAP1 POP JUMP JUMPDEST PUSH1 0x0 PUSH1 0x20 DUP3 ADD SWAP1 POP DUP2 DUP2 SUB PUSH1 0x0 DUP4 ADD MSTORE PUSH2 0x1788 DUP2 PUSH2 0x174C JUMP JUMPDEST SWAP1 POP SWAP2 SWAP1 POP JUMP JUMPDEST PUSH32 0x526563697069656E7420697320626C61636B6C69737465640000000000000000 PUSH1 0x0 DUP3 ADD MSTORE POP JUMP JUMPDEST PUSH1 0x0 PUSH2 0x17C5 PUSH1 0x18 DUP4 PUSH2 0x125A JUMP JUMPDEST SWAP2 POP PUSH2 0x17D0 DUP3 PUSH2 0x178F JUMP JUMPDEST PUSH1 0x20 DUP3 ADD SWAP1 POP SWAP2 SWAP1 POP JUMP JUMPDEST PUSH1 0x0 PUSH1 0x20 DUP3 ADD SWAP1 POP DUP2 DUP2 SUB PUSH1 0x0 DUP4 ADD MSTORE PUSH2 0x17F4 DUP2 PUSH2 0x17B8 JUMP JUMPDEST SWAP1 POP SWAP2 SWAP1 POP JUMP JUMPDEST PUSH32 0x45524332303A20617070726F76652066726F6D20746865207A65726F20616464 PUSH1 0x0 DUP3 ADD MSTORE PUSH32 0x7265737300000000000000000000000000000000000000000000000000000000 PUSH1 0x20 DUP3 ADD MSTORE POP JUMP JUMPDEST PUSH1 0x0 PUSH2 0x1857 PUSH1 0x24 DUP4 PUSH2 0x125A JUMP JUMPDEST SWAP2 POP PUSH2 0x1862 DUP3 PUSH2 0x17FB JUMP JUMPDEST PUSH1 0x40 DUP3 ADD SWAP1 POP SWAP2 SWAP1 POP JUMP JUMPDEST PUSH1 0x0 PUSH1 0x20 DUP3 ADD SWAP1 POP DUP2 DUP2 SUB PUSH1 0x0 DUP4 ADD MSTORE PUSH2 0x1886 DUP2 PUSH2 0x184A JUMP JUMPDEST SWAP1 POP SWAP2 SWAP1 POP JUMP JUMPDEST PUSH32 0x45524332303A20617070726F766520746F20746865207A65726F206164647265 PUSH1 0x0 DUP3 ADD MSTORE PUSH32 0x7373000000000000000000000000000000000000000000000000000000000000 PUSH1 0x20 DUP3 ADD MSTORE POP JUMP JUMPDEST PUSH1 0x0 PUSH2 0x18E9 PUSH1 0x22 DUP4 PUSH2 0x125A JUMP JUMPDEST SWAP2 POP PUSH2 0x18F4 DUP3 PUSH2 0x188D JUMP JUMPDEST PUSH1 0x40 DUP3 ADD SWAP1 POP SWAP2 SWAP1 POP JUMP JUMPDEST PUSH1 0x0 PUSH1 0x20 DUP3 ADD SWAP1 POP DUP2 DUP2 SUB PUSH1 0x0 DUP4 ADD MSTORE PUSH2 0x1918 DUP2 PUSH2 0x18DC JUMP JUMPDEST SWAP1 POP SWAP2 SWAP1 POP JUMP JUMPDEST PUSH32 0x45524332303A20696E73756666696369656E7420616C6C6F77616E6365000000 PUSH1 0x0 DUP3 ADD MSTORE POP JUMP JUMPDEST PUSH1 0x0 PUSH2 0x1955 PUSH1 0x1D DUP4 PUSH2 0x125A JUMP JUMPDEST SWAP2 POP PUSH2 0x1960 DUP3 PUSH2 0x191F JUMP JUMPDEST PUSH1 0x20 DUP3 ADD SWAP1 POP SWAP2 SWAP1 POP JUMP JUMPDEST PUSH1 0x0 PUSH1 0x20 DUP3 ADD SWAP1 POP DUP2 DUP2 SUB PUSH1 0x0 DUP4 ADD MSTORE PUSH2 0x1984 DUP2 PUSH2 0x1948 JUMP JUMPDEST SWAP1 POP SWAP2 SWAP1 POP JUMP JUMPDEST PUSH32 0x45524332303A207472616E736665722066726F6D20746865207A65726F206164 PUSH1 0x0 DUP3 ADD MSTORE PUSH32 0x6472657373000000000000000000000000000000000000000000000000000000 PUSH1 0x20 DUP3 ADD MSTORE POP JUMP JUMPDEST PUSH1 0x0 PUSH2 0x19E7 PUSH1 0x25 DUP4 PUSH2 0x125A JUMP JUMPDEST SWAP2 POP PUSH2 0x19F2 DUP3 PUSH2 0x198B JUMP JUMPDEST PUSH1 0x40 DUP3 ADD SWAP1 POP SWAP2 SWAP1 POP JUMP JUMPDEST PUSH1 0x0 PUSH1 0x20 DUP3 ADD SWAP1 POP DUP2 DUP2 SUB PUSH1 0x0 DUP4 ADD MSTORE PUSH2 0x1A16 DUP2 PUSH2 0x19DA JUMP JUMPDEST SWAP1 POP SWAP2 SWAP1 POP JUMP JUMPDEST PUSH32 0x45524332303A207472616E7366657220746F20746865207A65726F2061646472 PUSH1 0x0 DUP3 ADD MSTORE PUSH32 0x6573730000000000000000000000000000000000000000000000000000000000 PUSH1 0x20 DUP3 ADD MSTORE POP JUMP JUMPDEST PUSH1 0x0 PUSH2 0x1A79 PUSH1 0x23 DUP4 PUSH2 0x125A JUMP JUMPDEST SWAP2 POP PUSH2 0x1A84 DUP3 PUSH2 0x1A1D JUMP JUMPDEST PUSH1 0x40 DUP3 ADD SWAP1 POP SWAP2 SWAP1 POP JUMP JUMPDEST PUSH1 0x0 PUSH1 0x20 DUP3 ADD SWAP1 POP DUP2 DUP2 SUB PUSH1 0x0 DUP4 ADD MSTORE PUSH2 0x1AA8 DUP2 PUSH2 0x1A6C JUMP JUMPDEST SWAP1 POP SWAP2 SWAP1 POP JUMP JUMPDEST PUSH32 0x45524332303A207472616E7366657220616D6F756E7420657863656564732062 PUSH1 0x0 DUP3 ADD MSTORE PUSH32 0x616C616E63650000000000000000000000000000000000000000000000000000 PUSH1 0x20 DUP3 ADD MSTORE POP JUMP JUMPDEST PUSH1 0x0 PUSH2 0x1B0B PUSH1 0x26 DUP4 PUSH2 0x125A JUMP JUMPDEST SWAP2 POP PUSH2 0x1B16 DUP3 PUSH2 0x1AAF JUMP JUMPDEST PUSH1 0x40 DUP3 ADD SWAP1 POP SWAP2 SWAP1 POP JUMP JUMPDEST PUSH1 0x0 PUSH1 0x20 DUP3 ADD SWAP1 POP DUP2 DUP2 SUB PUSH1 0x0 DUP4 ADD MSTORE PUSH2 0x1B3A DUP2 PUSH2 0x1AFE JUMP JUMPDEST SWAP1 POP SWAP2 SWAP1 POP JUMP INVALID LOG2 PUSH5 0x6970667358 0x22 SLT KECCAK256 0x5E LOG3 DUP9 PUSH26 0x293569CD0E8D0243C787F5946FE92A0172FA5BD6A104FA404CE3 0xD5 0xD5 PUSH5 0x736F6C6343 STOP ADDMOD SLT STOP CALLER PUSH9 0x747470733A2F2F7777 PUSH24 0x2E74686574696D65732E636F2E756B2F61727469636C652F PUSH4 0x68616E63 PUSH6 0x6C6C6F722D61 PUSH13 0x6973746169722D6461726C696E PUSH8 0x2D6F6E2D6272696E PUSH12 0x2D6F662D7365636F6E642D62 PUSH2 0x696C PUSH16 0x75742D666F722D62616E6B732D6E396C CALLER CODESIZE ORIGIN PUSH14 0x6E36326868747470733A2F2F6169 0x2E PUSH4 0x6174656E PUSH2 0x6361 PUSH17 0x2E78797A2F77702D636F6E74656E742F75 PUSH17 0x6C6F6164732F696E736372697074696F6E 0x2F CALLER 0x2E PUSH2 0x7669 PUSH7 0x68747470733A2F 0x2F PUSH24 0x77772E796F75747562652E636F6D2F77617463683F763D56 PUSH9 0x4131645A5865616F30 SLOAD PUSH16 0x6B656E5F375F524944545F6874747073 GASPRICE 0x2F 0x2F PUSH24 0x77772E796F75747562652E636F6D2F77617463683F763D56 PUSH9 0x4131645A5865616F30 SLOAD PUSH16 0x6B656E5F365F524944545F6874747073 GASPRICE 0x2F 0x2F PUSH2 0x692E PUSH4 0x6174656E PUSH2 0x6361 PUSH17 0x2E78797A2F77702D636F6E74656E742F75 PUSH17 0x6C6F6164732F696E736372697074696F6E 0x2F CALLDATASIZE 0x2E PUSH2 0x7669 PUSH7 0x546F6B656E5F38 0x5F MSTORE 0x49 PREVRANDAO SLOAD 0x5F PUSH9 0x747470733A2F2F7777 PUSH24 0x2E6663612E6F72672E756B2F6E6577732F73706565636865 PUSH20 0x2F7269736B732D746F6B656E2D726567756C6174 PUSH10 0x6F6E68747470733A2F2F PUSH24 0x77772E6663612E6F72672E756B2F6E6577732F7370656563 PUSH9 0x65732F7269736B732D PUSH21 0x6F6B656E2D726567756C6174696F6E546F6B656E5F BALANCE 0x5F MSTORE 0x49 PREVRANDAO SLOAD 0x5F PUSH9 0x747470733A2F2F6169 0x2E PUSH4 0x6174656E PUSH2 0x6361 PUSH17 0x2E78797A2F77702D636F6E74656E742F75 PUSH17 0x6C6F6164732F696E736372697074696F6E 0x2F BALANCE 0x2E PUSH2 0x7669 PUSH7 0x546F6B656E5F33 0x5F MSTORE 0x49 PREVRANDAO SLOAD 0x5F PUSH9 0x747470733A2F2F6169 0x2E PUSH4 0x6174656E PUSH2 0x6361 PUSH17 0x2E78797A2F77702D636F6E74656E742F75 PUSH17 0x6C6F6164732F696E736372697074696F6E 0x2F CALLER 0x2E PUSH2 0x7669 PUSH7 0x546F6B656E5F35 0x5F MSTORE 0x49 PREVRANDAO SLOAD 0x5F PUSH9 0x747470733A2F2F6169 0x2E PUSH4 0x6174656E PUSH2 0x6361 PUSH17 0x2E78797A2F77702D636F6E74656E742F75 PUSH17 0x6C6F6164732F696E736372697074696F6E 0x2F CALLDATALOAD 0x2E PUSH2 0x7669 PUSH7 0x68747470733A2F 0x2F PUSH2 0x692E PUSH4 0x6174656E PUSH2 0x6361 PUSH17 0x2E78797A2F77702D636F6E74656E742F75 PUSH17 0x6C6F6164732F696E736372697074696F6E 0x2F CALLVALUE 0x2E PUSH2 0x7669 PUSH7 0x546F6B656E5F32 0x5F MSTORE 0x49 PREVRANDAO SLOAD 0x5F PUSH9 0x747470733A2F2F6169 0x2E PUSH4 0x6174656E PUSH2 0x6361 PUSH17 0x2E78797A2F77702D636F6E74656E742F75 PUSH17 0x6C6F6164732F696E736372697074696F6E 0x2F ORIGIN 0x2E PUSH2 0x7669 PUSH7 0x68747470733A2F 0x2F PUSH2 0x692E PUSH4 0x6174656E PUSH2 0x6361 PUSH17 0x2E78797A2F77702D636F6E74656E742F75 PUSH17 0x6C6F6164732F696E736372697074696F6E 0x2F CALLDATASIZE 0x2E PUSH2 0x7669 PUSH7 0x68747470733A2F 0x2F PUSH2 0x692E PUSH4 0x6174656E PUSH2 0x6361 PUSH17 0x2E78797A2F77702D636F6E74656E742F75 PUSH17 0x6C6F6164732F696E736372697074696F6E 0x2F BALANCE 0x2E PUSH2 0x7669 PUSH7 0x68747470733A2F 0x2F PUSH24 0x77772E796F75747562652E636F6D2F73686F7274732F4961 PUSH4 0x684F7238 ORIGIN 0x4F PUSH18 0x4568747470733A2F2F61692E636174656E61 PUSH4 0x61702E78 PUSH26 0x7A2F77702D636F6E74656E742F75706C6F6164732F696E736372 PUSH10 0x7074696F6E2F322E6176 PUSH10 0x66546F6B656E5F395F52 0x49 PREVRANDAO SLOAD 0x5F PUSH9 0x747470733A2F2F7777 PUSH24 0x2E74686574696D65732E636F2E756B2F61727469636C652F PUSH4 0x68616E63 PUSH6 0x6C6C6F722D61 PUSH13 0x6973746169722D6461726C696E PUSH8 0x2D6F6E2D6272696E PUSH12 0x2D6F662D7365636F6E642D62 PUSH2 0x696C PUSH16 0x75742D666F722D62616E6B732D6E396C CALLER CODESIZE ORIGIN PUSH14 0x6E36326868747470733A2F2F6169 0x2E PUSH4 0x6174656E PUSH2 0x6361 PUSH17 0x2E78797A2F77702D636F6E74656E742F75 PUSH17 0x6C6F6164732F696E736372697074696F6E 0x2F CALLDATALOAD 0x2E PUSH2 0x7669 PUSH7 0x546F6B656E5F34 0x5F MSTORE 0x49 PREVRANDAO SLOAD 0x5F PUSH9 0x747470733A2F2F6169 0x2E PUSH4 0x6174656E PUSH2 0x6361 PUSH17 0x2E78797A2F77702D636F6E74656E742F75 PUSH17 0x6C6F6164732F696E736372697074696F6E 0x2F CALLVALUE 0x2E PUSH2 0x7669 PUSH7 0x546F6B656E5F31 ADDRESS 0x5F MSTORE 0x49 PREVRANDAO SLOAD 0x5F PUSH9 0x747470733A2F2F7777 PUSH24 0x2E796F75747562652E636F6D2F73686F7274732F49616368 0x4F PUSH19 0x38324F71450000000000000000000000000000 "
				},
				"gasEstimates": {
					"creation": {
						"codeDepositCost": "1406200",
						"executionCost": "infinite",
						"totalCost": "infinite"
					},
					"external": {
						"addToBlacklist(address)": "27169",
						"allowance(address,address)": "infinite",
						"approve(address,uint256)": "infinite",
						"balanceOf(address)": "2886",
						"decimals()": "410",
						"decreaseAllowance(address,uint256)": "infinite",
						"getBalance()": "2659",
						"getInscription(uint256)": "infinite",
						"getURL(uint256)": "infinite",
						"increaseAllowance(address,uint256)": "infinite",
						"name()": "infinite",
						"removeFromBlacklist(address)": "27078",
						"symbol()": "infinite",
						"tokenInscriptions(uint256)": "infinite",
						"tokenURLs(uint256)": "infinite",
						"totalSupply()": "2549",
						"totalTokens()": "2496",
						"transfer(address,uint256)": "infinite",
						"transferFrom(address,address,uint256)": "infinite",
						"transferTokens(address,uint256)": "infinite"
					},
					"internal": {
						"getTokenInscription(uint256)": "infinite",
						"getTokenURL(uint256)": "infinite"
					}
				},
				"methodIdentifiers": {
					"addToBlacklist(address)": "44337ea1",
					"allowance(address,address)": "dd62ed3e",
					"approve(address,uint256)": "095ea7b3",
					"balanceOf(address)": "70a08231",
					"decimals()": "313ce567",
					"decreaseAllowance(address,uint256)": "a457c2d7",
					"getBalance()": "12065fe0",
					"getInscription(uint256)": "c4f576c7",
					"getURL(uint256)": "85d4755b",
					"increaseAllowance(address,uint256)": "39509351",
					"name()": "06fdde03",
					"removeFromBlacklist(address)": "537df3b6",
					"symbol()": "95d89b41",
					"tokenInscriptions(uint256)": "2431b6d5",
					"tokenURLs(uint256)": "047c0889",
					"totalSupply()": "18160ddd",
					"totalTokens()": "7e1c0c09",
					"transfer(address,uint256)": "a9059cbb",
					"transferFrom(address,address,uint256)": "23b872dd",
					"transferTokens(address,uint256)": "bec3fa17"
				}
			},
			"storageLayout": {
				"storage": [
					{
						"astId": 15,
						"contract": "MyToken.Sol:MyToken",
						"label": "_balances",
						"offset": 0,
						"slot": "0",
						"type": "t_mapping(t_address,t_uint256)"
					},
					{
						"astId": 21,
						"contract": "MyToken.Sol:MyToken",
						"label": "_allowances",
						"offset": 0,
						"slot": "1",
						"type": "t_mapping(t_address,t_mapping(t_address,t_uint256))"
					},
					{
						"astId": 23,
						"contract": "MyToken.Sol:MyToken",
						"label": "_totalSupply",
						"offset": 0,
						"slot": "2",
						"type": "t_uint256"
					},
					{
						"astId": 25,
						"contract": "MyToken.Sol:MyToken",
						"label": "_name",
						"offset": 0,
						"slot": "3",
						"type": "t_string_storage"
					},
					{
						"astId": 27,
						"contract": "MyToken.Sol:MyToken",
						"label": "_symbol",
						"offset": 0,
						"slot": "4",
						"type": "t_string_storage"
					},
					{
						"astId": 720,
						"contract": "MyToken.Sol:MyToken",
						"label": "tokenInscriptions",
						"offset": 0,
						"slot": "5",
						"type": "t_mapping(t_uint256,t_string_storage)"
					},
					{
						"astId": 724,
						"contract": "MyToken.Sol:MyToken",
						"label": "tokenURLs",
						"offset": 0,
						"slot": "6",
						"type": "t_mapping(t_uint256,t_string_storage)"
					},
					{
						"astId": 728,
						"contract": "MyToken.Sol:MyToken",
						"label": "blacklist",
						"offset": 0,
						"slot": "7",
						"type": "t_mapping(t_address,t_bool)"
					},
					{
						"astId": 730,
						"contract": "MyToken.Sol:MyToken",
						"label": "totalTokens",
						"offset": 0,
						"slot": "8",
						"type": "t_uint256"
					}
				],
				"types": {
					"t_address": {
						"encoding": "inplace",
						"label": "address",
						"numberOfBytes": "20"
					},
					"t_bool": {
						"encoding": "inplace",
						"label": "bool",
						"numberOfBytes": "1"
					},
					"t_mapping(t_address,t_bool)": {
						"encoding": "mapping",
						"key": "t_address",
						"label": "mapping(address => bool)",
						"numberOfBytes": "32",
						"value": "t_bool"
					},
					"t_mapping(t_address,t_mapping(t_address,t_uint256))": {
						"encoding": "mapping",
						"key": "t_address",
						"label": "mapping(address => mapping(address => uint256))",
						"numberOfBytes": "32",
						"value": "t_mapping(t_address,t_uint256)"
					},
					"t_mapping(t_address,t_uint256)": {
						"encoding": "mapping",
						"key": "t_address",
						"label": "mapping(address => uint256)",
						"numberOfBytes": "32",
						"value": "t_uint256"
					},
					"t_mapping(t_uint256,t_string_storage)": {
						"encoding": "mapping",
						"key": "t_uint256",
						"label": "mapping(uint256 => string)",
						"numberOfBytes": "32",
						"value": "t_string_storage"
					},
					"t_string_storage": {
						"encoding": "bytes",
						"label": "string",
						"numberOfBytes": "32"
					},
					"t_uint256": {
						"encoding": "inplace",
						"label": "uint256",
						"numberOfBytes": "32"
					}
				}
			},
			"userdoc": {
				"kind": "user",
				"methods": {},
				"version": 1
			}
		}
	}
}